{
  "contractName": "BuyerOperationsManagement",
  "abi": [
    {
      "inputs": [
        {
          "internalType": "address",
          "name": "farmerContractAddress",
          "type": "address"
        }
      ],
      "stateMutability": "nonpayable",
      "type": "constructor"
    },
    {
      "anonymous": false,
      "inputs": [
        {
          "indexed": false,
          "internalType": "string",
          "name": "buyerName",
          "type": "string"
        },
        {
          "indexed": false,
          "internalType": "string",
          "name": "message",
          "type": "string"
        }
      ],
      "name": "ByerSignupSuccessful",
      "type": "event"
    },
    {
      "inputs": [
        {
          "internalType": "string",
          "name": "_email",
          "type": "string"
        },
        {
          "internalType": "string",
          "name": "_password",
          "type": "string"
        }
      ],
      "name": "BuyerLogin",
      "outputs": [
        {
          "internalType": "bool",
          "name": "",
          "type": "bool"
        }
      ],
      "stateMutability": "view",
      "type": "function",
      "constant": true
    },
    {
      "inputs": [
        {
          "internalType": "address",
          "name": "",
          "type": "address"
        }
      ],
      "name": "BuyerLoginSignup",
      "outputs": [
        {
          "internalType": "string",
          "name": "name",
          "type": "string"
        },
        {
          "internalType": "string",
          "name": "email",
          "type": "string"
        },
        {
          "internalType": "string",
          "name": "number",
          "type": "string"
        },
        {
          "internalType": "string",
          "name": "password",
          "type": "string"
        }
      ],
      "stateMutability": "view",
      "type": "function",
      "constant": true
    },
    {
      "inputs": [
        {
          "internalType": "address",
          "name": "",
          "type": "address"
        },
        {
          "internalType": "uint256",
          "name": "",
          "type": "uint256"
        }
      ],
      "name": "buyerCarts",
      "outputs": [
        {
          "internalType": "uint256",
          "name": "productId",
          "type": "uint256"
        },
        {
          "internalType": "uint256",
          "name": "quantity",
          "type": "uint256"
        },
        {
          "internalType": "address",
          "name": "seller",
          "type": "address"
        },
        {
          "internalType": "string",
          "name": "name",
          "type": "string"
        },
        {
          "internalType": "uint256",
          "name": "price",
          "type": "uint256"
        },
        {
          "internalType": "string",
          "name": "imgurl",
          "type": "string"
        }
      ],
      "stateMutability": "view",
      "type": "function",
      "constant": true
    },
    {
      "inputs": [
        {
          "internalType": "address",
          "name": "",
          "type": "address"
        },
        {
          "internalType": "uint256",
          "name": "",
          "type": "uint256"
        }
      ],
      "name": "buyerOrders",
      "outputs": [
        {
          "internalType": "string",
          "name": "buyerName",
          "type": "string"
        },
        {
          "internalType": "address",
          "name": "buyerAddress",
          "type": "address"
        },
        {
          "internalType": "string",
          "name": "status",
          "type": "string"
        },
        {
          "internalType": "string",
          "name": "userAddress",
          "type": "string"
        },
        {
          "internalType": "string",
          "name": "userId",
          "type": "string"
        },
        {
          "internalType": "string",
          "name": "userPhoneNo",
          "type": "string"
        },
        {
          "internalType": "string",
          "name": "walletAddress",
          "type": "string"
        }
      ],
      "stateMutability": "view",
      "type": "function",
      "constant": true
    },
    {
      "inputs": [
        {
          "internalType": "string",
          "name": "_name",
          "type": "string"
        },
        {
          "internalType": "string",
          "name": "_email",
          "type": "string"
        },
        {
          "internalType": "string",
          "name": "_number",
          "type": "string"
        },
        {
          "internalType": "string",
          "name": "_password",
          "type": "string"
        }
      ],
      "name": "buyerSignup",
      "outputs": [],
      "stateMutability": "nonpayable",
      "type": "function"
    },
    {
      "inputs": [
        {
          "internalType": "address",
          "name": "",
          "type": "address"
        }
      ],
      "name": "buyerSpentAmount",
      "outputs": [
        {
          "internalType": "uint256",
          "name": "",
          "type": "uint256"
        }
      ],
      "stateMutability": "view",
      "type": "function",
      "constant": true
    },
    {
      "inputs": [],
      "name": "farmerContract",
      "outputs": [
        {
          "internalType": "contract FarmerOperationsManagement",
          "name": "",
          "type": "address"
        }
      ],
      "stateMutability": "view",
      "type": "function",
      "constant": true
    },
    {
      "inputs": [
        {
          "internalType": "uint256",
          "name": "",
          "type": "uint256"
        }
      ],
      "name": "orderStatus",
      "outputs": [
        {
          "internalType": "string",
          "name": "",
          "type": "string"
        }
      ],
      "stateMutability": "view",
      "type": "function",
      "constant": true
    },
    {
      "inputs": [],
      "name": "getAllFarmersProducts",
      "outputs": [
        {
          "components": [
            {
              "internalType": "uint256",
              "name": "productId",
              "type": "uint256"
            },
            {
              "internalType": "string",
              "name": "productName",
              "type": "string"
            },
            {
              "internalType": "uint256",
              "name": "productPrice",
              "type": "uint256"
            },
            {
              "internalType": "string",
              "name": "description",
              "type": "string"
            },
            {
              "internalType": "string",
              "name": "productType",
              "type": "string"
            },
            {
              "internalType": "string",
              "name": "productImageUrl",
              "type": "string"
            },
            {
              "internalType": "address",
              "name": "creator",
              "type": "address"
            },
            {
              "internalType": "string",
              "name": "productPackedDate",
              "type": "string"
            },
            {
              "internalType": "string",
              "name": "productExpire",
              "type": "string"
            },
            {
              "internalType": "uint256",
              "name": "ratingsCount",
              "type": "uint256"
            },
            {
              "internalType": "uint256",
              "name": "averageRating",
              "type": "uint256"
            }
          ],
          "internalType": "struct FarmerOperationsManagement.Product[]",
          "name": "",
          "type": "tuple[]"
        }
      ],
      "stateMutability": "view",
      "type": "function",
      "constant": true
    },
    {
      "inputs": [
        {
          "internalType": "uint256",
          "name": "productId",
          "type": "uint256"
        },
        {
          "internalType": "uint256",
          "name": "quantity",
          "type": "uint256"
        },
        {
          "internalType": "address",
          "name": "_seller",
          "type": "address"
        },
        {
          "internalType": "string",
          "name": "_name",
          "type": "string"
        },
        {
          "internalType": "uint256",
          "name": "_price",
          "type": "uint256"
        },
        {
          "internalType": "string",
          "name": "_imgurl",
          "type": "string"
        }
      ],
      "name": "addToCart",
      "outputs": [],
      "stateMutability": "nonpayable",
      "type": "function"
    },
    {
      "inputs": [
        {
          "internalType": "uint256",
          "name": "productId",
          "type": "uint256"
        },
        {
          "internalType": "address",
          "name": "sellerid",
          "type": "address"
        }
      ],
      "name": "removeFromCart",
      "outputs": [],
      "stateMutability": "nonpayable",
      "type": "function"
    },
    {
      "inputs": [],
      "name": "getCartItems",
      "outputs": [
        {
          "components": [
            {
              "internalType": "uint256",
              "name": "productId",
              "type": "uint256"
            },
            {
              "internalType": "uint256",
              "name": "quantity",
              "type": "uint256"
            },
            {
              "internalType": "address",
              "name": "seller",
              "type": "address"
            },
            {
              "internalType": "string",
              "name": "name",
              "type": "string"
            },
            {
              "internalType": "uint256",
              "name": "price",
              "type": "uint256"
            },
            {
              "internalType": "string",
              "name": "imgurl",
              "type": "string"
            }
          ],
          "internalType": "struct BuyerOperationsManagement.CartItem[]",
          "name": "",
          "type": "tuple[]"
        }
      ],
      "stateMutability": "view",
      "type": "function",
      "constant": true
    },
    {
      "inputs": [],
      "name": "getOrders",
      "outputs": [
        {
          "components": [
            {
              "internalType": "string",
              "name": "buyerName",
              "type": "string"
            },
            {
              "internalType": "address",
              "name": "buyerAddress",
              "type": "address"
            },
            {
              "internalType": "string",
              "name": "status",
              "type": "string"
            },
            {
              "internalType": "string",
              "name": "userAddress",
              "type": "string"
            },
            {
              "internalType": "string",
              "name": "userId",
              "type": "string"
            },
            {
              "internalType": "string",
              "name": "userPhoneNo",
              "type": "string"
            },
            {
              "internalType": "string",
              "name": "walletAddress",
              "type": "string"
            }
          ],
          "internalType": "struct FarmerOperationsManagement.ProductPurchase[]",
          "name": "",
          "type": "tuple[]"
        }
      ],
      "stateMutability": "view",
      "type": "function",
      "constant": true
    },
    {
      "inputs": [
        {
          "internalType": "uint256",
          "name": "orderId",
          "type": "uint256"
        },
        {
          "internalType": "string",
          "name": "status",
          "type": "string"
        }
      ],
      "name": "updateOrderStatus",
      "outputs": [],
      "stateMutability": "nonpayable",
      "type": "function"
    },
    {
      "inputs": [
        {
          "internalType": "uint256",
          "name": "orderId",
          "type": "uint256"
        }
      ],
      "name": "getOrderStatus",
      "outputs": [
        {
          "internalType": "string",
          "name": "",
          "type": "string"
        }
      ],
      "stateMutability": "view",
      "type": "function",
      "constant": true
    }
  ],
  "bytecode": "0x60806040523480156200001157600080fd5b506040516200417038038062004170833981810160405281019062000037919062000096565b80600160006101000a81548173ffffffffffffffffffffffffffffffffffffffff021916908373ffffffffffffffffffffffffffffffffffffffff1602179055505062000110565b6000815190506200009081620000f6565b92915050565b600060208284031215620000a957600080fd5b6000620000b9848285016200007f565b91505092915050565b6000620000cf82620000d6565b9050919050565b600073ffffffffffffffffffffffffffffffffffffffff82169050919050565b6200010181620000c2565b81146200010d57600080fd5b50565b61405080620001206000396000f3fe608060405234801561001057600080fd5b50600436106100f55760003560e01c80637207228b11610097578063a3c3b69a11610066578063a3c3b69a14610291578063bdea8e0c146102c4578063bff49450146102f4578063c72d6a3d14610324576100f5565b80637207228b146101f25780638354dc2d146102225780639c0b7d461461023e578063a1fef2c81461025c576100f5565b80632c6bd0d8116100d35780632c6bd0d8146101525780632e2dc43e1461016e5780634500cb601461018c57806345fa8aae146101c2576100f5565b806305e410dd146100fa57806316e954a614610118578063205fdde614610136575b600080fd5b610102610340565b60405161010f919061361e565b60405180910390f35b610120610574565b60405161012d9190613662565b60405180910390f35b610150600480360381019061014b9190612dba565b61098f565b005b61016c60048036038101906101679190612c92565b610cc9565b005b610176610e47565b6040516101839190613640565b60405180910390f35b6101a660048036038101906101a19190612b68565b6112a5565b6040516101b997969594939291906136dc565b60405180910390f35b6101dc60048036038101906101d79190612d55565b611654565b6040516101e991906136ba565b60405180910390f35b61020c60048036038101906102079190612c26565b6116f9565b6040516102199190613684565b60405180910390f35b61023c60048036038101906102379190612d7e565b6118f8565b005b610246611cb6565b604051610253919061369f565b60405180910390f35b61027660048036038101906102719190612b68565b611cdc565b60405161028896959493929190613946565b60405180910390f35b6102ab60048036038101906102a69190612b3f565b611e65565b6040516102bb9493929190613775565b60405180910390f35b6102de60048036038101906102d99190612b3f565b6120b5565b6040516102eb919061392b565b60405180910390f35b61030e60048036038101906103099190612d55565b6120cd565b60405161031b91906136ba565b60405180910390f35b61033e60048036038101906103399190612e0e565b61216d565b005b6060600260003373ffffffffffffffffffffffffffffffffffffffff1673ffffffffffffffffffffffffffffffffffffffff168152602001908152602001600020805480602002602001604051908101604052809291908181526020016000905b8282101561056b57838290600052602060002090600602016040518060c001604052908160008201548152602001600182015481526020016002820160009054906101000a900473ffffffffffffffffffffffffffffffffffffffff1673ffffffffffffffffffffffffffffffffffffffff1673ffffffffffffffffffffffffffffffffffffffff16815260200160038201805461043e90613c93565b80601f016020809104026020016040519081016040528092919081815260200182805461046a90613c93565b80156104b75780601f1061048c576101008083540402835291602001916104b7565b820191906000526020600020905b81548152906001019060200180831161049a57829003601f168201915b50505050508152602001600482015481526020016005820180546104da90613c93565b80601f016020809104026020016040519081016040528092919081815260200182805461050690613c93565b80156105535780601f1061052857610100808354040283529160200191610553565b820191906000526020600020905b81548152906001019060200180831161053657829003601f168201915b505050505081525050815260200190600101906103a1565b50505050905090565b6060600080600160009054906101000a900473ffffffffffffffffffffffffffffffffffffffff1673ffffffffffffffffffffffffffffffffffffffff1663536954e46040518163ffffffff1660e01b815260040160006040518083038186803b1580156105e157600080fd5b505afa1580156105f5573d6000803e3d6000fd5b505050506040513d6000823e3d601f19601f8201168201806040525081019061061e9190612ba4565b905060005b815181101561073d57600160009054906101000a900473ffffffffffffffffffffffffffffffffffffffff1673ffffffffffffffffffffffffffffffffffffffff16630a5cf0428383815181106106a3577f4e487b7100000000000000000000000000000000000000000000000000000000600052603260045260246000fd5b60200260200101516040518263ffffffff1660e01b81526004016106c79190613603565b60006040518083038186803b1580156106df57600080fd5b505afa1580156106f3573d6000803e3d6000fd5b505050506040513d6000823e3d601f19601f8201168201806040525081019061071c9190612be5565b51836107289190613b5b565b9250808061073590613cf6565b915050610623565b5060008267ffffffffffffffff811115610780577f4e487b7100000000000000000000000000000000000000000000000000000000600052604160045260246000fd5b6040519080825280602002602001820160405280156107b957816020015b6107a6612586565b81526020019060019003908161079e5790505b5090506000805b8351811015610984576000600160009054906101000a900473ffffffffffffffffffffffffffffffffffffffff1673ffffffffffffffffffffffffffffffffffffffff16630a5cf042868481518110610842577f4e487b7100000000000000000000000000000000000000000000000000000000600052603260045260246000fd5b60200260200101516040518263ffffffff1660e01b81526004016108669190613603565b60006040518083038186803b15801561087e57600080fd5b505afa158015610892573d6000803e3d6000fd5b505050506040513d6000823e3d601f19601f820116820180604052508101906108bb9190612be5565b905060005b815181101561096f57818181518110610902577f4e487b7100000000000000000000000000000000000000000000000000000000600052603260045260246000fd5b6020026020010151858581518110610943577f4e487b7100000000000000000000000000000000000000000000000000000000600052603260045260246000fd5b6020026020010181905250838061095990613cf6565b945050808061096790613cf6565b9150506108c0565b5050808061097c90613cf6565b9150506107c0565b508194505050505090565b60405160200161099e906135ee565b60405160208183030381529060405280519060200120816040516020016109c591906135c0565b6040516020818303038152906040528051906020012014610a1b576040517f08c379a0000000000000000000000000000000000000000000000000000000008152600401610a129061380b565b60405180910390fd5b600080600160009054906101000a900473ffffffffffffffffffffffffffffffffffffffff1673ffffffffffffffffffffffffffffffffffffffff1663536954e46040518163ffffffff1660e01b815260040160006040518083038186803b158015610a8657600080fd5b505afa158015610a9a573d6000803e3d6000fd5b505050506040513d6000823e3d601f19601f82011682018060405250810190610ac39190612ba4565b905060005b8151811015610c5a576000600160009054906101000a900473ffffffffffffffffffffffffffffffffffffffff1673ffffffffffffffffffffffffffffffffffffffff16630a5cf042848481518110610b4a577f4e487b7100000000000000000000000000000000000000000000000000000000600052603260045260246000fd5b60200260200101516040518263ffffffff1660e01b8152600401610b6e9190613603565b60006040518083038186803b158015610b8657600080fd5b505afa158015610b9a573d6000803e3d6000fd5b505050506040513d6000823e3d601f19601f82011682018060405250810190610bc39190612be5565b905060005b8151811015610c395786828281518110610c0b577f4e487b7100000000000000000000000000000000000000000000000000000000600052603260045260246000fd5b6020026020010151600001511415610c265760019450610c39565b8080610c3190613cf6565b915050610bc8565b508315610c465750610c5a565b508080610c5290613cf6565b915050610ac8565b5081610c9b576040517f08c379a0000000000000000000000000000000000000000000000000000000008152600401610c929061386b565b60405180910390fd5b82600460008681526020019081526020016000209080519060200190610cc29291906125f6565b5050505050565b60008451118015610cdb575060008351115b8015610ce8575060008151115b8015610cf5575060008251115b610d34576040517f08c379a0000000000000000000000000000000000000000000000000000000008152600401610d2b9061390b565b60405180910390fd5b6040518060800160405280858152602001848152602001838152602001828152506000803373ffffffffffffffffffffffffffffffffffffffff1673ffffffffffffffffffffffffffffffffffffffff1681526020019081526020016000206000820151816000019080519060200190610daf9291906125f6565b506020820151816001019080519060200190610dcc9291906125f6565b506040820151816002019080519060200190610de99291906125f6565b506060820151816003019080519060200190610e069291906125f6565b509050507fe455c24f533e9677563c420d61d43c146b502580a2d1d6e37a19bc0402bee5b584604051610e3991906137d6565b60405180910390a150505050565b6060600360003373ffffffffffffffffffffffffffffffffffffffff1673ffffffffffffffffffffffffffffffffffffffff168152602001908152602001600020805480602002602001604051908101604052809291908181526020016000905b8282101561129c57838290600052602060002090600702016040518060e0016040529081600082018054610edb90613c93565b80601f0160208091040260200160405190810160405280929190818152602001828054610f0790613c93565b8015610f545780601f10610f2957610100808354040283529160200191610f54565b820191906000526020600020905b815481529060010190602001808311610f3757829003601f168201915b505050505081526020016001820160009054906101000a900473ffffffffffffffffffffffffffffffffffffffff1673ffffffffffffffffffffffffffffffffffffffff1673ffffffffffffffffffffffffffffffffffffffff168152602001600282018054610fc390613c93565b80601f0160208091040260200160405190810160405280929190818152602001828054610fef90613c93565b801561103c5780601f106110115761010080835404028352916020019161103c565b820191906000526020600020905b81548152906001019060200180831161101f57829003601f168201915b5050505050815260200160038201805461105590613c93565b80601f016020809104026020016040519081016040528092919081815260200182805461108190613c93565b80156110ce5780601f106110a3576101008083540402835291602001916110ce565b820191906000526020600020905b8154815290600101906020018083116110b157829003601f168201915b505050505081526020016004820180546110e790613c93565b80601f016020809104026020016040519081016040528092919081815260200182805461111390613c93565b80156111605780601f1061113557610100808354040283529160200191611160565b820191906000526020600020905b81548152906001019060200180831161114357829003601f168201915b5050505050815260200160058201805461117990613c93565b80601f01602080910402602001604051908101604052809291908181526020018280546111a590613c93565b80156111f25780601f106111c7576101008083540402835291602001916111f2565b820191906000526020600020905b8154815290600101906020018083116111d557829003601f168201915b5050505050815260200160068201805461120b90613c93565b80601f016020809104026020016040519081016040528092919081815260200182805461123790613c93565b80156112845780601f1061125957610100808354040283529160200191611284565b820191906000526020600020905b81548152906001019060200180831161126757829003601f168201915b50505050508152505081526020019060010190610ea8565b50505050905090565b600360205281600052604060002081815481106112c157600080fd5b9060005260206000209060070201600091509150508060000180546112e590613c93565b80601f016020809104026020016040519081016040528092919081815260200182805461131190613c93565b801561135e5780601f106113335761010080835404028352916020019161135e565b820191906000526020600020905b81548152906001019060200180831161134157829003601f168201915b5050505050908060010160009054906101000a900473ffffffffffffffffffffffffffffffffffffffff169080600201805461139990613c93565b80601f01602080910402602001604051908101604052809291908181526020018280546113c590613c93565b80156114125780601f106113e757610100808354040283529160200191611412565b820191906000526020600020905b8154815290600101906020018083116113f557829003601f168201915b50505050509080600301805461142790613c93565b80601f016020809104026020016040519081016040528092919081815260200182805461145390613c93565b80156114a05780601f10611475576101008083540402835291602001916114a0565b820191906000526020600020905b81548152906001019060200180831161148357829003601f168201915b5050505050908060040180546114b590613c93565b80601f01602080910402602001604051908101604052809291908181526020018280546114e190613c93565b801561152e5780601f106115035761010080835404028352916020019161152e565b820191906000526020600020905b81548152906001019060200180831161151157829003601f168201915b50505050509080600501805461154390613c93565b80601f016020809104026020016040519081016040528092919081815260200182805461156f90613c93565b80156115bc5780601f10611591576101008083540402835291602001916115bc565b820191906000526020600020905b81548152906001019060200180831161159f57829003601f168201915b5050505050908060060180546115d190613c93565b80601f01602080910402602001604051908101604052809291908181526020018280546115fd90613c93565b801561164a5780601f1061161f5761010080835404028352916020019161164a565b820191906000526020600020905b81548152906001019060200180831161162d57829003601f168201915b5050505050905087565b606060046000838152602001908152602001600020805461167490613c93565b80601f01602080910402602001604051908101604052809291908181526020018280546116a090613c93565b80156116ed5780601f106116c2576101008083540402835291602001916116ed565b820191906000526020600020905b8154815290600101906020018083116116d057829003601f168201915b50505050509050919050565b600080835111801561170c575060008251115b61174b576040517f08c379a00000000000000000000000000000000000000000000000000000000081526004016117429061384b565b60405180910390fd5b8260405160200161175c91906135c0565b604051602081830303815290604052805190602001206000803373ffffffffffffffffffffffffffffffffffffffff1673ffffffffffffffffffffffffffffffffffffffff1681526020019081526020016000206001016040516020016117c391906135d7565b6040516020818303038152906040528051906020012014156118b757816040516020016117f091906135c0565b604051602081830303815290604052805190602001206000803373ffffffffffffffffffffffffffffffffffffffff1673ffffffffffffffffffffffffffffffffffffffff16815260200190815260200160002060030160405160200161185791906135d7565b60405160208183030381529060405280519060200120141561187c57600190506118f2565b6040517f08c379a00000000000000000000000000000000000000000000000000000000081526004016118ae9061382b565b60405180910390fd5b6040517f08c379a00000000000000000000000000000000000000000000000000000000081526004016118e9906138ab565b60405180910390fd5b92915050565b6000600260003373ffffffffffffffffffffffffffffffffffffffff1673ffffffffffffffffffffffffffffffffffffffff16815260200190815260200160002090506000805b8280549050811015611c6f5784838281548110611985577f4e487b7100000000000000000000000000000000000000000000000000000000600052603260045260246000fd5b906000526020600020906006020160000154148015611a3957508373ffffffffffffffffffffffffffffffffffffffff168382815481106119ef577f4e487b7100000000000000000000000000000000000000000000000000000000600052603260045260246000fd5b906000526020600020906006020160020160009054906101000a900473ffffffffffffffffffffffffffffffffffffffff1673ffffffffffffffffffffffffffffffffffffffff16145b15611c5c578260018480549050611a509190613bb1565b81548110611a87577f4e487b7100000000000000000000000000000000000000000000000000000000600052603260045260246000fd5b9060005260206000209060060201838281548110611ace577f4e487b7100000000000000000000000000000000000000000000000000000000600052603260045260246000fd5b906000526020600020906006020160008201548160000155600182015481600101556002820160009054906101000a900473ffffffffffffffffffffffffffffffffffffffff168160020160006101000a81548173ffffffffffffffffffffffffffffffffffffffff021916908373ffffffffffffffffffffffffffffffffffffffff1602179055506003820181600301908054611b6b90613c93565b611b7692919061267c565b50600482015481600401556005820181600501908054611b9590613c93565b611ba092919061267c565b5090505082805480611bdb577f4e487b7100000000000000000000000000000000000000000000000000000000600052603160045260246000fd5b600190038181906000526020600020906006020160008082016000905560018201600090556002820160006101000a81549073ffffffffffffffffffffffffffffffffffffffff0219169055600382016000611c379190612709565b6004820160009055600582016000611c4f9190612709565b5050905560019150611c6f565b8080611c6790613cf6565b91505061193f565b5080611cb0576040517f08c379a0000000000000000000000000000000000000000000000000000000008152600401611ca79061388b565b60405180910390fd5b50505050565b600160009054906101000a900473ffffffffffffffffffffffffffffffffffffffff1681565b60026020528160005260406000208181548110611cf857600080fd5b9060005260206000209060060201600091509150508060000154908060010154908060020160009054906101000a900473ffffffffffffffffffffffffffffffffffffffff1690806003018054611d4e90613c93565b80601f0160208091040260200160405190810160405280929190818152602001828054611d7a90613c93565b8015611dc75780601f10611d9c57610100808354040283529160200191611dc7565b820191906000526020600020905b815481529060010190602001808311611daa57829003601f168201915b505050505090806004015490806005018054611de290613c93565b80601f0160208091040260200160405190810160405280929190818152602001828054611e0e90613c93565b8015611e5b5780601f10611e3057610100808354040283529160200191611e5b565b820191906000526020600020905b815481529060010190602001808311611e3e57829003601f168201915b5050505050905086565b6000602052806000526040600020600091509050806000018054611e8890613c93565b80601f0160208091040260200160405190810160405280929190818152602001828054611eb490613c93565b8015611f015780601f10611ed657610100808354040283529160200191611f01565b820191906000526020600020905b815481529060010190602001808311611ee457829003601f168201915b505050505090806001018054611f1690613c93565b80601f0160208091040260200160405190810160405280929190818152602001828054611f4290613c93565b8015611f8f5780601f10611f6457610100808354040283529160200191611f8f565b820191906000526020600020905b815481529060010190602001808311611f7257829003601f168201915b505050505090806002018054611fa490613c93565b80601f0160208091040260200160405190810160405280929190818152602001828054611fd090613c93565b801561201d5780601f10611ff25761010080835404028352916020019161201d565b820191906000526020600020905b81548152906001019060200180831161200057829003601f168201915b50505050509080600301805461203290613c93565b80601f016020809104026020016040519081016040528092919081815260200182805461205e90613c93565b80156120ab5780601f10612080576101008083540402835291602001916120ab565b820191906000526020600020905b81548152906001019060200180831161208e57829003601f168201915b5050505050905084565b60056020528060005260406000206000915090505481565b600460205280600052604060002060009150905080546120ec90613c93565b80601f016020809104026020016040519081016040528092919081815260200182805461211890613c93565b80156121655780601f1061213a57610100808354040283529160200191612165565b820191906000526020600020905b81548152906001019060200180831161214857829003601f168201915b505050505081565b600085116121b0576040517f08c379a00000000000000000000000000000000000000000000000000000000081526004016121a7906138eb565b60405180910390fd5b6000600160009054906101000a900473ffffffffffffffffffffffffffffffffffffffff1673ffffffffffffffffffffffffffffffffffffffff1663536954e46040518163ffffffff1660e01b815260040160006040518083038186803b15801561221a57600080fd5b505afa15801561222e573d6000803e3d6000fd5b505050506040513d6000823e3d601f19601f820116820180604052508101906122579190612ba4565b90506000805b825181101561253b576000600160009054906101000a900473ffffffffffffffffffffffffffffffffffffffff1673ffffffffffffffffffffffffffffffffffffffff16630a5cf0428584815181106122df577f4e487b7100000000000000000000000000000000000000000000000000000000600052603260045260246000fd5b60200260200101516040518263ffffffff1660e01b81526004016123039190613603565b60006040518083038186803b15801561231b57600080fd5b505afa15801561232f573d6000803e3d6000fd5b505050506040513d6000823e3d601f19601f820116820180604052508101906123589190612be5565b905060005b815181101561251a578a8282815181106123a0577f4e487b7100000000000000000000000000000000000000000000000000000000600052603260045260246000fd5b602002602001015160000151141561250757600260003373ffffffffffffffffffffffffffffffffffffffff1673ffffffffffffffffffffffffffffffffffffffff1681526020019081526020016000206040518060c001604052808d81526020018c81526020018b73ffffffffffffffffffffffffffffffffffffffff1681526020018a8152602001898152602001888152509080600181540180825580915050600190039060005260206000209060060201600090919091909150600082015181600001556020820151816001015560408201518160020160006101000a81548173ffffffffffffffffffffffffffffffffffffffff021916908373ffffffffffffffffffffffffffffffffffffffff16021790555060608201518160030190805190602001906124d49291906125f6565b506080820151816004015560a08201518160050190805190602001906124fb9291906125f6565b5050506001935061251a565b808061251290613cf6565b91505061235d565b508215612527575061253b565b50808061253390613cf6565b91505061225d565b508061257c576040517f08c379a0000000000000000000000000000000000000000000000000000000008152600401612573906138cb565b60405180910390fd5b5050505050505050565b604051806101600160405280600081526020016060815260200160008152602001606081526020016060815260200160608152602001600073ffffffffffffffffffffffffffffffffffffffff168152602001606081526020016060815260200160008152602001600081525090565b82805461260290613c93565b90600052602060002090601f016020900481019282612624576000855561266b565b82601f1061263d57805160ff191683800117855561266b565b8280016001018555821561266b579182015b8281111561266a57825182559160200191906001019061264f565b5b5090506126789190612749565b5090565b82805461268890613c93565b90600052602060002090601f0160209004810192826126aa57600085556126f8565b82601f106126bb57805485556126f8565b828001600101855582156126f857600052602060002091601f016020900482015b828111156126f75782548255916001019190600101906126dc565b5b5090506127059190612749565b5090565b50805461271590613c93565b6000825580601f106127275750612746565b601f0160209004906000526020600020908101906127459190612749565b5b50565b5b8082111561276257600081600090555060010161274a565b5090565b6000612779612774846139da565b6139b5565b9050808382526020820190508285602086028201111561279857600080fd5b60005b858110156127c857816127ae88826128c0565b84526020840193506020830192505060018101905061279b565b5050509392505050565b60006127e56127e084613a06565b6139b5565b9050808382526020820190508260005b85811015612825578151850161280b888261297d565b8452602084019350602083019250506001810190506127f5565b5050509392505050565b600061284261283d84613a32565b6139b5565b90508281526020810184848401111561285a57600080fd5b612865848285613c51565b509392505050565b600061288061287b84613a32565b6139b5565b90508281526020810184848401111561289857600080fd5b6128a3848285613c60565b509392505050565b6000813590506128ba81613fec565b92915050565b6000815190506128cf81613fec565b92915050565b600082601f8301126128e657600080fd5b81516128f6848260208601612766565b91505092915050565b600082601f83011261291057600080fd5b81516129208482602086016127d2565b91505092915050565b600082601f83011261293a57600080fd5b813561294a84826020860161282f565b91505092915050565b600082601f83011261296457600080fd5b815161297484826020860161286d565b91505092915050565b6000610160828403121561299057600080fd5b61299b6101606139b5565b905060006129ab84828501612b2a565b600083015250602082015167ffffffffffffffff8111156129cb57600080fd5b6129d784828501612953565b60208301525060406129eb84828501612b2a565b604083015250606082015167ffffffffffffffff811115612a0b57600080fd5b612a1784828501612953565b606083015250608082015167ffffffffffffffff811115612a3757600080fd5b612a4384828501612953565b60808301525060a082015167ffffffffffffffff811115612a6357600080fd5b612a6f84828501612953565b60a08301525060c0612a83848285016128c0565b60c08301525060e082015167ffffffffffffffff811115612aa357600080fd5b612aaf84828501612953565b60e08301525061010082015167ffffffffffffffff811115612ad057600080fd5b612adc84828501612953565b61010083015250610120612af284828501612b2a565b61012083015250610140612b0884828501612b2a565b6101408301525092915050565b600081359050612b2481614003565b92915050565b600081519050612b3981614003565b92915050565b600060208284031215612b5157600080fd5b6000612b5f848285016128ab565b91505092915050565b60008060408385031215612b7b57600080fd5b6000612b89858286016128ab565b9250506020612b9a85828601612b15565b9150509250929050565b600060208284031215612bb657600080fd5b600082015167ffffffffffffffff811115612bd057600080fd5b612bdc848285016128d5565b91505092915050565b600060208284031215612bf757600080fd5b600082015167ffffffffffffffff811115612c1157600080fd5b612c1d848285016128ff565b91505092915050565b60008060408385031215612c3957600080fd5b600083013567ffffffffffffffff811115612c5357600080fd5b612c5f85828601612929565b925050602083013567ffffffffffffffff811115612c7c57600080fd5b612c8885828601612929565b9150509250929050565b60008060008060808587031215612ca857600080fd5b600085013567ffffffffffffffff811115612cc257600080fd5b612cce87828801612929565b945050602085013567ffffffffffffffff811115612ceb57600080fd5b612cf787828801612929565b935050604085013567ffffffffffffffff811115612d1457600080fd5b612d2087828801612929565b925050606085013567ffffffffffffffff811115612d3d57600080fd5b612d4987828801612929565b91505092959194509250565b600060208284031215612d6757600080fd5b6000612d7584828501612b15565b91505092915050565b60008060408385031215612d9157600080fd5b6000612d9f85828601612b15565b9250506020612db0858286016128ab565b9150509250929050565b60008060408385031215612dcd57600080fd5b6000612ddb85828601612b15565b925050602083013567ffffffffffffffff811115612df857600080fd5b612e0485828601612929565b9150509250929050565b60008060008060008060c08789031215612e2757600080fd5b6000612e3589828a01612b15565b9650506020612e4689828a01612b15565b9550506040612e5789828a016128ab565b945050606087013567ffffffffffffffff811115612e7457600080fd5b612e8089828a01612929565b9350506080612e9189828a01612b15565b92505060a087013567ffffffffffffffff811115612eae57600080fd5b612eba89828a01612929565b9150509295509295509295565b6000612ed38383613341565b905092915050565b6000612ee783836133d1565b905092915050565b6000612efb8383613490565b905092915050565b612f0c81613be5565b82525050565b612f1b81613be5565b82525050565b6000612f2c82613aa8565b612f368185613afb565b935083602082028501612f4885613a63565b8060005b85811015612f845784840389528151612f658582612ec7565b9450612f7083613ad4565b925060208a01995050600181019050612f4c565b50829750879550505050505092915050565b6000612fa182613ab3565b612fab8185613b0c565b935083602082028501612fbd85613a73565b8060005b85811015612ff95784840389528151612fda8582612edb565b9450612fe583613ae1565b925060208a01995050600181019050612fc1565b50829750879550505050505092915050565b600061301682613abe565b6130208185613b1d565b93508360208202850161303285613a83565b8060005b8581101561306e578484038952815161304f8582612eef565b945061305a83613aee565b925060208a01995050600181019050613036565b50829750879550505050505092915050565b61308981613bf7565b82525050565b61309881613c2d565b82525050565b60006130a982613ac9565b6130b38185613b2e565b93506130c3818560208601613c60565b6130cc81613dcc565b840191505092915050565b60006130e282613ac9565b6130ec8185613b3f565b93506130fc818560208601613c60565b61310581613dcc565b840191505092915050565b600061311b82613ac9565b6131258185613b50565b9350613135818560208601613c60565b80840191505092915050565b6000815461314e81613c93565b6131588186613b50565b945060018216600081146131735760018114613184576131b7565b60ff198316865281860193506131b7565b61318d85613a93565b60005b838110156131af57815481890152600182019150602081019050613190565b838801955050505b50505092915050565b60006131cd601a83613b3f565b91506131d882613ddd565b602082019050919050565b60006131f0601283613b3f565b91506131fb82613e06565b602082019050919050565b6000613213601f83613b3f565b915061321e82613e2f565b602082019050919050565b6000613236603d83613b3f565b915061324182613e58565b604082019050919050565b6000613259601983613b3f565b915061326482613ea7565b602082019050919050565b600061327c600f83613b3f565b915061328782613ed0565b602082019050919050565b600061329f600983613b50565b91506132aa82613ef9565b600982019050919050565b60006132c2601183613b3f565b91506132cd82613f22565b602082019050919050565b60006132e5602283613b3f565b91506132f082613f4b565b604082019050919050565b6000613308602083613b3f565b915061331382613f9a565b602082019050919050565b600061332b601183613b3f565b915061333682613fc3565b602082019050919050565b600060c08301600083015161335960008601826135a2565b50602083015161336c60208601826135a2565b50604083015161337f6040860182612f03565b5060608301518482036060860152613397828261309e565b91505060808301516133ac60808601826135a2565b5060a083015184820360a08601526133c4828261309e565b9150508091505092915050565b600060e08301600083015184820360008601526133ee828261309e565b91505060208301516134036020860182612f03565b506040830151848203604086015261341b828261309e565b91505060608301518482036060860152613435828261309e565b9150506080830151848203608086015261344f828261309e565b91505060a083015184820360a0860152613469828261309e565b91505060c083015184820360c0860152613483828261309e565b9150508091505092915050565b6000610160830160008301516134a960008601826135a2565b50602083015184820360208601526134c1828261309e565b91505060408301516134d660408601826135a2565b50606083015184820360608601526134ee828261309e565b91505060808301518482036080860152613508828261309e565b91505060a083015184820360a0860152613522828261309e565b91505060c083015161353760c0860182612f03565b5060e083015184820360e086015261354f828261309e565b91505061010083015184820361010086015261356b828261309e565b9150506101208301516135826101208601826135a2565b506101408301516135976101408601826135a2565b508091505092915050565b6135ab81613c23565b82525050565b6135ba81613c23565b82525050565b60006135cc8284613110565b915081905092915050565b60006135e38284613141565b915081905092915050565b60006135f982613292565b9150819050919050565b60006020820190506136186000830184612f12565b92915050565b600060208201905081810360008301526136388184612f21565b905092915050565b6000602082019050818103600083015261365a8184612f96565b905092915050565b6000602082019050818103600083015261367c818461300b565b905092915050565b60006020820190506136996000830184613080565b92915050565b60006020820190506136b4600083018461308f565b92915050565b600060208201905081810360008301526136d481846130d7565b905092915050565b600060e08201905081810360008301526136f6818a6130d7565b90506137056020830189612f12565b818103604083015261371781886130d7565b9050818103606083015261372b81876130d7565b9050818103608083015261373f81866130d7565b905081810360a083015261375381856130d7565b905081810360c083015261376781846130d7565b905098975050505050505050565b6000608082019050818103600083015261378f81876130d7565b905081810360208301526137a381866130d7565b905081810360408301526137b781856130d7565b905081810360608301526137cb81846130d7565b905095945050505050565b600060408201905081810360008301526137f081846130d7565b905081810360208301526138038161331e565b905092915050565b60006020820190508181036000830152613824816131c0565b9050919050565b60006020820190508181036000830152613844816131e3565b9050919050565b6000602082019050818103600083015261386481613206565b9050919050565b6000602082019050818103600083015261388481613229565b9050919050565b600060208201905081810360008301526138a48161324c565b9050919050565b600060208201905081810360008301526138c48161326f565b9050919050565b600060208201905081810360008301526138e4816132b5565b9050919050565b60006020820190508181036000830152613904816132d8565b9050919050565b60006020820190508181036000830152613924816132fb565b9050919050565b600060208201905061394060008301846135b1565b92915050565b600060c08201905061395b60008301896135b1565b61396860208301886135b1565b6139756040830187612f12565b818103606083015261398781866130d7565b905061399660808301856135b1565b81810360a08301526139a881846130d7565b9050979650505050505050565b60006139bf6139d0565b90506139cb8282613cc5565b919050565b6000604051905090565b600067ffffffffffffffff8211156139f5576139f4613d9d565b5b602082029050602081019050919050565b600067ffffffffffffffff821115613a2157613a20613d9d565b5b602082029050602081019050919050565b600067ffffffffffffffff821115613a4d57613a4c613d9d565b5b613a5682613dcc565b9050602081019050919050565b6000819050602082019050919050565b6000819050602082019050919050565b6000819050602082019050919050565b60008190508160005260206000209050919050565b600081519050919050565b600081519050919050565b600081519050919050565b600081519050919050565b6000602082019050919050565b6000602082019050919050565b6000602082019050919050565b600082825260208201905092915050565b600082825260208201905092915050565b600082825260208201905092915050565b600082825260208201905092915050565b600082825260208201905092915050565b600081905092915050565b6000613b6682613c23565b9150613b7183613c23565b9250827fffffffffffffffffffffffffffffffffffffffffffffffffffffffffffffffff03821115613ba657613ba5613d3f565b5b828201905092915050565b6000613bbc82613c23565b9150613bc783613c23565b925082821015613bda57613bd9613d3f565b5b828203905092915050565b6000613bf082613c03565b9050919050565b60008115159050919050565b600073ffffffffffffffffffffffffffffffffffffffff82169050919050565b6000819050919050565b6000613c3882613c3f565b9050919050565b6000613c4a82613c03565b9050919050565b82818337600083830152505050565b60005b83811015613c7e578082015181840152602081019050613c63565b83811115613c8d576000848401525b50505050565b60006002820490506001821680613cab57607f821691505b60208210811415613cbf57613cbe613d6e565b5b50919050565b613cce82613dcc565b810181811067ffffffffffffffff82111715613ced57613cec613d9d565b5b80604052505050565b6000613d0182613c23565b91507fffffffffffffffffffffffffffffffffffffffffffffffffffffffffffffffff821415613d3457613d33613d3f565b5b600182019050919050565b7f4e487b7100000000000000000000000000000000000000000000000000000000600052601160045260246000fd5b7f4e487b7100000000000000000000000000000000000000000000000000000000600052602260045260246000fd5b7f4e487b7100000000000000000000000000000000000000000000000000000000600052604160045260246000fd5b6000601f19601f8301169050919050565b7f537461747573206d757374206265202744656c69766572656427000000000000600082015250565b7f496e636f72726563742070617373776f72640000000000000000000000000000600082015250565b7f496e76616c696420646174612070726f766964656420666f72204c6f67696e00600082015250565b7f4f6e6c7920746865206661726d65722077686f206d616465207468652073616c60008201527f652063616e2075706461746520746865206f7264657220737461747573000000602082015250565b7f50726f64756374206e6f7420666f756e6420696e206361727400000000000000600082015250565b7f456d61696c206e6f7420666f756e640000000000000000000000000000000000600082015250565b7f44656c6976657265640000000000000000000000000000000000000000000000600082015250565b7f50726f64756374206e6f7420666f756e64000000000000000000000000000000600082015250565b7f5175616e74697479206d7573742062652067726561746572207468616e207a6560008201527f726f000000000000000000000000000000000000000000000000000000000000602082015250565b7f496e76616c696420646174612070726f766964656420666f72207369676e7570600082015250565b7f5369676e7570207375636365737366756c000000000000000000000000000000600082015250565b613ff581613be5565b811461400057600080fd5b50565b61400c81613c23565b811461401757600080fd5b5056fea2646970667358221220730271ee69c8ef645312b35dfc2ec9d8d5007923682b0cca87e103977a2c104f64736f6c63430008020033",
  "immutableReferences": {},
  "source": "// SPDX-License-Identifier: MIT\r\npragma solidity ^0.8.2;\r\n\r\nimport \"./FarmerOperationsManagement.sol\";\r\nimport \"./BuyerSignupLoginContract.sol\";\r\n\r\ncontract BuyerOperationsManagement is BuyerSignupLoginContract {\r\n    FarmerOperationsManagement public farmerContract;\r\n\r\n    // Struct to represent a CartItem\r\n    struct CartItem {\r\n        uint productId;\r\n        uint quantity;\r\n        address seller;\r\n        string name;\r\n        uint price;\r\n        string imgurl;\r\n    }\r\n\r\n    // Mapping to store buyer's cart items\r\n    mapping(address => CartItem[]) public buyerCarts;\r\n\r\n    // Mapping to store buyer's orders\r\n    mapping(address => FarmerOperationsManagement.ProductPurchase[])\r\n        public buyerOrders;\r\n\r\n    // Mapping to store the status of each order (using orderId as the key)\r\n    mapping(uint => string) public orderStatus;\r\n\r\n    mapping(address => uint) public buyerSpentAmount;\r\n\r\n    constructor(address farmerContractAddress) {\r\n        farmerContract = FarmerOperationsManagement(farmerContractAddress);\r\n    }\r\n\r\n    function getAllFarmersProducts()\r\n        public\r\n        view\r\n        returns (FarmerOperationsManagement.Product[] memory)\r\n    {\r\n        uint totalProducts;\r\n        address[] memory allFarmers = farmerContract.getAllFarmers();\r\n\r\n        for (uint i = 0; i < allFarmers.length; i++) {\r\n            totalProducts += farmerContract\r\n                .getFarmerProducts(allFarmers[i])\r\n                .length;\r\n        }\r\n\r\n        FarmerOperationsManagement.Product[]\r\n            memory allProducts = new FarmerOperationsManagement.Product[](\r\n                totalProducts\r\n            );\r\n        uint index = 0;\r\n\r\n        for (uint i = 0; i < allFarmers.length; i++) {\r\n            FarmerOperationsManagement.Product[]\r\n                memory farmerProducts = farmerContract.getFarmerProducts(\r\n                    allFarmers[i]\r\n                );\r\n            for (uint j = 0; j < farmerProducts.length; j++) {\r\n                allProducts[index] = farmerProducts[j];\r\n                index++;\r\n            }\r\n        }\r\n\r\n        return allProducts;\r\n    }\r\n\r\n    function addToCart(\r\n        uint productId,\r\n        uint quantity,\r\n        address _seller,\r\n        string memory _name,\r\n        uint _price,\r\n        string memory _imgurl\r\n    ) public {\r\n        require(quantity > 0, \"Quantity must be greater than zero\");\r\n\r\n        address[] memory allFarmers = farmerContract.getAllFarmers();\r\n        bool productFound = false;\r\n\r\n        for (uint i = 0; i < allFarmers.length; i++) {\r\n            FarmerOperationsManagement.Product[]\r\n                memory farmerProducts = farmerContract.getFarmerProducts(\r\n                    allFarmers[i]\r\n                );\r\n            for (uint j = 0; j < farmerProducts.length; j++) {\r\n                if (farmerProducts[j].productId == productId) {\r\n                    buyerCarts[msg.sender].push(\r\n                        CartItem({\r\n                            productId: productId,\r\n                            quantity: quantity,\r\n                            seller: _seller,\r\n                            name: _name,\r\n                            price: _price,\r\n                            imgurl: _imgurl\r\n                        })\r\n                    );\r\n                    productFound = true;\r\n                    break;\r\n                }\r\n            }\r\n            if (productFound) break;\r\n        }\r\n        require(productFound, \"Product not found\");\r\n    }\r\n\r\n    function removeFromCart(uint productId, address sellerid) public {\r\n        CartItem[] storage cart = buyerCarts[msg.sender];\r\n        bool productRemoved = false;\r\n\r\n        for (uint i = 0; i < cart.length; i++) {\r\n            if (cart[i].productId == productId && cart[i].seller == sellerid) {\r\n                cart[i] = cart[cart.length - 1];\r\n                cart.pop();\r\n                productRemoved = true;\r\n                break;\r\n            }\r\n        }\r\n        require(productRemoved, \"Product not found in cart\");\r\n    }\r\n\r\n    function getCartItems() public view returns (CartItem[] memory) {\r\n        return buyerCarts[msg.sender];\r\n    }\r\n\r\n    function getOrders()\r\n        public\r\n        view\r\n        returns (FarmerOperationsManagement.ProductPurchase[] memory)\r\n    {\r\n        return buyerOrders[msg.sender];\r\n    }\r\n    function updateOrderStatus(uint orderId, string memory status) public {\r\n        require(\r\n            keccak256(abi.encodePacked(status)) ==\r\n                keccak256(abi.encodePacked(\"Delivered\")),\r\n            \"Status must be 'Delivered'\"\r\n        );\r\n\r\n        bool isFarmer = false;\r\n\r\n        address[] memory allFarmers = farmerContract.getAllFarmers();\r\n        for (uint i = 0; i < allFarmers.length; i++) {\r\n            FarmerOperationsManagement.Product[]\r\n                memory farmerProducts = farmerContract.getFarmerProducts(\r\n                    allFarmers[i]\r\n                );\r\n            for (uint j = 0; j < farmerProducts.length; j++) {\r\n                if (farmerProducts[j].productId == orderId) {\r\n                    isFarmer = true;\r\n                    break;\r\n                }\r\n            }\r\n            if (isFarmer) break;\r\n        }\r\n\r\n        require(\r\n            isFarmer,\r\n            \"Only the farmer who made the sale can update the order status\"\r\n        );\r\n\r\n        orderStatus[orderId] = status;\r\n    }\r\n\r\n    function getOrderStatus(uint orderId) public view returns (string memory) {\r\n        return orderStatus[orderId];\r\n    }\r\n}\r\n",
  "sourcePath": "C:\\webdevelopment\\marketplace\\buyfresh\\smartcontracts\\contracts\\BuyerOperationsManagement.sol",
  "compiler": {
    "name": "solc",
    "version": "0.8.2+commit.661d1103.Emscripten.clang"
  },
  "schemaVersion": "3.4.16",
  "updatedAt": "2024-11-21T23:34:13.693Z",
  "networkType": "ethereum",
  "devdoc": {
    "kind": "dev",
    "methods": {},
    "version": 1
  },
  "userdoc": {
    "kind": "user",
    "methods": {},
    "version": 1
  }
}