{
  "contractName": "BuyerSignupLoginContract",
  "abi": [
    {
      "anonymous": false,
      "inputs": [
        {
          "indexed": false,
          "internalType": "string",
          "name": "buyerName",
          "type": "string"
        },
        {
          "indexed": false,
          "internalType": "string",
          "name": "message",
          "type": "string"
        }
      ],
      "name": "ByerSignupSuccessful",
      "type": "event"
    },
    {
      "inputs": [
        {
          "internalType": "address",
          "name": "",
          "type": "address"
        }
      ],
      "name": "BuyerLoginSignup",
      "outputs": [
        {
          "internalType": "string",
          "name": "name",
          "type": "string"
        },
        {
          "internalType": "string",
          "name": "email",
          "type": "string"
        },
        {
          "internalType": "string",
          "name": "number",
          "type": "string"
        },
        {
          "internalType": "string",
          "name": "password",
          "type": "string"
        }
      ],
      "stateMutability": "view",
      "type": "function"
    },
    {
      "inputs": [
        {
          "internalType": "string",
          "name": "_name",
          "type": "string"
        },
        {
          "internalType": "string",
          "name": "_email",
          "type": "string"
        },
        {
          "internalType": "string",
          "name": "_number",
          "type": "string"
        },
        {
          "internalType": "string",
          "name": "_password",
          "type": "string"
        }
      ],
      "name": "buyerSignup",
      "outputs": [],
      "stateMutability": "nonpayable",
      "type": "function"
    },
    {
      "inputs": [
        {
          "internalType": "string",
          "name": "_email",
          "type": "string"
        },
        {
          "internalType": "string",
          "name": "_password",
          "type": "string"
        }
      ],
      "name": "BuyerLogin",
      "outputs": [
        {
          "internalType": "bool",
          "name": "",
          "type": "bool"
        }
      ],
      "stateMutability": "view",
      "type": "function"
    }
  ],
  "bytecode": "0x608060405234801561001057600080fd5b50610f0e806100206000396000f3fe608060405234801561001057600080fd5b50600436106100415760003560e01c80632c6bd0d8146100465780637207228b14610062578063a3c3b69a14610092575b600080fd5b610060600480360381019061005b9190610847565b6100c5565b005b61007c600480360381019061007791906107db565b610243565b6040516100899190610adf565b60405180910390f35b6100ac60048036038101906100a791906107b2565b610442565b6040516100bc9493929190610afa565b60405180910390f35b600084511180156100d7575060008351115b80156100e4575060008151115b80156100f1575060008251115b610130576040517f08c379a000000000000000000000000000000000000000000000000000000000815260040161012790610bf0565b60405180910390fd5b6040518060800160405280858152602001848152602001838152602001828152506000803373ffffffffffffffffffffffffffffffffffffffff1673ffffffffffffffffffffffffffffffffffffffff16815260200190815260200160002060008201518160000190805190602001906101ab929190610692565b5060208201518160010190805190602001906101c8929190610692565b5060408201518160020190805190602001906101e5929190610692565b506060820151816003019080519060200190610202929190610692565b509050507fe455c24f533e9677563c420d61d43c146b502580a2d1d6e37a19bc0402bee5b5846040516102359190610b5b565b60405180910390a150505050565b6000808351118015610256575060008251115b610295576040517f08c379a000000000000000000000000000000000000000000000000000000000815260040161028c90610bb0565b60405180910390fd5b826040516020016102a69190610ab1565b604051602081830303815290604052805190602001206000803373ffffffffffffffffffffffffffffffffffffffff1673ffffffffffffffffffffffffffffffffffffffff16815260200190815260200160002060010160405160200161030d9190610ac8565b604051602081830303815290604052805190602001201415610401578160405160200161033a9190610ab1565b604051602081830303815290604052805190602001206000803373ffffffffffffffffffffffffffffffffffffffff1673ffffffffffffffffffffffffffffffffffffffff1681526020019081526020016000206003016040516020016103a19190610ac8565b6040516020818303038152906040528051906020012014156103c6576001905061043c565b6040517f08c379a00000000000000000000000000000000000000000000000000000000081526004016103f890610b90565b60405180910390fd5b6040517f08c379a000000000000000000000000000000000000000000000000000000000815260040161043390610bd0565b60405180910390fd5b92915050565b600060205280600052604060002060009150905080600001805461046590610d22565b80601f016020809104026020016040519081016040528092919081815260200182805461049190610d22565b80156104de5780601f106104b3576101008083540402835291602001916104de565b820191906000526020600020905b8154815290600101906020018083116104c157829003601f168201915b5050505050908060010180546104f390610d22565b80601f016020809104026020016040519081016040528092919081815260200182805461051f90610d22565b801561056c5780601f106105415761010080835404028352916020019161056c565b820191906000526020600020905b81548152906001019060200180831161054f57829003601f168201915b50505050509080600201805461058190610d22565b80601f01602080910402602001604051908101604052809291908181526020018280546105ad90610d22565b80156105fa5780601f106105cf576101008083540402835291602001916105fa565b820191906000526020600020905b8154815290600101906020018083116105dd57829003601f168201915b50505050509080600301805461060f90610d22565b80601f016020809104026020016040519081016040528092919081815260200182805461063b90610d22565b80156106885780601f1061065d57610100808354040283529160200191610688565b820191906000526020600020905b81548152906001019060200180831161066b57829003601f168201915b5050505050905084565b82805461069e90610d22565b90600052602060002090601f0160209004810192826106c05760008555610707565b82601f106106d957805160ff1916838001178555610707565b82800160010185558215610707579182015b828111156107065782518255916020019190600101906106eb565b5b5090506107149190610718565b5090565b5b80821115610731576000816000905550600101610719565b5090565b600061074861074384610c35565b610c10565b90508281526020810184848401111561076057600080fd5b61076b848285610ce0565b509392505050565b60008135905061078281610ec1565b92915050565b600082601f83011261079957600080fd5b81356107a9848260208601610735565b91505092915050565b6000602082840312156107c457600080fd5b60006107d284828501610773565b91505092915050565b600080604083850312156107ee57600080fd5b600083013567ffffffffffffffff81111561080857600080fd5b61081485828601610788565b925050602083013567ffffffffffffffff81111561083157600080fd5b61083d85828601610788565b9150509250929050565b6000806000806080858703121561085d57600080fd5b600085013567ffffffffffffffff81111561087757600080fd5b61088387828801610788565b945050602085013567ffffffffffffffff8111156108a057600080fd5b6108ac87828801610788565b935050604085013567ffffffffffffffff8111156108c957600080fd5b6108d587828801610788565b925050606085013567ffffffffffffffff8111156108f257600080fd5b6108fe87828801610788565b91505092959194509250565b61091381610cb4565b82525050565b600061092482610c7b565b61092e8185610c86565b935061093e818560208601610cef565b61094781610de3565b840191505092915050565b600061095d82610c7b565b6109678185610c97565b9350610977818560208601610cef565b80840191505092915050565b6000815461099081610d22565b61099a8186610c97565b945060018216600081146109b557600181146109c6576109f9565b60ff198316865281860193506109f9565b6109cf85610c66565b60005b838110156109f1578154818901526001820191506020810190506109d2565b838801955050505b50505092915050565b6000610a0f601283610c86565b9150610a1a82610df4565b602082019050919050565b6000610a32601f83610c86565b9150610a3d82610e1d565b602082019050919050565b6000610a55600f83610c86565b9150610a6082610e46565b602082019050919050565b6000610a78602083610c86565b9150610a8382610e6f565b602082019050919050565b6000610a9b601183610c86565b9150610aa682610e98565b602082019050919050565b6000610abd8284610952565b915081905092915050565b6000610ad48284610983565b915081905092915050565b6000602082019050610af4600083018461090a565b92915050565b60006080820190508181036000830152610b148187610919565b90508181036020830152610b288186610919565b90508181036040830152610b3c8185610919565b90508181036060830152610b508184610919565b905095945050505050565b60006040820190508181036000830152610b758184610919565b90508181036020830152610b8881610a8e565b905092915050565b60006020820190508181036000830152610ba981610a02565b9050919050565b60006020820190508181036000830152610bc981610a25565b9050919050565b60006020820190508181036000830152610be981610a48565b9050919050565b60006020820190508181036000830152610c0981610a6b565b9050919050565b6000610c1a610c2b565b9050610c268282610d54565b919050565b6000604051905090565b600067ffffffffffffffff821115610c5057610c4f610db4565b5b610c5982610de3565b9050602081019050919050565b60008190508160005260206000209050919050565b600081519050919050565b600082825260208201905092915050565b600081905092915050565b6000610cad82610cc0565b9050919050565b60008115159050919050565b600073ffffffffffffffffffffffffffffffffffffffff82169050919050565b82818337600083830152505050565b60005b83811015610d0d578082015181840152602081019050610cf2565b83811115610d1c576000848401525b50505050565b60006002820490506001821680610d3a57607f821691505b60208210811415610d4e57610d4d610d85565b5b50919050565b610d5d82610de3565b810181811067ffffffffffffffff82111715610d7c57610d7b610db4565b5b80604052505050565b7f4e487b7100000000000000000000000000000000000000000000000000000000600052602260045260246000fd5b7f4e487b7100000000000000000000000000000000000000000000000000000000600052604160045260246000fd5b6000601f19601f8301169050919050565b7f496e636f72726563742070617373776f72640000000000000000000000000000600082015250565b7f496e76616c696420646174612070726f766964656420666f72204c6f67696e00600082015250565b7f456d61696c206e6f7420666f756e640000000000000000000000000000000000600082015250565b7f496e76616c696420646174612070726f766964656420666f72207369676e7570600082015250565b7f5369676e7570207375636365737366756c000000000000000000000000000000600082015250565b610eca81610ca2565b8114610ed557600080fd5b5056fea26469706673582212202eaecd9560cd0bb47414423fa6c4db505be4caf24168767ae452ef692f4cd46964736f6c63430008020033",
  "immutableReferences": {},
  "source": "// SPDX-License-Identifier: MIT\r\npragma solidity ^0.8.2;\r\n\r\ncontract BuyerSignupLoginContract {\r\n    struct Buyer {\r\n        string name;\r\n        string email;\r\n        string number;\r\n        string password;\r\n    }\r\n\r\n    mapping(address => Buyer) public BuyerLoginSignup;\r\n    event ByerSignupSuccessful(string buyerName, string message);\r\n\r\n    function buyerSignup(\r\n        string memory _name,\r\n        string memory _email,\r\n        string memory _number,\r\n        string memory _password\r\n    ) public {\r\n        require(\r\n            bytes(_name).length > 0 &&\r\n                bytes(_email).length > 0 &&\r\n                bytes(_password).length > 0 &&\r\n                bytes(_number).length > 0,\r\n            \"Invalid data provided for signup\"\r\n        );\r\n\r\n        BuyerLoginSignup[msg.sender] = Buyer({\r\n            name: _name,\r\n            email: _email,\r\n            number: _number,\r\n            password: _password\r\n        });\r\n\r\n        emit ByerSignupSuccessful(_name, \"Signup successful\");\r\n    }\r\n\r\n    function BuyerLogin(\r\n        string memory _email,\r\n        string memory _password\r\n    ) public view returns (bool) {\r\n        require(\r\n            bytes(_email).length > 0 && bytes(_password).length > 0,\r\n            \"Invalid data provided for Login\"\r\n        );\r\n\r\n        if (\r\n            keccak256(abi.encodePacked(BuyerLoginSignup[msg.sender].email)) ==\r\n            keccak256(abi.encodePacked(_email))\r\n        ) {\r\n            if (\r\n                keccak256(\r\n                    abi.encodePacked(BuyerLoginSignup[msg.sender].password)\r\n                ) == keccak256(abi.encodePacked(_password))\r\n            ) {\r\n                return true;\r\n            } else {\r\n                revert(\"Incorrect password\");\r\n            }\r\n        } else {\r\n            revert(\"Email not found\");\r\n        }\r\n    }\r\n}\r\n",
  "sourcePath": "C:\\webdevelopment\\marketplace\\buyfresh\\smartcontracts\\contracts\\BuyerSignupLoginContract.sol",
  "compiler": {
    "name": "solc",
    "version": "0.8.2+commit.661d1103.Emscripten.clang"
  },
  "schemaVersion": "3.4.16",
  "updatedAt": "2024-11-21T23:34:09.831Z",
  "devdoc": {
    "kind": "dev",
    "methods": {},
    "version": 1
  },
  "userdoc": {
    "kind": "user",
    "methods": {},
    "version": 1
  }
}