{
  "contractName": "BuyerOperationsManagement",
  "abi": [
    {
      "inputs": [
        {
          "internalType": "address",
          "name": "farmerContractAddress",
          "type": "address"
        }
      ],
      "stateMutability": "nonpayable",
      "type": "constructor"
    },
    {
      "anonymous": false,
      "inputs": [
        {
          "indexed": false,
          "internalType": "string",
          "name": "reason",
          "type": "string"
        },
        {
          "indexed": false,
          "internalType": "address",
          "name": "userAddress",
          "type": "address"
        }
      ],
      "name": "BuyerLoginFailed",
      "type": "event"
    },
    {
      "anonymous": false,
      "inputs": [
        {
          "indexed": false,
          "internalType": "string",
          "name": "buyerName",
          "type": "string"
        },
        {
          "indexed": false,
          "internalType": "address",
          "name": "userAddress",
          "type": "address"
        },
        {
          "indexed": false,
          "internalType": "string",
          "name": "phonenum",
          "type": "string"
        }
      ],
      "name": "BuyerLoginSuccessful",
      "type": "event"
    },
    {
      "anonymous": false,
      "inputs": [
        {
          "indexed": false,
          "internalType": "string",
          "name": "reason",
          "type": "string"
        },
        {
          "indexed": false,
          "internalType": "address",
          "name": "userAddress",
          "type": "address"
        }
      ],
      "name": "BuyerSignupFailed",
      "type": "event"
    },
    {
      "anonymous": false,
      "inputs": [
        {
          "indexed": false,
          "internalType": "string",
          "name": "buyerName",
          "type": "string"
        },
        {
          "indexed": false,
          "internalType": "string",
          "name": "message",
          "type": "string"
        }
      ],
      "name": "BuyerSignupSuccessful",
      "type": "event"
    },
    {
      "inputs": [
        {
          "internalType": "string",
          "name": "_email",
          "type": "string"
        },
        {
          "internalType": "string",
          "name": "_password",
          "type": "string"
        }
      ],
      "name": "BuyerLogin",
      "outputs": [],
      "stateMutability": "nonpayable",
      "type": "function"
    },
    {
      "inputs": [
        {
          "internalType": "address",
          "name": "",
          "type": "address"
        }
      ],
      "name": "BuyerLoginSignup",
      "outputs": [
        {
          "internalType": "string",
          "name": "name",
          "type": "string"
        },
        {
          "internalType": "string",
          "name": "email",
          "type": "string"
        },
        {
          "internalType": "string",
          "name": "number",
          "type": "string"
        },
        {
          "internalType": "string",
          "name": "password",
          "type": "string"
        }
      ],
      "stateMutability": "view",
      "type": "function",
      "constant": true
    },
    {
      "inputs": [
        {
          "internalType": "address",
          "name": "",
          "type": "address"
        },
        {
          "internalType": "uint256",
          "name": "",
          "type": "uint256"
        }
      ],
      "name": "buyerCart",
      "outputs": [
        {
          "internalType": "address",
          "name": "farmerAddress",
          "type": "address"
        },
        {
          "internalType": "uint256",
          "name": "productId",
          "type": "uint256"
        },
        {
          "internalType": "string",
          "name": "imgurl",
          "type": "string"
        },
        {
          "internalType": "uint256",
          "name": "quantity",
          "type": "uint256"
        },
        {
          "internalType": "uint256",
          "name": "price",
          "type": "uint256"
        },
        {
          "internalType": "uint256",
          "name": "totalprice",
          "type": "uint256"
        }
      ],
      "stateMutability": "view",
      "type": "function",
      "constant": true
    },
    {
      "inputs": [
        {
          "internalType": "address",
          "name": "",
          "type": "address"
        },
        {
          "internalType": "uint256",
          "name": "",
          "type": "uint256"
        }
      ],
      "name": "buyerPurchaseHistory",
      "outputs": [
        {
          "internalType": "address",
          "name": "farmerAddress",
          "type": "address"
        },
        {
          "components": [
            {
              "internalType": "uint256",
              "name": "productId",
              "type": "uint256"
            },
            {
              "internalType": "string",
              "name": "productName",
              "type": "string"
            },
            {
              "internalType": "uint256",
              "name": "productPrice",
              "type": "uint256"
            },
            {
              "internalType": "string",
              "name": "description",
              "type": "string"
            },
            {
              "internalType": "string",
              "name": "productType",
              "type": "string"
            },
            {
              "internalType": "string",
              "name": "productImageUrl",
              "type": "string"
            },
            {
              "internalType": "address",
              "name": "creator",
              "type": "address"
            },
            {
              "internalType": "string",
              "name": "productPackedDate",
              "type": "string"
            },
            {
              "internalType": "string",
              "name": "productExpire",
              "type": "string"
            },
            {
              "internalType": "uint256",
              "name": "ratingsCount",
              "type": "uint256"
            },
            {
              "internalType": "uint256",
              "name": "averageRating",
              "type": "uint256"
            },
            {
              "internalType": "uint256",
              "name": "totalpurchaseamount",
              "type": "uint256"
            }
          ],
          "internalType": "struct FarmerOperationsManagement.Product",
          "name": "productDetails",
          "type": "tuple"
        },
        {
          "internalType": "uint256",
          "name": "quantity",
          "type": "uint256"
        },
        {
          "internalType": "uint256",
          "name": "totalprice",
          "type": "uint256"
        },
        {
          "internalType": "string",
          "name": "productImageUrl",
          "type": "string"
        }
      ],
      "stateMutability": "view",
      "type": "function",
      "constant": true
    },
    {
      "inputs": [
        {
          "internalType": "string",
          "name": "_name",
          "type": "string"
        },
        {
          "internalType": "string",
          "name": "_email",
          "type": "string"
        },
        {
          "internalType": "string",
          "name": "_number",
          "type": "string"
        },
        {
          "internalType": "string",
          "name": "_password",
          "type": "string"
        }
      ],
      "name": "buyerSignup",
      "outputs": [],
      "stateMutability": "nonpayable",
      "type": "function"
    },
    {
      "inputs": [],
      "name": "farmerContract",
      "outputs": [
        {
          "internalType": "contract FarmerOperationsManagement",
          "name": "",
          "type": "address"
        }
      ],
      "stateMutability": "view",
      "type": "function",
      "constant": true
    },
    {
      "inputs": [
        {
          "internalType": "address",
          "name": "farmerAddress",
          "type": "address"
        },
        {
          "internalType": "uint256",
          "name": "productId",
          "type": "uint256"
        },
        {
          "internalType": "string",
          "name": "imgurl",
          "type": "string"
        },
        {
          "internalType": "uint256",
          "name": "quantity",
          "type": "uint256"
        },
        {
          "internalType": "uint256",
          "name": "price",
          "type": "uint256"
        }
      ],
      "name": "addToCart",
      "outputs": [],
      "stateMutability": "nonpayable",
      "type": "function"
    },
    {
      "inputs": [
        {
          "internalType": "uint256",
          "name": "index",
          "type": "uint256"
        }
      ],
      "name": "removeFromCart",
      "outputs": [],
      "stateMutability": "nonpayable",
      "type": "function"
    },
    {
      "inputs": [],
      "name": "getMyCartItems",
      "outputs": [
        {
          "components": [
            {
              "internalType": "address",
              "name": "farmerAddress",
              "type": "address"
            },
            {
              "internalType": "uint256",
              "name": "productId",
              "type": "uint256"
            },
            {
              "internalType": "string",
              "name": "imgurl",
              "type": "string"
            },
            {
              "internalType": "uint256",
              "name": "quantity",
              "type": "uint256"
            },
            {
              "internalType": "uint256",
              "name": "price",
              "type": "uint256"
            },
            {
              "internalType": "uint256",
              "name": "totalprice",
              "type": "uint256"
            }
          ],
          "internalType": "struct BuyerOperationsManagement.CartItem[]",
          "name": "",
          "type": "tuple[]"
        }
      ],
      "stateMutability": "view",
      "type": "function",
      "constant": true
    },
    {
      "inputs": [
        {
          "internalType": "string",
          "name": "buyerName",
          "type": "string"
        },
        {
          "internalType": "string",
          "name": "userAddress",
          "type": "string"
        },
        {
          "internalType": "string",
          "name": "userPhoneNo",
          "type": "string"
        }
      ],
      "name": "purchaseCart",
      "outputs": [],
      "stateMutability": "nonpayable",
      "type": "function"
    },
    {
      "inputs": [
        {
          "internalType": "uint256",
          "name": "index",
          "type": "uint256"
        },
        {
          "internalType": "string",
          "name": "buyerName",
          "type": "string"
        },
        {
          "internalType": "string",
          "name": "userAddress",
          "type": "string"
        },
        {
          "internalType": "string",
          "name": "userPhoneNo",
          "type": "string"
        },
        {
          "internalType": "uint256",
          "name": "productid",
          "type": "uint256"
        }
      ],
      "name": "purchaseSingleProduct",
      "outputs": [],
      "stateMutability": "nonpayable",
      "type": "function"
    },
    {
      "inputs": [],
      "name": "getPurchaseHistory",
      "outputs": [
        {
          "components": [
            {
              "internalType": "address",
              "name": "farmerAddress",
              "type": "address"
            },
            {
              "components": [
                {
                  "internalType": "uint256",
                  "name": "productId",
                  "type": "uint256"
                },
                {
                  "internalType": "string",
                  "name": "productName",
                  "type": "string"
                },
                {
                  "internalType": "uint256",
                  "name": "productPrice",
                  "type": "uint256"
                },
                {
                  "internalType": "string",
                  "name": "description",
                  "type": "string"
                },
                {
                  "internalType": "string",
                  "name": "productType",
                  "type": "string"
                },
                {
                  "internalType": "string",
                  "name": "productImageUrl",
                  "type": "string"
                },
                {
                  "internalType": "address",
                  "name": "creator",
                  "type": "address"
                },
                {
                  "internalType": "string",
                  "name": "productPackedDate",
                  "type": "string"
                },
                {
                  "internalType": "string",
                  "name": "productExpire",
                  "type": "string"
                },
                {
                  "internalType": "uint256",
                  "name": "ratingsCount",
                  "type": "uint256"
                },
                {
                  "internalType": "uint256",
                  "name": "averageRating",
                  "type": "uint256"
                },
                {
                  "internalType": "uint256",
                  "name": "totalpurchaseamount",
                  "type": "uint256"
                }
              ],
              "internalType": "struct FarmerOperationsManagement.Product",
              "name": "productDetails",
              "type": "tuple"
            },
            {
              "internalType": "uint256",
              "name": "quantity",
              "type": "uint256"
            },
            {
              "internalType": "uint256",
              "name": "totalprice",
              "type": "uint256"
            },
            {
              "internalType": "string",
              "name": "productImageUrl",
              "type": "string"
            }
          ],
          "internalType": "struct BuyerOperationsManagement.PurchasedProduct[]",
          "name": "",
          "type": "tuple[]"
        }
      ],
      "stateMutability": "view",
      "type": "function",
      "constant": true
    }
  ],
  "bytecode": "0x60806040523480156200001157600080fd5b5060405162004c7738038062004c77833981810160405281019062000037919062000096565b80600160006101000a81548173ffffffffffffffffffffffffffffffffffffffff021916908373ffffffffffffffffffffffffffffffffffffffff1602179055505062000110565b6000815190506200009081620000f6565b92915050565b600060208284031215620000a957600080fd5b6000620000b9848285016200007f565b91505092915050565b6000620000cf82620000d6565b9050919050565b600073ffffffffffffffffffffffffffffffffffffffff82169050919050565b6200010181620000c2565b81146200010d57600080fd5b50565b614b5780620001206000396000f3fe608060405234801561001057600080fd5b50600436106100b35760003560e01c80639c0b7d46116100715780639c0b7d46146101625780639fa44dbf14610180578063a3c3b69a146101b4578063a6094ad3146101e7578063ca17c11b1461021c578063ca29610e1461023a576100b3565b8062f9ea27146100b8578063054ea2ea146100d45780630d89fb58146100f25780630f8969001461010e5780632c6bd0d81461012a5780637207228b14610146575b600080fd5b6100d260048036038101906100cd9190613734565b610256565b005b6100dc610b27565b6040516100e991906141d2565b60405180910390f35b61010c600480360381019061010791906135b1565b610cd3565b005b61012860048036038101906101239190613475565b6113e0565b005b610144600480360381019061013f9190613648565b611851565b005b610160600480360381019061015b9190613545565b611b32565b005b61016a611de1565b6040516101779190614216565b60405180910390f35b61019a60048036038101906101959190613439565b611e07565b6040516101ab959493929190614033565b60405180910390f35b6101ce60048036038101906101c99190613410565b612301565b6040516101de9493929190614231565b60405180910390f35b61020160048036038101906101fc9190613439565b612551565b60405161021396959493929190614133565b60405180910390f35b610224612652565b60405161023191906141f4565b60405180910390f35b610254600480360381019061024f919061370b565b612bf3565b005b600260003373ffffffffffffffffffffffffffffffffffffffff1673ffffffffffffffffffffffffffffffffffffffff1681526020019081526020016000208054905085106102da576040517f08c379a00000000000000000000000000000000000000000000000000000000081526004016102d19061435a565b60405180910390fd5b6000600260003373ffffffffffffffffffffffffffffffffffffffff1673ffffffffffffffffffffffffffffffffffffffff16815260200190815260200160002090506000818781548110610358577f4e487b7100000000000000000000000000000000000000000000000000000000600052603260045260246000fd5b90600052602060002090600602016040518060c00160405290816000820160009054906101000a900473ffffffffffffffffffffffffffffffffffffffff1673ffffffffffffffffffffffffffffffffffffffff1673ffffffffffffffffffffffffffffffffffffffff168152602001600182015481526020016002820180546103e19061474b565b80601f016020809104026020016040519081016040528092919081815260200182805461040d9061474b565b801561045a5780601f1061042f5761010080835404028352916020019161045a565b820191906000526020600020905b81548152906001019060200180831161043d57829003601f168201915b50505050508152602001600382015481526020016004820154815260200160058201548152505090506000600160009054906101000a900473ffffffffffffffffffffffffffffffffffffffff1673ffffffffffffffffffffffffffffffffffffffff16630a5cf04283600001516040518263ffffffff1660e01b81526004016104e49190614018565b60006040518083038186803b1580156104fc57600080fd5b505afa158015610510573d6000803e3d6000fd5b505050506040513d6000823e3d601f19601f820116820180604052508101906105399190613504565b826020015181518110610575577f4e487b7100000000000000000000000000000000000000000000000000000000600052603260045260246000fd5b60200260200101519050600160009054906101000a900473ffffffffffffffffffffffffffffffffffffffff1673ffffffffffffffffffffffffffffffffffffffff1663d66d5c64836000015184602001518560a001516040518463ffffffff1660e01b81526004016105ea9392919061419b565b600060405180830381600087803b15801561060457600080fd5b505af1158015610618573d6000803e3d6000fd5b50505050600360003373ffffffffffffffffffffffffffffffffffffffff1673ffffffffffffffffffffffffffffffffffffffff1681526020019081526020016000206040518060a00160405280846000015173ffffffffffffffffffffffffffffffffffffffff168152602001838152602001846060015181526020018460a0015181526020018460400151815250908060018154018082558091505060019003906000526020600020906010020160009091909190915060008201518160000160006101000a81548173ffffffffffffffffffffffffffffffffffffffff021916908373ffffffffffffffffffffffffffffffffffffffff160217905550602082015181600101600082015181600001556020820151816001019080519060200190610747929190612eb5565b5060408201518160020155606082015181600301908051906020019061076e929190612eb5565b50608082015181600401908051906020019061078b929190612eb5565b5060a08201518160050190805190602001906107a8929190612eb5565b5060c08201518160060160006101000a81548173ffffffffffffffffffffffffffffffffffffffff021916908373ffffffffffffffffffffffffffffffffffffffff16021790555060e082015181600701908051906020019061080c929190612eb5565b5061010082015181600801908051906020019061082a929190612eb5565b50610120820151816009015561014082015181600a015561016082015181600b01555050604082015181600d0155606082015181600e0155608082015181600f01908051906020019061087e929190612eb5565b505050600160009054906101000a900473ffffffffffffffffffffffffffffffffffffffff1673ffffffffffffffffffffffffffffffffffffffff16638e4f927e836000015184602001518a8a8a8a89604001516040518863ffffffff1660e01b81526004016108f49796959493929190614094565b600060405180830381600087803b15801561090e57600080fd5b505af1158015610922573d6000803e3d6000fd5b5050505082600184805490506109389190614675565b8154811061096f577f4e487b7100000000000000000000000000000000000000000000000000000000600052603260045260246000fd5b90600052602060002090600602018389815481106109b6577f4e487b7100000000000000000000000000000000000000000000000000000000600052603260045260246000fd5b90600052602060002090600602016000820160009054906101000a900473ffffffffffffffffffffffffffffffffffffffff168160000160006101000a81548173ffffffffffffffffffffffffffffffffffffffff021916908373ffffffffffffffffffffffffffffffffffffffff160217905550600182015481600101556002820181600201908054610a499061474b565b610a54929190612f3b565b5060038201548160030155600482015481600401556005820154816005015590505082805480610aad577f4e487b7100000000000000000000000000000000000000000000000000000000600052603160045260246000fd5b6001900381819060005260206000209060060201600080820160006101000a81549073ffffffffffffffffffffffffffffffffffffffff02191690556001820160009055600282016000610b019190612fc8565b600382016000905560048201600090556005820160009055505090555050505050505050565b6060600260003373ffffffffffffffffffffffffffffffffffffffff1673ffffffffffffffffffffffffffffffffffffffff168152602001908152602001600020805480602002602001604051908101604052809291908181526020016000905b82821015610cca57838290600052602060002090600602016040518060c00160405290816000820160009054906101000a900473ffffffffffffffffffffffffffffffffffffffff1673ffffffffffffffffffffffffffffffffffffffff1673ffffffffffffffffffffffffffffffffffffffff16815260200160018201548152602001600282018054610c1b9061474b565b80601f0160208091040260200160405190810160405280929190818152602001828054610c479061474b565b8015610c945780601f10610c6957610100808354040283529160200191610c94565b820191906000526020600020905b815481529060010190602001808311610c7757829003601f168201915b50505050508152602001600382015481526020016004820154815260200160058201548152505081526020019060010190610b88565b50505050905090565b6000600260003373ffffffffffffffffffffffffffffffffffffffff1673ffffffffffffffffffffffffffffffffffffffff16815260200190815260200160002090506000818054905011610d5d576040517f08c379a0000000000000000000000000000000000000000000000000000000008152600401610d54906143c8565b60405180910390fd5b60005b818054905081101561138e576000828281548110610da7577f4e487b7100000000000000000000000000000000000000000000000000000000600052603260045260246000fd5b90600052602060002090600602016040518060c00160405290816000820160009054906101000a900473ffffffffffffffffffffffffffffffffffffffff1673ffffffffffffffffffffffffffffffffffffffff1673ffffffffffffffffffffffffffffffffffffffff16815260200160018201548152602001600282018054610e309061474b565b80601f0160208091040260200160405190810160405280929190818152602001828054610e5c9061474b565b8015610ea95780601f10610e7e57610100808354040283529160200191610ea9565b820191906000526020600020905b815481529060010190602001808311610e8c57829003601f168201915b50505050508152602001600382015481526020016004820154815260200160058201548152505090506000600160009054906101000a900473ffffffffffffffffffffffffffffffffffffffff1673ffffffffffffffffffffffffffffffffffffffff16630a5cf04283600001516040518263ffffffff1660e01b8152600401610f339190614018565b60006040518083038186803b158015610f4b57600080fd5b505afa158015610f5f573d6000803e3d6000fd5b505050506040513d6000823e3d601f19601f82011682018060405250810190610f889190613504565b826020015181518110610fc4577f4e487b7100000000000000000000000000000000000000000000000000000000600052603260045260246000fd5b60200260200101519050600160009054906101000a900473ffffffffffffffffffffffffffffffffffffffff1673ffffffffffffffffffffffffffffffffffffffff1663d66d5c64836000015184602001518560a001516040518463ffffffff1660e01b81526004016110399392919061419b565b600060405180830381600087803b15801561105357600080fd5b505af1158015611067573d6000803e3d6000fd5b50505050600360003373ffffffffffffffffffffffffffffffffffffffff1673ffffffffffffffffffffffffffffffffffffffff1681526020019081526020016000206040518060a00160405280846000015173ffffffffffffffffffffffffffffffffffffffff168152602001838152602001846060015181526020018460a0015181526020018460400151815250908060018154018082558091505060019003906000526020600020906010020160009091909190915060008201518160000160006101000a81548173ffffffffffffffffffffffffffffffffffffffff021916908373ffffffffffffffffffffffffffffffffffffffff160217905550602082015181600101600082015181600001556020820151816001019080519060200190611196929190612eb5565b506040820151816002015560608201518160030190805190602001906111bd929190612eb5565b5060808201518160040190805190602001906111da929190612eb5565b5060a08201518160050190805190602001906111f7929190612eb5565b5060c08201518160060160006101000a81548173ffffffffffffffffffffffffffffffffffffffff021916908373ffffffffffffffffffffffffffffffffffffffff16021790555060e082015181600701908051906020019061125b929190612eb5565b50610100820151816008019080519060200190611279929190612eb5565b50610120820151816009015561014082015181600a015561016082015181600b01555050604082015181600d0155606082015181600e0155608082015181600f0190805190602001906112cd929190612eb5565b505050600160009054906101000a900473ffffffffffffffffffffffffffffffffffffffff1673ffffffffffffffffffffffffffffffffffffffff16638e4f927e836000015184602001518a8a8a886020015189604001516040518863ffffffff1660e01b81526004016113479796959493929190614094565b600060405180830381600087803b15801561136157600080fd5b505af1158015611375573d6000803e3d6000fd5b5050505050508080611386906147ae565b915050610d60565b50600260003373ffffffffffffffffffffffffffffffffffffffff1673ffffffffffffffffffffffffffffffffffffffff16815260200190815260200160002060006113da9190613008565b50505050565b600160009054906101000a900473ffffffffffffffffffffffffffffffffffffffff1673ffffffffffffffffffffffffffffffffffffffff16630a5cf042866040518263ffffffff1660e01b815260040161143b9190614018565b60006040518083038186803b15801561145357600080fd5b505afa158015611467573d6000803e3d6000fd5b505050506040513d6000823e3d601f19601f820116820180604052508101906114909190613504565b5184106114d2576040517f08c379a00000000000000000000000000000000000000000000000000000000081526004016114c9906143a8565b60405180910390fd5b60008211611515576040517f08c379a000000000000000000000000000000000000000000000000000000000815260040161150c9061430c565b60405180910390fd5b6000600260003373ffffffffffffffffffffffffffffffffffffffff1673ffffffffffffffffffffffffffffffffffffffff168152602001908152602001600020905060005b818054905081101561174157858282815481106115a1577f4e487b7100000000000000000000000000000000000000000000000000000000600052603260045260246000fd5b90600052602060002090600602016001015414801561165557508673ffffffffffffffffffffffffffffffffffffffff1682828154811061160b577f4e487b7100000000000000000000000000000000000000000000000000000000600052603260045260246000fd5b906000526020600020906006020160000160009054906101000a900473ffffffffffffffffffffffffffffffffffffffff1673ffffffffffffffffffffffffffffffffffffffff16145b1561172e5783828281548110611694577f4e487b7100000000000000000000000000000000000000000000000000000000600052603260045260246000fd5b906000526020600020906006020160030160008282546116b491906145c5565b9250508190555083836116c7919061461b565b828281548110611700577f4e487b7100000000000000000000000000000000000000000000000000000000600052603260045260246000fd5b9060005260206000209060060201600501600082825461172091906145c5565b92505081905550505061184a565b8080611739906147ae565b91505061155b565b50806040518060c001604052808873ffffffffffffffffffffffffffffffffffffffff168152602001878152602001868152602001858152602001848152602001858561178e919061461b565b815250908060018154018082558091505060019003906000526020600020906006020160009091909190915060008201518160000160006101000a81548173ffffffffffffffffffffffffffffffffffffffff021916908373ffffffffffffffffffffffffffffffffffffffff160217905550602082015181600101556040820151816002019080519060200190611827929190612eb5565b50606082015181600301556080820151816004015560a082015181600501555050505b5050505050565b60008451118015611863575060008351115b8015611870575060008151115b801561187d575060008251115b6118bc576040517f08c379a00000000000000000000000000000000000000000000000000000000081526004016118b3906143e8565b60405180910390fd5b60008060003373ffffffffffffffffffffffffffffffffffffffff1673ffffffffffffffffffffffffffffffffffffffff168152602001908152602001600020600101805461190a9061474b565b9050111561194e577f1a3edf5d8b649fff46a5fb715ff1932cbd657e989274e6a6d4ad696e2fbd7ced336040516119419190614456565b60405180910390a1611b2c565b8260405160200161195f9190613fea565b604051602081830303815290604052805190602001206000803373ffffffffffffffffffffffffffffffffffffffff1673ffffffffffffffffffffffffffffffffffffffff1681526020019081526020016000206001016040516020016119c69190614001565b604051602081830303815290604052805190602001201415611a1e577f1a3edf5d8b649fff46a5fb715ff1932cbd657e989274e6a6d4ad696e2fbd7ced33604051611a119190614428565b60405180910390a1611b2c565b6040518060800160405280858152602001848152602001838152602001828152506000803373ffffffffffffffffffffffffffffffffffffffff1673ffffffffffffffffffffffffffffffffffffffff1681526020019081526020016000206000820151816000019080519060200190611a99929190612eb5565b506020820151816001019080519060200190611ab6929190612eb5565b506040820151816002019080519060200190611ad3929190612eb5565b506060820151816003019080519060200190611af0929190612eb5565b509050507fd5e337de8a83b6d0acec1c9edd719213bc49b46960042f5c92a77fe630c3ee5a84604051611b239190614292565b60405180910390a15b50505050565b60008251118015611b44575060008151115b611b83576040517f08c379a0000000000000000000000000000000000000000000000000000000008152600401611b7a90614408565b60405180910390fd5b81604051602001611b949190613fea565b604051602081830303815290604052805190602001206000803373ffffffffffffffffffffffffffffffffffffffff1673ffffffffffffffffffffffffffffffffffffffff168152602001908152602001600020600101604051602001611bfb9190614001565b6040516020818303038152906040528051906020012014611c52577faebd1309dea88712bd1cd9d86243e6f11bc5d5116fd88c6ba11aaea7e5f8d89433604051611c45919061437a565b60405180910390a1611ddd565b80604051602001611c639190613fea565b604051602081830303815290604052805190602001206000803373ffffffffffffffffffffffffffffffffffffffff1673ffffffffffffffffffffffffffffffffffffffff168152602001908152602001600020600301604051602001611cca9190614001565b6040516020818303038152906040528051906020012014611d21577faebd1309dea88712bd1cd9d86243e6f11bc5d5116fd88c6ba11aaea7e5f8d89433604051611d14919061432c565b60405180910390a1611ddd565b7f3e871863487191540ad6b75984b5f496f4153404a75a3e465cf426099b08b82a6000803373ffffffffffffffffffffffffffffffffffffffff1673ffffffffffffffffffffffffffffffffffffffff168152602001908152602001600020600001336000803373ffffffffffffffffffffffffffffffffffffffff1673ffffffffffffffffffffffffffffffffffffffff168152602001908152602001600020600201604051611dd4939291906142c7565b60405180910390a15b5050565b600160009054906101000a900473ffffffffffffffffffffffffffffffffffffffff1681565b60036020528160005260406000208181548110611e2357600080fd5b9060005260206000209060100201600091509150508060000160009054906101000a900473ffffffffffffffffffffffffffffffffffffffff1690806001016040518061018001604052908160008201548152602001600182018054611e889061474b565b80601f0160208091040260200160405190810160405280929190818152602001828054611eb49061474b565b8015611f015780601f10611ed657610100808354040283529160200191611f01565b820191906000526020600020905b815481529060010190602001808311611ee457829003601f168201915b5050505050815260200160028201548152602001600382018054611f249061474b565b80601f0160208091040260200160405190810160405280929190818152602001828054611f509061474b565b8015611f9d5780601f10611f7257610100808354040283529160200191611f9d565b820191906000526020600020905b815481529060010190602001808311611f8057829003601f168201915b50505050508152602001600482018054611fb69061474b565b80601f0160208091040260200160405190810160405280929190818152602001828054611fe29061474b565b801561202f5780601f106120045761010080835404028352916020019161202f565b820191906000526020600020905b81548152906001019060200180831161201257829003601f168201915b505050505081526020016005820180546120489061474b565b80601f01602080910402602001604051908101604052809291908181526020018280546120749061474b565b80156120c15780601f10612096576101008083540402835291602001916120c1565b820191906000526020600020905b8154815290600101906020018083116120a457829003601f168201915b505050505081526020016006820160009054906101000a900473ffffffffffffffffffffffffffffffffffffffff1673ffffffffffffffffffffffffffffffffffffffff1673ffffffffffffffffffffffffffffffffffffffff1681526020016007820180546121309061474b565b80601f016020809104026020016040519081016040528092919081815260200182805461215c9061474b565b80156121a95780601f1061217e576101008083540402835291602001916121a9565b820191906000526020600020905b81548152906001019060200180831161218c57829003601f168201915b505050505081526020016008820180546121c29061474b565b80601f01602080910402602001604051908101604052809291908181526020018280546121ee9061474b565b801561223b5780601f106122105761010080835404028352916020019161223b565b820191906000526020600020905b81548152906001019060200180831161221e57829003601f168201915b5050505050815260200160098201548152602001600a8201548152602001600b820154815250509080600d01549080600e01549080600f01805461227e9061474b565b80601f01602080910402602001604051908101604052809291908181526020018280546122aa9061474b565b80156122f75780601f106122cc576101008083540402835291602001916122f7565b820191906000526020600020905b8154815290600101906020018083116122da57829003601f168201915b5050505050905085565b60006020528060005260406000206000915090508060000180546123249061474b565b80601f01602080910402602001604051908101604052809291908181526020018280546123509061474b565b801561239d5780601f106123725761010080835404028352916020019161239d565b820191906000526020600020905b81548152906001019060200180831161238057829003601f168201915b5050505050908060010180546123b29061474b565b80601f01602080910402602001604051908101604052809291908181526020018280546123de9061474b565b801561242b5780601f106124005761010080835404028352916020019161242b565b820191906000526020600020905b81548152906001019060200180831161240e57829003601f168201915b5050505050908060020180546124409061474b565b80601f016020809104026020016040519081016040528092919081815260200182805461246c9061474b565b80156124b95780601f1061248e576101008083540402835291602001916124b9565b820191906000526020600020905b81548152906001019060200180831161249c57829003601f168201915b5050505050908060030180546124ce9061474b565b80601f01602080910402602001604051908101604052809291908181526020018280546124fa9061474b565b80156125475780601f1061251c57610100808354040283529160200191612547565b820191906000526020600020905b81548152906001019060200180831161252a57829003601f168201915b5050505050905084565b6002602052816000526040600020818154811061256d57600080fd5b9060005260206000209060060201600091509150508060000160009054906101000a900473ffffffffffffffffffffffffffffffffffffffff16908060010154908060020180546125bd9061474b565b80601f01602080910402602001604051908101604052809291908181526020018280546125e99061474b565b80156126365780601f1061260b57610100808354040283529160200191612636565b820191906000526020600020905b81548152906001019060200180831161261957829003601f168201915b5050505050908060030154908060040154908060050154905086565b6060600360003373ffffffffffffffffffffffffffffffffffffffff1673ffffffffffffffffffffffffffffffffffffffff168152602001908152602001600020805480602002602001604051908101604052809291908181526020016000905b82821015612bea57838290600052602060002090601002016040518060a00160405290816000820160009054906101000a900473ffffffffffffffffffffffffffffffffffffffff1673ffffffffffffffffffffffffffffffffffffffff1673ffffffffffffffffffffffffffffffffffffffff1681526020016001820160405180610180016040529081600082015481526020016001820180546127579061474b565b80601f01602080910402602001604051908101604052809291908181526020018280546127839061474b565b80156127d05780601f106127a5576101008083540402835291602001916127d0565b820191906000526020600020905b8154815290600101906020018083116127b357829003601f168201915b50505050508152602001600282015481526020016003820180546127f39061474b565b80601f016020809104026020016040519081016040528092919081815260200182805461281f9061474b565b801561286c5780601f106128415761010080835404028352916020019161286c565b820191906000526020600020905b81548152906001019060200180831161284f57829003601f168201915b505050505081526020016004820180546128859061474b565b80601f01602080910402602001604051908101604052809291908181526020018280546128b19061474b565b80156128fe5780601f106128d3576101008083540402835291602001916128fe565b820191906000526020600020905b8154815290600101906020018083116128e157829003601f168201915b505050505081526020016005820180546129179061474b565b80601f01602080910402602001604051908101604052809291908181526020018280546129439061474b565b80156129905780601f1061296557610100808354040283529160200191612990565b820191906000526020600020905b81548152906001019060200180831161297357829003601f168201915b505050505081526020016006820160009054906101000a900473ffffffffffffffffffffffffffffffffffffffff1673ffffffffffffffffffffffffffffffffffffffff1673ffffffffffffffffffffffffffffffffffffffff1681526020016007820180546129ff9061474b565b80601f0160208091040260200160405190810160405280929190818152602001828054612a2b9061474b565b8015612a785780601f10612a4d57610100808354040283529160200191612a78565b820191906000526020600020905b815481529060010190602001808311612a5b57829003601f168201915b50505050508152602001600882018054612a919061474b565b80601f0160208091040260200160405190810160405280929190818152602001828054612abd9061474b565b8015612b0a5780601f10612adf57610100808354040283529160200191612b0a565b820191906000526020600020905b815481529060010190602001808311612aed57829003601f168201915b5050505050815260200160098201548152602001600a8201548152602001600b820154815250508152602001600d8201548152602001600e8201548152602001600f82018054612b599061474b565b80601f0160208091040260200160405190810160405280929190818152602001828054612b859061474b565b8015612bd25780601f10612ba757610100808354040283529160200191612bd2565b820191906000526020600020905b815481529060010190602001808311612bb557829003601f168201915b505050505081525050815260200190600101906126b3565b50505050905090565b600260003373ffffffffffffffffffffffffffffffffffffffff1673ffffffffffffffffffffffffffffffffffffffff168152602001908152602001600020805490508110612c77576040517f08c379a0000000000000000000000000000000000000000000000000000000008152600401612c6e9061435a565b60405180910390fd5b6000600260003373ffffffffffffffffffffffffffffffffffffffff1673ffffffffffffffffffffffffffffffffffffffff16815260200190815260200160002090508060018280549050612ccc9190614675565b81548110612d03577f4e487b7100000000000000000000000000000000000000000000000000000000600052603260045260246000fd5b9060005260206000209060060201818381548110612d4a577f4e487b7100000000000000000000000000000000000000000000000000000000600052603260045260246000fd5b90600052602060002090600602016000820160009054906101000a900473ffffffffffffffffffffffffffffffffffffffff168160000160006101000a81548173ffffffffffffffffffffffffffffffffffffffff021916908373ffffffffffffffffffffffffffffffffffffffff160217905550600182015481600101556002820181600201908054612ddd9061474b565b612de8929190612f3b565b5060038201548160030155600482015481600401556005820154816005015590505080805480612e41577f4e487b7100000000000000000000000000000000000000000000000000000000600052603160045260246000fd5b6001900381819060005260206000209060060201600080820160006101000a81549073ffffffffffffffffffffffffffffffffffffffff02191690556001820160009055600282016000612e959190612fc8565b600382016000905560048201600090556005820160009055505090555050565b828054612ec19061474b565b90600052602060002090601f016020900481019282612ee35760008555612f2a565b82601f10612efc57805160ff1916838001178555612f2a565b82800160010185558215612f2a579182015b82811115612f29578251825591602001919060010190612f0e565b5b509050612f37919061302c565b5090565b828054612f479061474b565b90600052602060002090601f016020900481019282612f695760008555612fb7565b82601f10612f7a5780548555612fb7565b82800160010185558215612fb757600052602060002091601f016020900482015b82811115612fb6578254825591600101919060010190612f9b565b5b509050612fc4919061302c565b5090565b508054612fd49061474b565b6000825580601f10612fe65750613005565b601f016020900490600052602060002090810190613004919061302c565b5b50565b50805460008255600602906000526020600020908101906130299190613049565b50565b5b8082111561304557600081600090555060010161302d565b5090565b5b808211156130b357600080820160006101000a81549073ffffffffffffffffffffffffffffffffffffffff021916905560018201600090556002820160006130929190612fc8565b6003820160009055600482016000905560058201600090555060060161304a565b5090565b60006130ca6130c5846144a9565b614484565b9050808382526020820190508260005b8581101561310a57815185016130f08882613238565b8452602084019350602083019250506001810190506130da565b5050509392505050565b6000613127613122846144d5565b614484565b90508281526020810184848401111561313f57600080fd5b61314a848285614709565b509392505050565b6000613165613160846144d5565b614484565b90508281526020810184848401111561317d57600080fd5b613188848285614718565b509392505050565b60008135905061319f81614af3565b92915050565b6000815190506131b481614af3565b92915050565b600082601f8301126131cb57600080fd5b81516131db8482602086016130b7565b91505092915050565b600082601f8301126131f557600080fd5b8135613205848260208601613114565b91505092915050565b600082601f83011261321f57600080fd5b815161322f848260208601613152565b91505092915050565b6000610180828403121561324b57600080fd5b613256610180614484565b90506000613266848285016133fb565b600083015250602082015167ffffffffffffffff81111561328657600080fd5b6132928482850161320e565b60208301525060406132a6848285016133fb565b604083015250606082015167ffffffffffffffff8111156132c657600080fd5b6132d28482850161320e565b606083015250608082015167ffffffffffffffff8111156132f257600080fd5b6132fe8482850161320e565b60808301525060a082015167ffffffffffffffff81111561331e57600080fd5b61332a8482850161320e565b60a08301525060c061333e848285016131a5565b60c08301525060e082015167ffffffffffffffff81111561335e57600080fd5b61336a8482850161320e565b60e08301525061010082015167ffffffffffffffff81111561338b57600080fd5b6133978482850161320e565b610100830152506101206133ad848285016133fb565b610120830152506101406133c3848285016133fb565b610140830152506101606133d9848285016133fb565b6101608301525092915050565b6000813590506133f581614b0a565b92915050565b60008151905061340a81614b0a565b92915050565b60006020828403121561342257600080fd5b600061343084828501613190565b91505092915050565b6000806040838503121561344c57600080fd5b600061345a85828601613190565b925050602061346b858286016133e6565b9150509250929050565b600080600080600060a0868803121561348d57600080fd5b600061349b88828901613190565b95505060206134ac888289016133e6565b945050604086013567ffffffffffffffff8111156134c957600080fd5b6134d5888289016131e4565b93505060606134e6888289016133e6565b92505060806134f7888289016133e6565b9150509295509295909350565b60006020828403121561351657600080fd5b600082015167ffffffffffffffff81111561353057600080fd5b61353c848285016131ba565b91505092915050565b6000806040838503121561355857600080fd5b600083013567ffffffffffffffff81111561357257600080fd5b61357e858286016131e4565b925050602083013567ffffffffffffffff81111561359b57600080fd5b6135a7858286016131e4565b9150509250929050565b6000806000606084860312156135c657600080fd5b600084013567ffffffffffffffff8111156135e057600080fd5b6135ec868287016131e4565b935050602084013567ffffffffffffffff81111561360957600080fd5b613615868287016131e4565b925050604084013567ffffffffffffffff81111561363257600080fd5b61363e868287016131e4565b9150509250925092565b6000806000806080858703121561365e57600080fd5b600085013567ffffffffffffffff81111561367857600080fd5b613684878288016131e4565b945050602085013567ffffffffffffffff8111156136a157600080fd5b6136ad878288016131e4565b935050604085013567ffffffffffffffff8111156136ca57600080fd5b6136d6878288016131e4565b925050606085013567ffffffffffffffff8111156136f357600080fd5b6136ff878288016131e4565b91505092959194509250565b60006020828403121561371d57600080fd5b600061372b848285016133e6565b91505092915050565b600080600080600060a0868803121561374c57600080fd5b600061375a888289016133e6565b955050602086013567ffffffffffffffff81111561377757600080fd5b613783888289016131e4565b945050604086013567ffffffffffffffff8111156137a057600080fd5b6137ac888289016131e4565b935050606086013567ffffffffffffffff8111156137c957600080fd5b6137d5888289016131e4565b92505060806137e6888289016133e6565b9150509295509295909350565b60006137ff8383613c78565b905092915050565b60006138138383613f4f565b905092915050565b613824816146a9565b82525050565b613833816146a9565b82525050565b60006138448261453b565b61384e8185614576565b93508360208202850161386085614506565b8060005b8581101561389c578484038952815161387d85826137f3565b94506138888361455c565b925060208a01995050600181019050613864565b50829750879550505050505092915050565b60006138b982614546565b6138c38185614587565b9350836020820285016138d585614516565b8060005b8581101561391157848403895281516138f28582613807565b94506138fd83614569565b925060208a019950506001810190506138d9565b50829750879550505050505092915050565b61392c816146e5565b82525050565b600061393d82614551565b6139478185614598565b9350613957818560208601614718565b61396081614884565b840191505092915050565b600061397682614551565b61398081856145a9565b9350613990818560208601614718565b61399981614884565b840191505092915050565b60006139af82614551565b6139b981856145ba565b93506139c9818560208601614718565b80840191505092915050565b600081546139e28161474b565b6139ec81866145a9565b94506001821660008114613a075760018114613a1957613a4c565b60ff1983168652602086019350613a4c565b613a2285614526565b60005b83811015613a4457815481890152600182019150602081019050613a25565b808801955050505b50505092915050565b60008154613a628161474b565b613a6c81866145ba565b94506001821660008114613a875760018114613a9857613acb565b60ff19831686528186019350613acb565b613aa185614526565b60005b83811015613ac357815481890152600182019150602081019050613aa4565b838801955050505b50505092915050565b6000613ae1601f836145a9565b9150613aec82614895565b602082019050919050565b6000613b046012836145a9565b9150613b0f826148be565b602082019050919050565b6000613b276010836145a9565b9150613b32826148e7565b602082019050919050565b6000613b4a6012836145a9565b9150613b5582614910565b602082019050919050565b6000613b6d600f836145a9565b9150613b7882614939565b602082019050919050565b6000613b90600f836145a9565b9150613b9b82614962565b602082019050919050565b6000613bb3600d836145a9565b9150613bbe8261498b565b602082019050919050565b6000613bd66020836145a9565b9150613be1826149b4565b602082019050919050565b6000613bf9601f836145a9565b9150613c04826149dd565b602082019050919050565b6000613c1c6033836145a9565b9150613c2782614a06565b604082019050919050565b6000613c3f6011836145a9565b9150613c4a82614a55565b602082019050919050565b6000613c62605d836145a9565b9150613c6d82614a7e565b606082019050919050565b600060c083016000830151613c90600086018261381b565b506020830151613ca36020860182613fcc565b5060408301518482036040860152613cbb8282613932565b9150506060830151613cd06060860182613fcc565b506080830151613ce36080860182613fcc565b5060a0830151613cf660a0860182613fcc565b508091505092915050565b600061018083016000830151613d1a6000860182613fcc565b5060208301518482036020860152613d328282613932565b9150506040830151613d476040860182613fcc565b5060608301518482036060860152613d5f8282613932565b91505060808301518482036080860152613d798282613932565b91505060a083015184820360a0860152613d938282613932565b91505060c0830151613da860c086018261381b565b5060e083015184820360e0860152613dc08282613932565b915050610100830151848203610100860152613ddc8282613932565b915050610120830151613df3610120860182613fcc565b50610140830151613e08610140860182613fcc565b50610160830151613e1d610160860182613fcc565b508091505092915050565b600061018083016000830151613e416000860182613fcc565b5060208301518482036020860152613e598282613932565b9150506040830151613e6e6040860182613fcc565b5060608301518482036060860152613e868282613932565b91505060808301518482036080860152613ea08282613932565b91505060a083015184820360a0860152613eba8282613932565b91505060c0830151613ecf60c086018261381b565b5060e083015184820360e0860152613ee78282613932565b915050610100830151848203610100860152613f038282613932565b915050610120830151613f1a610120860182613fcc565b50610140830151613f2f610140860182613fcc565b50610160830151613f44610160860182613fcc565b508091505092915050565b600060a083016000830151613f67600086018261381b565b5060208301518482036020860152613f7f8282613d01565b9150506040830151613f946040860182613fcc565b506060830151613fa76060860182613fcc565b5060808301518482036080860152613fbf8282613932565b9150508091505092915050565b613fd5816146db565b82525050565b613fe4816146db565b82525050565b6000613ff682846139a4565b915081905092915050565b600061400d8284613a55565b915081905092915050565b600060208201905061402d600083018461382a565b92915050565b600060a082019050614048600083018861382a565b818103602083015261405a8187613e28565b90506140696040830186613fdb565b6140766060830185613fdb565b8181036080830152614088818461396b565b90509695505050505050565b6000610100820190506140aa600083018a61382a565b6140b76020830189613fdb565b81810360408301526140c9818861396b565b905081810360608301526140dc81613b1a565b905081810360808301526140f0818761396b565b905081810360a0830152614104818661396b565b905061411360c0830185613fdb565b81810360e0830152614125818461396b565b905098975050505050505050565b600060c082019050614148600083018961382a565b6141556020830188613fdb565b8181036040830152614167818761396b565b90506141766060830186613fdb565b6141836080830185613fdb565b61419060a0830184613fdb565b979650505050505050565b60006060820190506141b0600083018661382a565b6141bd6020830185613fdb565b6141ca6040830184613fdb565b949350505050565b600060208201905081810360008301526141ec8184613839565b905092915050565b6000602082019050818103600083015261420e81846138ae565b905092915050565b600060208201905061422b6000830184613923565b92915050565b6000608082019050818103600083015261424b818761396b565b9050818103602083015261425f818661396b565b90508181036040830152614273818561396b565b90508181036060830152614287818461396b565b905095945050505050565b600060408201905081810360008301526142ac818461396b565b905081810360208301526142bf81613c32565b905092915050565b600060608201905081810360008301526142e181866139d5565b90506142f0602083018561382a565b818103604083015261430281846139d5565b9050949350505050565b6000602082019050818103600083015261432581613ad4565b9050919050565b6000604082019050818103600083015261434581613af7565b9050614354602083018461382a565b92915050565b6000602082019050818103600083015261437381613b3d565b9050919050565b6000604082019050818103600083015261439381613b60565b90506143a2602083018461382a565b92915050565b600060208201905081810360008301526143c181613b83565b9050919050565b600060208201905081810360008301526143e181613ba6565b9050919050565b6000602082019050818103600083015261440181613bc9565b9050919050565b6000602082019050818103600083015261442181613bec565b9050919050565b6000604082019050818103600083015261444181613c0f565b9050614450602083018461382a565b92915050565b6000604082019050818103600083015261446f81613c55565b905061447e602083018461382a565b92915050565b600061448e61449f565b905061449a828261477d565b919050565b6000604051905090565b600067ffffffffffffffff8211156144c4576144c3614855565b5b602082029050602081019050919050565b600067ffffffffffffffff8211156144f0576144ef614855565b5b6144f982614884565b9050602081019050919050565b6000819050602082019050919050565b6000819050602082019050919050565b60008190508160005260206000209050919050565b600081519050919050565b600081519050919050565b600081519050919050565b6000602082019050919050565b6000602082019050919050565b600082825260208201905092915050565b600082825260208201905092915050565b600082825260208201905092915050565b600082825260208201905092915050565b600081905092915050565b60006145d0826146db565b91506145db836146db565b9250827fffffffffffffffffffffffffffffffffffffffffffffffffffffffffffffffff038211156146105761460f6147f7565b5b828201905092915050565b6000614626826146db565b9150614631836146db565b9250817fffffffffffffffffffffffffffffffffffffffffffffffffffffffffffffffff048311821515161561466a576146696147f7565b5b828202905092915050565b6000614680826146db565b915061468b836146db565b92508282101561469e5761469d6147f7565b5b828203905092915050565b60006146b4826146bb565b9050919050565b600073ffffffffffffffffffffffffffffffffffffffff82169050919050565b6000819050919050565b60006146f0826146f7565b9050919050565b6000614702826146bb565b9050919050565b82818337600083830152505050565b60005b8381101561473657808201518184015260208101905061471b565b83811115614745576000848401525b50505050565b6000600282049050600182168061476357607f821691505b6020821081141561477757614776614826565b5b50919050565b61478682614884565b810181811067ffffffffffffffff821117156147a5576147a4614855565b5b80604052505050565b60006147b9826146db565b91507fffffffffffffffffffffffffffffffffffffffffffffffffffffffffffffffff8214156147ec576147eb6147f7565b5b600182019050919050565b7f4e487b7100000000000000000000000000000000000000000000000000000000600052601160045260246000fd5b7f4e487b7100000000000000000000000000000000000000000000000000000000600052602260045260246000fd5b7f4e487b7100000000000000000000000000000000000000000000000000000000600052604160045260246000fd5b6000601f19601f8301169050919050565b7f5175616e74697479206d7573742062652067726561746572207468616e203000600082015250565b7f496e636f72726563742070617373776f72640000000000000000000000000000600082015250565b7f70656e64696e672064656c697665727900000000000000000000000000000000600082015250565b7f496e76616c6964206361727420696e6465780000000000000000000000000000600082015250565b7f456d61696c206e6f7420666f756e640000000000000000000000000000000000600082015250565b7f496e76616c69642070726f647563740000000000000000000000000000000000600082015250565b7f4361727420697320656d70747900000000000000000000000000000000000000600082015250565b7f496e76616c696420646174612070726f766964656420666f72207369676e7570600082015250565b7f496e76616c696420646174612070726f766964656420666f72206c6f67696e00600082015250565b7f456d61696c20616c726561647920696e207573652e20506c656173652075736560008201527f206120646966666572656e7420656d61696c2e00000000000000000000000000602082015250565b7f5369676e7570207375636365737366756c000000000000000000000000000000600082015250565b7f5573657220776974682074686973204d6574614d61736b20494420616c72656160008201527f6479206578697374732e20506c6561736520757365207468652065786973746960208201527f6e67206163636f756e74206f72207570646174652064657461696c732e000000604082015250565b614afc816146a9565b8114614b0757600080fd5b50565b614b13816146db565b8114614b1e57600080fd5b5056fea26469706673582212203f664a998c1c70c2be43099d1505c3caf339035491d43c863ae637a55b28e07364736f6c63430008020033",
  "immutableReferences": {},
  "source": "// SPDX-License-Identifier: MIT\r\npragma solidity ^0.8.2;\r\n\r\nimport \"./FarmerOperationsManagement.sol\";\r\nimport \"./BuyerSignupLoginContract.sol\";\r\n\r\ncontract BuyerOperationsManagement is BuyerSignupLoginContract {\r\n    FarmerOperationsManagement public farmerContract;\r\n\r\n    struct CartItem {\r\n        address farmerAddress;\r\n        uint productId;\r\n        string imgurl;\r\n        uint quantity;\r\n        uint price;\r\n        uint totalprice;\r\n    }\r\n\r\n    struct PurchasedProduct {\r\n        address farmerAddress;\r\n        FarmerOperationsManagement.Product productDetails;\r\n        uint quantity;\r\n        uint totalprice;\r\n        string productImageUrl; // Include product image URL in purchase details\r\n    }\r\n\r\n    mapping(address => CartItem[]) public buyerCart;\r\n    mapping(address => PurchasedProduct[]) public buyerPurchaseHistory;\r\n\r\n    constructor(address farmerContractAddress) {\r\n        farmerContract = FarmerOperationsManagement(farmerContractAddress);\r\n    }\r\n\r\n    // Add items to cart\r\n    function addToCart(\r\n        address farmerAddress,\r\n        uint productId,\r\n        string memory imgurl,\r\n        uint quantity,\r\n        uint price\r\n    ) public {\r\n        require(\r\n            productId < farmerContract.getFarmerProducts(farmerAddress).length,\r\n            \"Invalid product\"\r\n        );\r\n        require(quantity > 0, \"Quantity must be greater than 0\");\r\n\r\n        CartItem[] storage cart = buyerCart[msg.sender];\r\n\r\n        for (uint i = 0; i < cart.length; i++) {\r\n            if (\r\n                cart[i].productId == productId &&\r\n                cart[i].farmerAddress == farmerAddress\r\n            ) {\r\n                cart[i].quantity += quantity;\r\n                cart[i].totalprice += price * quantity;\r\n                return;\r\n            }\r\n        }\r\n\r\n        cart.push(\r\n            CartItem({\r\n                farmerAddress: farmerAddress,\r\n                productId: productId,\r\n                imgurl: imgurl,\r\n                quantity: quantity,\r\n                price: price,\r\n                totalprice: price * quantity\r\n            })\r\n        );\r\n    }\r\n\r\n    // Remove item from cart\r\n    function removeFromCart(uint index) public {\r\n        require(index < buyerCart[msg.sender].length, \"Invalid cart index\");\r\n\r\n        CartItem[] storage cart = buyerCart[msg.sender];\r\n        cart[index] = cart[cart.length - 1];\r\n        cart.pop();\r\n    }\r\n\r\n    // Get all cart items\r\n    function getMyCartItems() public view returns (CartItem[] memory) {\r\n        return buyerCart[msg.sender];\r\n    }\r\n\r\n    // Purchase all cart items\r\n    function purchaseCart(\r\n        string memory buyerName,\r\n        string memory userAddress,\r\n        string memory userPhoneNo\r\n    ) public {\r\n        CartItem[] storage cart = buyerCart[msg.sender];\r\n        require(cart.length > 0, \"Cart is empty\");\r\n\r\n        for (uint i = 0; i < cart.length; i++) {\r\n            CartItem memory item = cart[i];\r\n\r\n            // Retrieve the product details from the FarmerOperationsManagement contract\r\n            FarmerOperationsManagement.Product memory product = farmerContract\r\n                .getFarmerProducts(item.farmerAddress)[item.productId];\r\n\r\n            // Update the total purchase amount for the product\r\n            farmerContract.updateTotalPurchaseAmount(\r\n                item.farmerAddress,\r\n                item.productId,\r\n                item.totalprice\r\n            );\r\n\r\n            // Add to purchase history\r\n            buyerPurchaseHistory[msg.sender].push(\r\n                PurchasedProduct({\r\n                    farmerAddress: item.farmerAddress,\r\n                    productDetails: product,\r\n                    quantity: item.quantity,\r\n                    totalprice: item.totalprice,\r\n                    productImageUrl: item.imgurl // Set the image URL in the purchase history\r\n                })\r\n            );\r\n\r\n            // Add purchase to farmer's records\r\n            farmerContract.addPurchase(\r\n                item.farmerAddress,\r\n                item.productId,\r\n                buyerName,\r\n                \"pending delivery\",\r\n                userAddress,\r\n                userPhoneNo,\r\n                item.productId,\r\n                item.imgurl // Include product image URL in the purchase record\r\n            );\r\n        }\r\n\r\n        // Clear cart after purchase\r\n        delete buyerCart[msg.sender];\r\n    }\r\n\r\n    // Purchase a single product\r\n    function purchaseSingleProduct(\r\n        uint index,\r\n        string memory buyerName,\r\n        string memory userAddress,\r\n        string memory userPhoneNo,\r\n        uint productid\r\n    ) public {\r\n        require(index < buyerCart[msg.sender].length, \"Invalid cart index\");\r\n\r\n        CartItem[] storage cart = buyerCart[msg.sender];\r\n        CartItem memory item = cart[index];\r\n\r\n        // Retrieve the product details from the FarmerOperationsManagement contract\r\n        FarmerOperationsManagement.Product memory product = farmerContract\r\n            .getFarmerProducts(item.farmerAddress)[item.productId];\r\n\r\n        // Update the total purchase amount for the product\r\n        farmerContract.updateTotalPurchaseAmount(\r\n            item.farmerAddress,\r\n            item.productId,\r\n            item.totalprice\r\n        );\r\n\r\n        // Add to purchase history\r\n        buyerPurchaseHistory[msg.sender].push(\r\n            PurchasedProduct({\r\n                farmerAddress: item.farmerAddress,\r\n                productDetails: product,\r\n                quantity: item.quantity,\r\n                totalprice: item.totalprice,\r\n                productImageUrl: item.imgurl // Set the image URL in the purchase history\r\n            })\r\n        );\r\n\r\n        // Add purchase to farmer's records\r\n        farmerContract.addPurchase(\r\n            item.farmerAddress,\r\n            item.productId,\r\n            buyerName,\r\n            \"pending delivery\",\r\n            userAddress,\r\n            userPhoneNo,\r\n            productid,\r\n            item.imgurl // Include product image URL in the purchase record\r\n        );\r\n\r\n        // Remove the purchased item from the cart\r\n        cart[index] = cart[cart.length - 1];\r\n        cart.pop();\r\n    }\r\n\r\n    // Get buyer's purchase history\r\n    function getPurchaseHistory()\r\n        public\r\n        view\r\n        returns (PurchasedProduct[] memory)\r\n    {\r\n        return buyerPurchaseHistory[msg.sender];\r\n    }\r\n}\r\n",
  "sourcePath": "C:\\webdevelopment\\marketplace\\buyfresh\\smartcontracts\\contracts\\BuyerOperationsManagement.sol",
  "compiler": {
    "name": "solc",
    "version": "0.8.2+commit.661d1103.Emscripten.clang"
  },
  "schemaVersion": "3.4.16",
  "updatedAt": "2024-12-04T13:58:05.102Z",
  "networkType": "ethereum",
  "devdoc": {
    "kind": "dev",
    "methods": {},
    "version": 1
  },
  "userdoc": {
    "kind": "user",
    "methods": {},
    "version": 1
  }
}