{
  "contractName": "FarmerOperationsManagement",
  "abi": [
    {
      "anonymous": false,
      "inputs": [
        {
          "indexed": false,
          "internalType": "string",
          "name": "reason",
          "type": "string"
        },
        {
          "indexed": false,
          "internalType": "address",
          "name": "userAddress",
          "type": "address"
        }
      ],
      "name": "LoginFailed",
      "type": "event"
    },
    {
      "anonymous": false,
      "inputs": [
        {
          "indexed": false,
          "internalType": "string",
          "name": "buyerName",
          "type": "string"
        },
        {
          "indexed": false,
          "internalType": "address",
          "name": "userAddress",
          "type": "address"
        },
        {
          "indexed": false,
          "internalType": "string",
          "name": "phone",
          "type": "string"
        }
      ],
      "name": "LoginSuccessful",
      "type": "event"
    },
    {
      "anonymous": false,
      "inputs": [
        {
          "indexed": true,
          "internalType": "address",
          "name": "farmer",
          "type": "address"
        },
        {
          "indexed": false,
          "internalType": "uint256",
          "name": "productId",
          "type": "uint256"
        },
        {
          "indexed": false,
          "internalType": "address",
          "name": "buyer",
          "type": "address"
        }
      ],
      "name": "OrderReceived",
      "type": "event"
    },
    {
      "anonymous": false,
      "inputs": [
        {
          "indexed": true,
          "internalType": "address",
          "name": "farmer",
          "type": "address"
        },
        {
          "indexed": false,
          "internalType": "uint256",
          "name": "productId",
          "type": "uint256"
        },
        {
          "indexed": false,
          "internalType": "string",
          "name": "productName",
          "type": "string"
        }
      ],
      "name": "ProductAdded",
      "type": "event"
    },
    {
      "anonymous": false,
      "inputs": [
        {
          "indexed": false,
          "internalType": "string",
          "name": "reason",
          "type": "string"
        },
        {
          "indexed": false,
          "internalType": "address",
          "name": "userAddress",
          "type": "address"
        }
      ],
      "name": "SignupFailed",
      "type": "event"
    },
    {
      "anonymous": false,
      "inputs": [
        {
          "indexed": false,
          "internalType": "string",
          "name": "farmerName",
          "type": "string"
        },
        {
          "indexed": false,
          "internalType": "string",
          "name": "message",
          "type": "string"
        }
      ],
      "name": "SignupSuccessful",
      "type": "event"
    },
    {
      "inputs": [
        {
          "internalType": "string",
          "name": "_email",
          "type": "string"
        },
        {
          "internalType": "string",
          "name": "_password",
          "type": "string"
        }
      ],
      "name": "FarmerLogin",
      "outputs": [],
      "stateMutability": "nonpayable",
      "type": "function"
    },
    {
      "inputs": [
        {
          "internalType": "address",
          "name": "",
          "type": "address"
        }
      ],
      "name": "FarmerLoginSignup",
      "outputs": [
        {
          "internalType": "string",
          "name": "name",
          "type": "string"
        },
        {
          "internalType": "string",
          "name": "email",
          "type": "string"
        },
        {
          "internalType": "string",
          "name": "number",
          "type": "string"
        },
        {
          "internalType": "string",
          "name": "password",
          "type": "string"
        }
      ],
      "stateMutability": "view",
      "type": "function",
      "constant": true
    },
    {
      "inputs": [
        {
          "internalType": "uint256",
          "name": "",
          "type": "uint256"
        }
      ],
      "name": "allListedProducts",
      "outputs": [
        {
          "internalType": "uint256",
          "name": "productId",
          "type": "uint256"
        },
        {
          "internalType": "string",
          "name": "productName",
          "type": "string"
        },
        {
          "internalType": "uint256",
          "name": "productPrice",
          "type": "uint256"
        },
        {
          "internalType": "string",
          "name": "description",
          "type": "string"
        },
        {
          "internalType": "string",
          "name": "productType",
          "type": "string"
        },
        {
          "internalType": "string",
          "name": "productImageUrl",
          "type": "string"
        },
        {
          "internalType": "address",
          "name": "creator",
          "type": "address"
        },
        {
          "internalType": "string",
          "name": "productPackedDate",
          "type": "string"
        },
        {
          "internalType": "string",
          "name": "productExpire",
          "type": "string"
        },
        {
          "internalType": "uint256",
          "name": "ratingsCount",
          "type": "uint256"
        },
        {
          "internalType": "uint256",
          "name": "averageRating",
          "type": "uint256"
        },
        {
          "internalType": "uint256",
          "name": "totalpurchaseamount",
          "type": "uint256"
        }
      ],
      "stateMutability": "view",
      "type": "function",
      "constant": true
    },
    {
      "inputs": [
        {
          "internalType": "address",
          "name": "",
          "type": "address"
        },
        {
          "internalType": "uint256",
          "name": "",
          "type": "uint256"
        },
        {
          "internalType": "uint256",
          "name": "",
          "type": "uint256"
        }
      ],
      "name": "farmerProductPurchases",
      "outputs": [
        {
          "internalType": "string",
          "name": "buyerName",
          "type": "string"
        },
        {
          "internalType": "address",
          "name": "buyerAddress",
          "type": "address"
        },
        {
          "internalType": "string",
          "name": "userPhoneNo",
          "type": "string"
        },
        {
          "internalType": "string",
          "name": "status",
          "type": "string"
        },
        {
          "internalType": "string",
          "name": "userAddress",
          "type": "string"
        },
        {
          "internalType": "uint256",
          "name": "productid",
          "type": "uint256"
        },
        {
          "internalType": "uint256",
          "name": "orderid",
          "type": "uint256"
        },
        {
          "internalType": "string",
          "name": "productImageUrl",
          "type": "string"
        }
      ],
      "stateMutability": "view",
      "type": "function",
      "constant": true
    },
    {
      "inputs": [
        {
          "internalType": "address",
          "name": "",
          "type": "address"
        },
        {
          "internalType": "uint256",
          "name": "",
          "type": "uint256"
        }
      ],
      "name": "farmerProducts",
      "outputs": [
        {
          "internalType": "uint256",
          "name": "productId",
          "type": "uint256"
        },
        {
          "internalType": "string",
          "name": "productName",
          "type": "string"
        },
        {
          "internalType": "uint256",
          "name": "productPrice",
          "type": "uint256"
        },
        {
          "internalType": "string",
          "name": "description",
          "type": "string"
        },
        {
          "internalType": "string",
          "name": "productType",
          "type": "string"
        },
        {
          "internalType": "string",
          "name": "productImageUrl",
          "type": "string"
        },
        {
          "internalType": "address",
          "name": "creator",
          "type": "address"
        },
        {
          "internalType": "string",
          "name": "productPackedDate",
          "type": "string"
        },
        {
          "internalType": "string",
          "name": "productExpire",
          "type": "string"
        },
        {
          "internalType": "uint256",
          "name": "ratingsCount",
          "type": "uint256"
        },
        {
          "internalType": "uint256",
          "name": "averageRating",
          "type": "uint256"
        },
        {
          "internalType": "uint256",
          "name": "totalpurchaseamount",
          "type": "uint256"
        }
      ],
      "stateMutability": "view",
      "type": "function",
      "constant": true
    },
    {
      "inputs": [
        {
          "internalType": "string",
          "name": "_name",
          "type": "string"
        },
        {
          "internalType": "string",
          "name": "_email",
          "type": "string"
        },
        {
          "internalType": "string",
          "name": "_number",
          "type": "string"
        },
        {
          "internalType": "string",
          "name": "_password",
          "type": "string"
        }
      ],
      "name": "farmerSignup",
      "outputs": [],
      "stateMutability": "nonpayable",
      "type": "function"
    },
    {
      "inputs": [
        {
          "internalType": "uint256",
          "name": "",
          "type": "uint256"
        }
      ],
      "name": "registeredFarmers",
      "outputs": [
        {
          "internalType": "address",
          "name": "",
          "type": "address"
        }
      ],
      "stateMutability": "view",
      "type": "function",
      "constant": true
    },
    {
      "inputs": [
        {
          "internalType": "string",
          "name": "_productName",
          "type": "string"
        },
        {
          "internalType": "uint256",
          "name": "_productPrice",
          "type": "uint256"
        },
        {
          "internalType": "string",
          "name": "_description",
          "type": "string"
        },
        {
          "internalType": "string",
          "name": "_productType",
          "type": "string"
        },
        {
          "internalType": "string",
          "name": "_productImageUrl",
          "type": "string"
        },
        {
          "internalType": "string",
          "name": "_productPackedDate",
          "type": "string"
        },
        {
          "internalType": "string",
          "name": "_productExpire",
          "type": "string"
        }
      ],
      "name": "addProduct",
      "outputs": [],
      "stateMutability": "nonpayable",
      "type": "function"
    },
    {
      "inputs": [
        {
          "internalType": "address",
          "name": "_farmerAddress",
          "type": "address"
        },
        {
          "internalType": "uint256",
          "name": "_productId",
          "type": "uint256"
        },
        {
          "internalType": "uint256",
          "name": "_amount",
          "type": "uint256"
        }
      ],
      "name": "updateTotalPurchaseAmount",
      "outputs": [],
      "stateMutability": "nonpayable",
      "type": "function"
    },
    {
      "inputs": [
        {
          "internalType": "address",
          "name": "_farmerAddress",
          "type": "address"
        },
        {
          "internalType": "uint256",
          "name": "_productId",
          "type": "uint256"
        },
        {
          "internalType": "string",
          "name": "_buyerName",
          "type": "string"
        },
        {
          "internalType": "string",
          "name": "_status",
          "type": "string"
        },
        {
          "internalType": "string",
          "name": "_userAddress",
          "type": "string"
        },
        {
          "internalType": "string",
          "name": "_userPhoneNo",
          "type": "string"
        },
        {
          "internalType": "uint256",
          "name": "productid",
          "type": "uint256"
        },
        {
          "internalType": "string",
          "name": "_productImageUrl",
          "type": "string"
        }
      ],
      "name": "addPurchase",
      "outputs": [],
      "stateMutability": "nonpayable",
      "type": "function"
    },
    {
      "inputs": [
        {
          "internalType": "address",
          "name": "_farmerAddress",
          "type": "address"
        }
      ],
      "name": "getFarmerProducts",
      "outputs": [
        {
          "components": [
            {
              "internalType": "uint256",
              "name": "productId",
              "type": "uint256"
            },
            {
              "internalType": "string",
              "name": "productName",
              "type": "string"
            },
            {
              "internalType": "uint256",
              "name": "productPrice",
              "type": "uint256"
            },
            {
              "internalType": "string",
              "name": "description",
              "type": "string"
            },
            {
              "internalType": "string",
              "name": "productType",
              "type": "string"
            },
            {
              "internalType": "string",
              "name": "productImageUrl",
              "type": "string"
            },
            {
              "internalType": "address",
              "name": "creator",
              "type": "address"
            },
            {
              "internalType": "string",
              "name": "productPackedDate",
              "type": "string"
            },
            {
              "internalType": "string",
              "name": "productExpire",
              "type": "string"
            },
            {
              "internalType": "uint256",
              "name": "ratingsCount",
              "type": "uint256"
            },
            {
              "internalType": "uint256",
              "name": "averageRating",
              "type": "uint256"
            },
            {
              "internalType": "uint256",
              "name": "totalpurchaseamount",
              "type": "uint256"
            }
          ],
          "internalType": "struct FarmerOperationsManagement.Product[]",
          "name": "",
          "type": "tuple[]"
        }
      ],
      "stateMutability": "view",
      "type": "function",
      "constant": true
    },
    {
      "inputs": [],
      "name": "getAllFarmers",
      "outputs": [
        {
          "internalType": "address[]",
          "name": "",
          "type": "address[]"
        }
      ],
      "stateMutability": "view",
      "type": "function",
      "constant": true
    },
    {
      "inputs": [],
      "name": "getMyProducts",
      "outputs": [
        {
          "components": [
            {
              "internalType": "uint256",
              "name": "productId",
              "type": "uint256"
            },
            {
              "internalType": "string",
              "name": "productName",
              "type": "string"
            },
            {
              "internalType": "uint256",
              "name": "productPrice",
              "type": "uint256"
            },
            {
              "internalType": "string",
              "name": "description",
              "type": "string"
            },
            {
              "internalType": "string",
              "name": "productType",
              "type": "string"
            },
            {
              "internalType": "string",
              "name": "productImageUrl",
              "type": "string"
            },
            {
              "internalType": "address",
              "name": "creator",
              "type": "address"
            },
            {
              "internalType": "string",
              "name": "productPackedDate",
              "type": "string"
            },
            {
              "internalType": "string",
              "name": "productExpire",
              "type": "string"
            },
            {
              "internalType": "uint256",
              "name": "ratingsCount",
              "type": "uint256"
            },
            {
              "internalType": "uint256",
              "name": "averageRating",
              "type": "uint256"
            },
            {
              "internalType": "uint256",
              "name": "totalpurchaseamount",
              "type": "uint256"
            }
          ],
          "internalType": "struct FarmerOperationsManagement.Product[]",
          "name": "",
          "type": "tuple[]"
        }
      ],
      "stateMutability": "view",
      "type": "function",
      "constant": true
    },
    {
      "inputs": [],
      "name": "getMyProductOrders",
      "outputs": [
        {
          "components": [
            {
              "internalType": "string",
              "name": "buyerName",
              "type": "string"
            },
            {
              "internalType": "address",
              "name": "buyerAddress",
              "type": "address"
            },
            {
              "internalType": "string",
              "name": "userPhoneNo",
              "type": "string"
            },
            {
              "internalType": "string",
              "name": "status",
              "type": "string"
            },
            {
              "internalType": "string",
              "name": "userAddress",
              "type": "string"
            },
            {
              "internalType": "uint256",
              "name": "productid",
              "type": "uint256"
            },
            {
              "internalType": "uint256",
              "name": "orderid",
              "type": "uint256"
            },
            {
              "internalType": "string",
              "name": "productImageUrl",
              "type": "string"
            }
          ],
          "internalType": "struct FarmerOperationsManagement.ProductPurchase[]",
          "name": "",
          "type": "tuple[]"
        }
      ],
      "stateMutability": "view",
      "type": "function",
      "constant": true
    },
    {
      "inputs": [],
      "name": "getAllListedProducts",
      "outputs": [
        {
          "components": [
            {
              "internalType": "uint256",
              "name": "productId",
              "type": "uint256"
            },
            {
              "internalType": "string",
              "name": "productName",
              "type": "string"
            },
            {
              "internalType": "uint256",
              "name": "productPrice",
              "type": "uint256"
            },
            {
              "internalType": "string",
              "name": "description",
              "type": "string"
            },
            {
              "internalType": "string",
              "name": "productType",
              "type": "string"
            },
            {
              "internalType": "string",
              "name": "productImageUrl",
              "type": "string"
            },
            {
              "internalType": "address",
              "name": "creator",
              "type": "address"
            },
            {
              "internalType": "string",
              "name": "productPackedDate",
              "type": "string"
            },
            {
              "internalType": "string",
              "name": "productExpire",
              "type": "string"
            },
            {
              "internalType": "uint256",
              "name": "ratingsCount",
              "type": "uint256"
            },
            {
              "internalType": "uint256",
              "name": "averageRating",
              "type": "uint256"
            },
            {
              "internalType": "uint256",
              "name": "totalpurchaseamount",
              "type": "uint256"
            }
          ],
          "internalType": "struct FarmerOperationsManagement.Product[]",
          "name": "",
          "type": "tuple[]"
        }
      ],
      "stateMutability": "view",
      "type": "function",
      "constant": true
    },
    {
      "inputs": [
        {
          "internalType": "address",
          "name": "_farmerAddress",
          "type": "address"
        },
        {
          "internalType": "uint256",
          "name": "_productId",
          "type": "uint256"
        }
      ],
      "name": "getPurchaseDetails",
      "outputs": [
        {
          "components": [
            {
              "internalType": "string",
              "name": "buyerName",
              "type": "string"
            },
            {
              "internalType": "address",
              "name": "buyerAddress",
              "type": "address"
            },
            {
              "internalType": "string",
              "name": "userPhoneNo",
              "type": "string"
            },
            {
              "internalType": "string",
              "name": "status",
              "type": "string"
            },
            {
              "internalType": "string",
              "name": "userAddress",
              "type": "string"
            },
            {
              "internalType": "uint256",
              "name": "productid",
              "type": "uint256"
            },
            {
              "internalType": "uint256",
              "name": "orderid",
              "type": "uint256"
            },
            {
              "internalType": "string",
              "name": "productImageUrl",
              "type": "string"
            }
          ],
          "internalType": "struct FarmerOperationsManagement.ProductPurchase",
          "name": "",
          "type": "tuple"
        }
      ],
      "stateMutability": "view",
      "type": "function",
      "constant": true
    },
    {
      "inputs": [
        {
          "internalType": "uint256",
          "name": "_productId",
          "type": "uint256"
        },
        {
          "internalType": "uint256",
          "name": "_orderIndex",
          "type": "uint256"
        },
        {
          "internalType": "string",
          "name": "_status",
          "type": "string"
        }
      ],
      "name": "updateOrderStatus",
      "outputs": [],
      "stateMutability": "nonpayable",
      "type": "function"
    }
  ],
  "bytecode": "0x608060405234801561001057600080fd5b506157b680620000216000396000f3fe608060405234801561001057600080fd5b506004361061010b5760003560e01c80638e4f927e116100a2578063d66d5c6411610071578063d66d5c64146102d4578063e0adbccb146102f0578063e319bc731461032b578063fdca4ca314610347578063fece8772146103655761010b565b80638e4f927e1461023a57806393f45e3814610256578063a5967b4b14610274578063c322937e146102a45761010b565b80631fe52d34116100de5780631fe52d34146101ad5780635234434c146101e4578063536954e41461020057806357769f141461021e5761010b565b806304abe1bf1461011057806307c3e59b146101435780630a5cf0421461016157806311b5a9a014610191575b600080fd5b61012a60048036038101906101259190613e27565b6103a0565b60405161013a9493929190614c89565b60405180910390f35b61014b6105f0565b6040516101589190614ba4565b60405180910390f35b61017b60048036038101906101769190613e27565b610c41565b6040516101889190614bc6565b60405180910390f35b6101ab60048036038101906101a69190614005565b6110d4565b005b6101c760048036038101906101c29190613fb6565b611383565b6040516101db989796959493929190614be8565b60405180910390f35b6101fe60048036038101906101f9919061428b565b6116bd565b005b610208611891565b6040516102159190614b82565b60405180910390f35b61023860048036038101906102339190614071565b61191f565b005b610254600480360381019061024f9190613e8c565b611c00565b005b61025e611eee565b60405161026b9190614bc6565b60405180910390f35b61028e60048036038101906102899190614262565b612342565b60405161029b9190614b67565b60405180910390f35b6102be60048036038101906102b99190613e50565b612381565b6040516102cb9190614f3c565b60405180910390f35b6102ee60048036038101906102e99190613fb6565b61289b565b005b61030a60048036038101906103059190614262565b612b43565b6040516103229c9b9a99989796959493929190614fb7565b60405180910390f35b61034560048036038101906103409190614134565b612f03565b005b61034f613439565b60405161035c9190614bc6565b60405180910390f35b61037f600480360381019061037a9190613e50565b6138ca565b6040516103979c9b9a99989796959493929190614fb7565b60405180910390f35b60006020528060005260406000206000915090508060000180546103c3906152bd565b80601f01602080910402602001604051908101604052809291908181526020018280546103ef906152bd565b801561043c5780601f106104115761010080835404028352916020019161043c565b820191906000526020600020905b81548152906001019060200180831161041f57829003601f168201915b505050505090806001018054610451906152bd565b80601f016020809104026020016040519081016040528092919081815260200182805461047d906152bd565b80156104ca5780601f1061049f576101008083540402835291602001916104ca565b820191906000526020600020905b8154815290600101906020018083116104ad57829003601f168201915b5050505050908060020180546104df906152bd565b80601f016020809104026020016040519081016040528092919081815260200182805461050b906152bd565b80156105585780601f1061052d57610100808354040283529160200191610558565b820191906000526020600020905b81548152906001019060200180831161053b57829003601f168201915b50505050509080600301805461056d906152bd565b80601f0160208091040260200160405190810160405280929190818152602001828054610599906152bd565b80156105e65780601f106105bb576101008083540402835291602001916105e6565b820191906000526020600020905b8154815290600101906020018083116105c957829003601f168201915b5050505050905084565b60606000805b600160003373ffffffffffffffffffffffffffffffffffffffff1673ffffffffffffffffffffffffffffffffffffffff168152602001908152602001600020805490508110156106b457600360003373ffffffffffffffffffffffffffffffffffffffff1673ffffffffffffffffffffffffffffffffffffffff1681526020019081526020016000206000828152602001908152602001600020805490508261069f91906151e9565b915080806106ac90615320565b9150506105f6565b5060008167ffffffffffffffff8111156106f7577f4e487b7100000000000000000000000000000000000000000000000000000000600052604160045260246000fd5b60405190808252806020026020018201604052801561073057816020015b61071d613c97565b8152602001906001900390816107155790505b5090506000805b600160003373ffffffffffffffffffffffffffffffffffffffff1673ffffffffffffffffffffffffffffffffffffffff16815260200190815260200160002080549050811015610c37576000600360003373ffffffffffffffffffffffffffffffffffffffff1673ffffffffffffffffffffffffffffffffffffffff1681526020019081526020016000206000838152602001908152602001600020805480602002602001604051908101604052809291908181526020016000905b82821015610b6a578382906000526020600020906008020160405180610100016040529081600082018054610827906152bd565b80601f0160208091040260200160405190810160405280929190818152602001828054610853906152bd565b80156108a05780601f10610875576101008083540402835291602001916108a0565b820191906000526020600020905b81548152906001019060200180831161088357829003601f168201915b505050505081526020016001820160009054906101000a900473ffffffffffffffffffffffffffffffffffffffff1673ffffffffffffffffffffffffffffffffffffffff1673ffffffffffffffffffffffffffffffffffffffff16815260200160028201805461090f906152bd565b80601f016020809104026020016040519081016040528092919081815260200182805461093b906152bd565b80156109885780601f1061095d57610100808354040283529160200191610988565b820191906000526020600020905b81548152906001019060200180831161096b57829003601f168201915b505050505081526020016003820180546109a1906152bd565b80601f01602080910402602001604051908101604052809291908181526020018280546109cd906152bd565b8015610a1a5780601f106109ef57610100808354040283529160200191610a1a565b820191906000526020600020905b8154815290600101906020018083116109fd57829003601f168201915b50505050508152602001600482018054610a33906152bd565b80601f0160208091040260200160405190810160405280929190818152602001828054610a5f906152bd565b8015610aac5780601f10610a8157610100808354040283529160200191610aac565b820191906000526020600020905b815481529060010190602001808311610a8f57829003601f168201915b505050505081526020016005820154815260200160068201548152602001600782018054610ad9906152bd565b80601f0160208091040260200160405190810160405280929190818152602001828054610b05906152bd565b8015610b525780601f10610b2757610100808354040283529160200191610b52565b820191906000526020600020905b815481529060010190602001808311610b3557829003601f168201915b505050505081525050815260200190600101906107f3565b50505050905060005b8151811015610c2257818181518110610bb5577f4e487b7100000000000000000000000000000000000000000000000000000000600052603260045260246000fd5b6020026020010151858581518110610bf6577f4e487b7100000000000000000000000000000000000000000000000000000000600052603260045260246000fd5b60200260200101819052508380610c0c90615320565b9450508080610c1a90615320565b915050610b73565b50508080610c2f90615320565b915050610737565b5081935050505090565b6060600160008373ffffffffffffffffffffffffffffffffffffffff1673ffffffffffffffffffffffffffffffffffffffff168152602001908152602001600020805480602002602001604051908101604052809291908181526020016000905b828210156110c957838290600052602060002090600c02016040518061018001604052908160008201548152602001600182018054610ce0906152bd565b80601f0160208091040260200160405190810160405280929190818152602001828054610d0c906152bd565b8015610d595780601f10610d2e57610100808354040283529160200191610d59565b820191906000526020600020905b815481529060010190602001808311610d3c57829003601f168201915b5050505050815260200160028201548152602001600382018054610d7c906152bd565b80601f0160208091040260200160405190810160405280929190818152602001828054610da8906152bd565b8015610df55780601f10610dca57610100808354040283529160200191610df5565b820191906000526020600020905b815481529060010190602001808311610dd857829003601f168201915b50505050508152602001600482018054610e0e906152bd565b80601f0160208091040260200160405190810160405280929190818152602001828054610e3a906152bd565b8015610e875780601f10610e5c57610100808354040283529160200191610e87565b820191906000526020600020905b815481529060010190602001808311610e6a57829003601f168201915b50505050508152602001600582018054610ea0906152bd565b80601f0160208091040260200160405190810160405280929190818152602001828054610ecc906152bd565b8015610f195780601f10610eee57610100808354040283529160200191610f19565b820191906000526020600020905b815481529060010190602001808311610efc57829003601f168201915b505050505081526020016006820160009054906101000a900473ffffffffffffffffffffffffffffffffffffffff1673ffffffffffffffffffffffffffffffffffffffff1673ffffffffffffffffffffffffffffffffffffffff168152602001600782018054610f88906152bd565b80601f0160208091040260200160405190810160405280929190818152602001828054610fb4906152bd565b80156110015780601f10610fd657610100808354040283529160200191611001565b820191906000526020600020905b815481529060010190602001808311610fe457829003601f168201915b5050505050815260200160088201805461101a906152bd565b80601f0160208091040260200160405190810160405280929190818152602001828054611046906152bd565b80156110935780601f1061106857610100808354040283529160200191611093565b820191906000526020600020905b81548152906001019060200180831161107657829003601f168201915b5050505050815260200160098201548152602001600a8201548152602001600b8201548152505081526020019060010190610ca2565b505050509050919050565b600082511180156110e6575060008151115b611125576040517f08c379a000000000000000000000000000000000000000000000000000000000815260040161111c90614ea0565b60405180910390fd5b816040516020016111369190614b24565b604051602081830303815290604052805190602001206000803373ffffffffffffffffffffffffffffffffffffffff1673ffffffffffffffffffffffffffffffffffffffff16815260200190815260200160002060010160405160200161119d9190614b3b565b60405160208183030381529060405280519060200120146111f4577f45226a63e1b6062c46dfcc14e36b2accef2bea558871ed870b1ffe52d2725aa4336040516111e79190614e12565b60405180910390a161137f565b806040516020016112059190614b24565b604051602081830303815290604052805190602001206000803373ffffffffffffffffffffffffffffffffffffffff1673ffffffffffffffffffffffffffffffffffffffff16815260200190815260200160002060030160405160200161126c9190614b3b565b60405160208183030381529060405280519060200120146112c3577f45226a63e1b6062c46dfcc14e36b2accef2bea558871ed870b1ffe52d2725aa4336040516112b69190614da4565b60405180910390a161137f565b7f8aefa4c5fda036fb5dafbd5aa48a24605bfc97d80118647259a33a3805ba08756000803373ffffffffffffffffffffffffffffffffffffffff1673ffffffffffffffffffffffffffffffffffffffff168152602001908152602001600020600001336000803373ffffffffffffffffffffffffffffffffffffffff1673ffffffffffffffffffffffffffffffffffffffff16815260200190815260200160002060020160405161137693929190614d1f565b60405180910390a15b5050565b600360205282600052604060002060205281600052604060002081815481106113ab57600080fd5b906000526020600020906008020160009250925050508060000180546113d0906152bd565b80601f01602080910402602001604051908101604052809291908181526020018280546113fc906152bd565b80156114495780601f1061141e57610100808354040283529160200191611449565b820191906000526020600020905b81548152906001019060200180831161142c57829003601f168201915b5050505050908060010160009054906101000a900473ffffffffffffffffffffffffffffffffffffffff1690806002018054611484906152bd565b80601f01602080910402602001604051908101604052809291908181526020018280546114b0906152bd565b80156114fd5780601f106114d2576101008083540402835291602001916114fd565b820191906000526020600020905b8154815290600101906020018083116114e057829003601f168201915b505050505090806003018054611512906152bd565b80601f016020809104026020016040519081016040528092919081815260200182805461153e906152bd565b801561158b5780601f106115605761010080835404028352916020019161158b565b820191906000526020600020905b81548152906001019060200180831161156e57829003601f168201915b5050505050908060040180546115a0906152bd565b80601f01602080910402602001604051908101604052809291908181526020018280546115cc906152bd565b80156116195780601f106115ee57610100808354040283529160200191611619565b820191906000526020600020905b8154815290600101906020018083116115fc57829003601f168201915b50505050509080600501549080600601549080600701805461163a906152bd565b80601f0160208091040260200160405190810160405280929190818152602001828054611666906152bd565b80156116b35780601f10611688576101008083540402835291602001916116b3565b820191906000526020600020905b81548152906001019060200180831161169657829003601f168201915b5050505050905088565b6040516020016116cc90614b52565b60405160208183030381529060405280519060200120816040516020016116f39190614b24565b6040516020818303038152906040528051906020012014611749576040517f08c379a000000000000000000000000000000000000000000000000000000000815260040161174090614e60565b60405180910390fd5b600360003373ffffffffffffffffffffffffffffffffffffffff1673ffffffffffffffffffffffffffffffffffffffff16815260200190815260200160002060008481526020019081526020016000208054905082106117de576040517f08c379a00000000000000000000000000000000000000000000000000000000081526004016117d590614dd2565b60405180910390fd5b80600360003373ffffffffffffffffffffffffffffffffffffffff1673ffffffffffffffffffffffffffffffffffffffff16815260200190815260200160002060008581526020019081526020016000208381548110611867577f4e487b7100000000000000000000000000000000000000000000000000000000600052603260045260246000fd5b9060005260206000209060080201600301908051906020019061188b929190613cf2565b50505050565b6060600480548060200260200160405190810160405280929190818152602001828054801561191557602002820191906000526020600020905b8160009054906101000a900473ffffffffffffffffffffffffffffffffffffffff1673ffffffffffffffffffffffffffffffffffffffff16815260200190600101908083116118cb575b5050505050905090565b60008451118015611931575060008351115b801561193e575060008151115b801561194b575060008251115b61198a576040517f08c379a000000000000000000000000000000000000000000000000000000000815260040161198190614e80565b60405180910390fd5b60008060003373ffffffffffffffffffffffffffffffffffffffff1673ffffffffffffffffffffffffffffffffffffffff16815260200190815260200160002060010180546119d8906152bd565b90501115611a1c577f676077b98b7c732823f8732b80c1f314bb346bb103066c56fe39e14e10b1c6d333604051611a0f9190614eee565b60405180910390a1611bfa565b82604051602001611a2d9190614b24565b604051602081830303815290604052805190602001206000803373ffffffffffffffffffffffffffffffffffffffff1673ffffffffffffffffffffffffffffffffffffffff168152602001908152602001600020600101604051602001611a949190614b3b565b604051602081830303815290604052805190602001201415611aec577f676077b98b7c732823f8732b80c1f314bb346bb103066c56fe39e14e10b1c6d333604051611adf9190614ec0565b60405180910390a1611bfa565b6040518060800160405280858152602001848152602001838152602001828152506000803373ffffffffffffffffffffffffffffffffffffffff1673ffffffffffffffffffffffffffffffffffffffff1681526020019081526020016000206000820151816000019080519060200190611b67929190613cf2565b506020820151816001019080519060200190611b84929190613cf2565b506040820151816002019080519060200190611ba1929190613cf2565b506060820151816003019080519060200190611bbe929190613cf2565b509050507f671413dac2eab969a56ef6b264d1d83db2d1a01f7290089347ff2d9491bf3e3784604051611bf19190614cea565b60405180910390a15b50505050565b600160008973ffffffffffffffffffffffffffffffffffffffff1673ffffffffffffffffffffffffffffffffffffffff168152602001908152602001600020805490508710611c84576040517f08c379a0000000000000000000000000000000000000000000000000000000008152600401611c7b90614df2565b60405180910390fd5b6000600360008a73ffffffffffffffffffffffffffffffffffffffff1673ffffffffffffffffffffffffffffffffffffffff1681526020019081526020016000206000898152602001908152602001600020805490509050600360008a73ffffffffffffffffffffffffffffffffffffffff1673ffffffffffffffffffffffffffffffffffffffff16815260200190815260200160002060008981526020019081526020016000206040518061010001604052808981526020013373ffffffffffffffffffffffffffffffffffffffff1681526020018681526020018881526020018781526020018581526020018381526020018481525090806001815401808255809150506001900390600052602060002090600802016000909190919091506000820151816000019080519060200190611dc1929190613cf2565b5060208201518160010160006101000a81548173ffffffffffffffffffffffffffffffffffffffff021916908373ffffffffffffffffffffffffffffffffffffffff1602179055506040820151816002019080519060200190611e25929190613cf2565b506060820151816003019080519060200190611e42929190613cf2565b506080820151816004019080519060200190611e5f929190613cf2565b5060a0820151816005015560c0820151816006015560e0820151816007019080519060200190611e90929190613cf2565b5050508873ffffffffffffffffffffffffffffffffffffffff167f35c8618c3f42b2ee87bf051f2884c538ed0d9cb0e0d54fd3037900c6a91579ca8933604051611edb929190614f5e565b60405180910390a2505050505050505050565b60606002805480602002602001604051908101604052809291908181526020016000905b8282101561233957838290600052602060002090600c02016040518061018001604052908160008201548152602001600182018054611f50906152bd565b80601f0160208091040260200160405190810160405280929190818152602001828054611f7c906152bd565b8015611fc95780601f10611f9e57610100808354040283529160200191611fc9565b820191906000526020600020905b815481529060010190602001808311611fac57829003601f168201915b5050505050815260200160028201548152602001600382018054611fec906152bd565b80601f0160208091040260200160405190810160405280929190818152602001828054612018906152bd565b80156120655780601f1061203a57610100808354040283529160200191612065565b820191906000526020600020905b81548152906001019060200180831161204857829003601f168201915b5050505050815260200160048201805461207e906152bd565b80601f01602080910402602001604051908101604052809291908181526020018280546120aa906152bd565b80156120f75780601f106120cc576101008083540402835291602001916120f7565b820191906000526020600020905b8154815290600101906020018083116120da57829003601f168201915b50505050508152602001600582018054612110906152bd565b80601f016020809104026020016040519081016040528092919081815260200182805461213c906152bd565b80156121895780601f1061215e57610100808354040283529160200191612189565b820191906000526020600020905b81548152906001019060200180831161216c57829003601f168201915b505050505081526020016006820160009054906101000a900473ffffffffffffffffffffffffffffffffffffffff1673ffffffffffffffffffffffffffffffffffffffff1673ffffffffffffffffffffffffffffffffffffffff1681526020016007820180546121f8906152bd565b80601f0160208091040260200160405190810160405280929190818152602001828054612224906152bd565b80156122715780601f1061224657610100808354040283529160200191612271565b820191906000526020600020905b81548152906001019060200180831161225457829003601f168201915b5050505050815260200160088201805461228a906152bd565b80601f01602080910402602001604051908101604052809291908181526020018280546122b6906152bd565b80156123035780601f106122d857610100808354040283529160200191612303565b820191906000526020600020905b8154815290600101906020018083116122e657829003601f168201915b5050505050815260200160098201548152602001600a8201548152602001600b8201548152505081526020019060010190611f12565b50505050905090565b6004818154811061235257600080fd5b906000526020600020016000915054906101000a900473ffffffffffffffffffffffffffffffffffffffff1681565b612389613c97565b6000600360008573ffffffffffffffffffffffffffffffffffffffff1673ffffffffffffffffffffffffffffffffffffffff1681526020019081526020016000206000848152602001908152602001600020805480602002602001604051908101604052809291908181526020016000905b8282101561277257838290600052602060002090600802016040518061010001604052908160008201805461242f906152bd565b80601f016020809104026020016040519081016040528092919081815260200182805461245b906152bd565b80156124a85780601f1061247d576101008083540402835291602001916124a8565b820191906000526020600020905b81548152906001019060200180831161248b57829003601f168201915b505050505081526020016001820160009054906101000a900473ffffffffffffffffffffffffffffffffffffffff1673ffffffffffffffffffffffffffffffffffffffff1673ffffffffffffffffffffffffffffffffffffffff168152602001600282018054612517906152bd565b80601f0160208091040260200160405190810160405280929190818152602001828054612543906152bd565b80156125905780601f1061256557610100808354040283529160200191612590565b820191906000526020600020905b81548152906001019060200180831161257357829003601f168201915b505050505081526020016003820180546125a9906152bd565b80601f01602080910402602001604051908101604052809291908181526020018280546125d5906152bd565b80156126225780601f106125f757610100808354040283529160200191612622565b820191906000526020600020905b81548152906001019060200180831161260557829003601f168201915b5050505050815260200160048201805461263b906152bd565b80601f0160208091040260200160405190810160405280929190818152602001828054612667906152bd565b80156126b45780601f10612689576101008083540402835291602001916126b4565b820191906000526020600020905b81548152906001019060200180831161269757829003601f168201915b5050505050815260200160058201548152602001600682015481526020016007820180546126e1906152bd565b80601f016020809104026020016040519081016040528092919081815260200182805461270d906152bd565b801561275a5780601f1061272f5761010080835404028352916020019161275a565b820191906000526020600020905b81548152906001019060200180831161273d57829003601f168201915b505050505081525050815260200190600101906123fb565b50505050905060005b8151811015612859573373ffffffffffffffffffffffffffffffffffffffff168282815181106127d4577f4e487b7100000000000000000000000000000000000000000000000000000000600052603260045260246000fd5b60200260200101516020015173ffffffffffffffffffffffffffffffffffffffff16141561284657818181518110612835577f4e487b7100000000000000000000000000000000000000000000000000000000600052603260045260246000fd5b602002602001015192505050612895565b808061285190615320565b91505061277b565b506040517f08c379a000000000000000000000000000000000000000000000000000000000815260040161288c90614e40565b60405180910390fd5b92915050565b600160008473ffffffffffffffffffffffffffffffffffffffff1673ffffffffffffffffffffffffffffffffffffffff16815260200190815260200160002080549050821061291f576040517f08c379a000000000000000000000000000000000000000000000000000000000815260040161291690614d64565b60405180910390fd5b80600160008573ffffffffffffffffffffffffffffffffffffffff1673ffffffffffffffffffffffffffffffffffffffff1681526020019081526020016000208381548110612997577f4e487b7100000000000000000000000000000000000000000000000000000000600052603260045260246000fd5b90600052602060002090600c0201600b0160008282546129b791906151e9565b9250508190555060005b600280549050811015612b3d578373ffffffffffffffffffffffffffffffffffffffff1660028281548110612a1f577f4e487b7100000000000000000000000000000000000000000000000000000000600052603260045260246000fd5b90600052602060002090600c020160060160009054906101000a900473ffffffffffffffffffffffffffffffffffffffff1673ffffffffffffffffffffffffffffffffffffffff16148015612abe57508260028281548110612aaa577f4e487b7100000000000000000000000000000000000000000000000000000000600052603260045260246000fd5b90600052602060002090600c020160000154145b15612b2a578160028281548110612afe577f4e487b7100000000000000000000000000000000000000000000000000000000600052603260045260246000fd5b90600052602060002090600c0201600b016000828254612b1e91906151e9565b92505081905550612b3d565b8080612b3590615320565b9150506129c1565b50505050565b60028181548110612b5357600080fd5b90600052602060002090600c0201600091509050806000015490806001018054612b7c906152bd565b80601f0160208091040260200160405190810160405280929190818152602001828054612ba8906152bd565b8015612bf55780601f10612bca57610100808354040283529160200191612bf5565b820191906000526020600020905b815481529060010190602001808311612bd857829003601f168201915b505050505090806002015490806003018054612c10906152bd565b80601f0160208091040260200160405190810160405280929190818152602001828054612c3c906152bd565b8015612c895780601f10612c5e57610100808354040283529160200191612c89565b820191906000526020600020905b815481529060010190602001808311612c6c57829003601f168201915b505050505090806004018054612c9e906152bd565b80601f0160208091040260200160405190810160405280929190818152602001828054612cca906152bd565b8015612d175780601f10612cec57610100808354040283529160200191612d17565b820191906000526020600020905b815481529060010190602001808311612cfa57829003601f168201915b505050505090806005018054612d2c906152bd565b80601f0160208091040260200160405190810160405280929190818152602001828054612d58906152bd565b8015612da55780601f10612d7a57610100808354040283529160200191612da5565b820191906000526020600020905b815481529060010190602001808311612d8857829003601f168201915b5050505050908060060160009054906101000a900473ffffffffffffffffffffffffffffffffffffffff1690806007018054612de0906152bd565b80601f0160208091040260200160405190810160405280929190818152602001828054612e0c906152bd565b8015612e595780601f10612e2e57610100808354040283529160200191612e59565b820191906000526020600020905b815481529060010190602001808311612e3c57829003601f168201915b505050505090806008018054612e6e906152bd565b80601f0160208091040260200160405190810160405280929190818152602001828054612e9a906152bd565b8015612ee75780601f10612ebc57610100808354040283529160200191612ee7565b820191906000526020600020905b815481529060010190602001808311612eca57829003601f168201915b50505050509080600901549080600a01549080600b015490508c565b6000875111612f47576040517f08c379a0000000000000000000000000000000000000000000000000000000008152600401612f3e90614d84565b60405180910390fd5b60008611612f8a576040517f08c379a0000000000000000000000000000000000000000000000000000000008152600401612f8190614f1c565b60405180910390fd5b6000600160003373ffffffffffffffffffffffffffffffffffffffff1673ffffffffffffffffffffffffffffffffffffffff168152602001908152602001600020805490501415613039576004339080600181540180825580915050600190039060005260206000200160009091909190916101000a81548173ffffffffffffffffffffffffffffffffffffffff021916908373ffffffffffffffffffffffffffffffffffffffff1602179055505b6000600160003373ffffffffffffffffffffffffffffffffffffffff1673ffffffffffffffffffffffffffffffffffffffff16815260200190815260200160002080549050905060006040518061018001604052808381526020018a81526020018981526020018881526020018781526020018681526020013373ffffffffffffffffffffffffffffffffffffffff168152602001858152602001848152602001600081526020016000815260200160008152509050600160003373ffffffffffffffffffffffffffffffffffffffff1673ffffffffffffffffffffffffffffffffffffffff1681526020019081526020016000208190806001815401808255809150506001900390600052602060002090600c020160009091909190915060008201518160000155602082015181600101908051906020019061317e929190613cf2565b506040820151816002015560608201518160030190805190602001906131a5929190613cf2565b5060808201518160040190805190602001906131c2929190613cf2565b5060a08201518160050190805190602001906131df929190613cf2565b5060c08201518160060160006101000a81548173ffffffffffffffffffffffffffffffffffffffff021916908373ffffffffffffffffffffffffffffffffffffffff16021790555060e0820151816007019080519060200190613243929190613cf2565b50610100820151816008019080519060200190613261929190613cf2565b50610120820151816009015561014082015181600a015561016082015181600b0155505060028190806001815401808255809150506001900390600052602060002090600c02016000909190919091506000820151816000015560208201518160010190805190602001906132d7929190613cf2565b506040820151816002015560608201518160030190805190602001906132fe929190613cf2565b50608082015181600401908051906020019061331b929190613cf2565b5060a0820151816005019080519060200190613338929190613cf2565b5060c08201518160060160006101000a81548173ffffffffffffffffffffffffffffffffffffffff021916908373ffffffffffffffffffffffffffffffffffffffff16021790555060e082015181600701908051906020019061339c929190613cf2565b506101008201518160080190805190602001906133ba929190613cf2565b50610120820151816009015561014082015181600a015561016082015181600b015550503373ffffffffffffffffffffffffffffffffffffffff167fb06520f2f0557f8d0cf911deeba35fb2bb679d02afeeff46d976313a15e4b3de838b604051613426929190614f87565b60405180910390a2505050505050505050565b6060600160003373ffffffffffffffffffffffffffffffffffffffff1673ffffffffffffffffffffffffffffffffffffffff168152602001908152602001600020805480602002602001604051908101604052809291908181526020016000905b828210156138c157838290600052602060002090600c020160405180610180016040529081600082015481526020016001820180546134d8906152bd565b80601f0160208091040260200160405190810160405280929190818152602001828054613504906152bd565b80156135515780601f1061352657610100808354040283529160200191613551565b820191906000526020600020905b81548152906001019060200180831161353457829003601f168201915b5050505050815260200160028201548152602001600382018054613574906152bd565b80601f01602080910402602001604051908101604052809291908181526020018280546135a0906152bd565b80156135ed5780601f106135c2576101008083540402835291602001916135ed565b820191906000526020600020905b8154815290600101906020018083116135d057829003601f168201915b50505050508152602001600482018054613606906152bd565b80601f0160208091040260200160405190810160405280929190818152602001828054613632906152bd565b801561367f5780601f106136545761010080835404028352916020019161367f565b820191906000526020600020905b81548152906001019060200180831161366257829003601f168201915b50505050508152602001600582018054613698906152bd565b80601f01602080910402602001604051908101604052809291908181526020018280546136c4906152bd565b80156137115780601f106136e657610100808354040283529160200191613711565b820191906000526020600020905b8154815290600101906020018083116136f457829003601f168201915b505050505081526020016006820160009054906101000a900473ffffffffffffffffffffffffffffffffffffffff1673ffffffffffffffffffffffffffffffffffffffff1673ffffffffffffffffffffffffffffffffffffffff168152602001600782018054613780906152bd565b80601f01602080910402602001604051908101604052809291908181526020018280546137ac906152bd565b80156137f95780601f106137ce576101008083540402835291602001916137f9565b820191906000526020600020905b8154815290600101906020018083116137dc57829003601f168201915b50505050508152602001600882018054613812906152bd565b80601f016020809104026020016040519081016040528092919081815260200182805461383e906152bd565b801561388b5780601f106138605761010080835404028352916020019161388b565b820191906000526020600020905b81548152906001019060200180831161386e57829003601f168201915b5050505050815260200160098201548152602001600a8201548152602001600b820154815250508152602001906001019061349a565b50505050905090565b600160205281600052604060002081815481106138e657600080fd5b90600052602060002090600c020160009150915050806000015490806001018054613910906152bd565b80601f016020809104026020016040519081016040528092919081815260200182805461393c906152bd565b80156139895780601f1061395e57610100808354040283529160200191613989565b820191906000526020600020905b81548152906001019060200180831161396c57829003601f168201915b5050505050908060020154908060030180546139a4906152bd565b80601f01602080910402602001604051908101604052809291908181526020018280546139d0906152bd565b8015613a1d5780601f106139f257610100808354040283529160200191613a1d565b820191906000526020600020905b815481529060010190602001808311613a0057829003601f168201915b505050505090806004018054613a32906152bd565b80601f0160208091040260200160405190810160405280929190818152602001828054613a5e906152bd565b8015613aab5780601f10613a8057610100808354040283529160200191613aab565b820191906000526020600020905b815481529060010190602001808311613a8e57829003601f168201915b505050505090806005018054613ac0906152bd565b80601f0160208091040260200160405190810160405280929190818152602001828054613aec906152bd565b8015613b395780601f10613b0e57610100808354040283529160200191613b39565b820191906000526020600020905b815481529060010190602001808311613b1c57829003601f168201915b5050505050908060060160009054906101000a900473ffffffffffffffffffffffffffffffffffffffff1690806007018054613b74906152bd565b80601f0160208091040260200160405190810160405280929190818152602001828054613ba0906152bd565b8015613bed5780601f10613bc257610100808354040283529160200191613bed565b820191906000526020600020905b815481529060010190602001808311613bd057829003601f168201915b505050505090806008018054613c02906152bd565b80601f0160208091040260200160405190810160405280929190818152602001828054613c2e906152bd565b8015613c7b5780601f10613c5057610100808354040283529160200191613c7b565b820191906000526020600020905b815481529060010190602001808311613c5e57829003601f168201915b50505050509080600901549080600a01549080600b015490508c565b60405180610100016040528060608152602001600073ffffffffffffffffffffffffffffffffffffffff1681526020016060815260200160608152602001606081526020016000815260200160008152602001606081525090565b828054613cfe906152bd565b90600052602060002090601f016020900481019282613d205760008555613d67565b82601f10613d3957805160ff1916838001178555613d67565b82800160010185558215613d67579182015b82811115613d66578251825591602001919060010190613d4b565b5b509050613d749190613d78565b5090565b5b80821115613d91576000816000905550600101613d79565b5090565b6000613da8613da3846150c0565b61509b565b905082815260208101848484011115613dc057600080fd5b613dcb84828561527b565b509392505050565b600081359050613de281615752565b92915050565b600082601f830112613df957600080fd5b8135613e09848260208601613d95565b91505092915050565b600081359050613e2181615769565b92915050565b600060208284031215613e3957600080fd5b6000613e4784828501613dd3565b91505092915050565b60008060408385031215613e6357600080fd5b6000613e7185828601613dd3565b9250506020613e8285828601613e12565b9150509250929050565b600080600080600080600080610100898b031215613ea957600080fd5b6000613eb78b828c01613dd3565b9850506020613ec88b828c01613e12565b975050604089013567ffffffffffffffff811115613ee557600080fd5b613ef18b828c01613de8565b965050606089013567ffffffffffffffff811115613f0e57600080fd5b613f1a8b828c01613de8565b955050608089013567ffffffffffffffff811115613f3757600080fd5b613f438b828c01613de8565b94505060a089013567ffffffffffffffff811115613f6057600080fd5b613f6c8b828c01613de8565b93505060c0613f7d8b828c01613e12565b92505060e089013567ffffffffffffffff811115613f9a57600080fd5b613fa68b828c01613de8565b9150509295985092959890939650565b600080600060608486031215613fcb57600080fd5b6000613fd986828701613dd3565b9350506020613fea86828701613e12565b9250506040613ffb86828701613e12565b9150509250925092565b6000806040838503121561401857600080fd5b600083013567ffffffffffffffff81111561403257600080fd5b61403e85828601613de8565b925050602083013567ffffffffffffffff81111561405b57600080fd5b61406785828601613de8565b9150509250929050565b6000806000806080858703121561408757600080fd5b600085013567ffffffffffffffff8111156140a157600080fd5b6140ad87828801613de8565b945050602085013567ffffffffffffffff8111156140ca57600080fd5b6140d687828801613de8565b935050604085013567ffffffffffffffff8111156140f357600080fd5b6140ff87828801613de8565b925050606085013567ffffffffffffffff81111561411c57600080fd5b61412887828801613de8565b91505092959194509250565b600080600080600080600060e0888a03121561414f57600080fd5b600088013567ffffffffffffffff81111561416957600080fd5b6141758a828b01613de8565b97505060206141868a828b01613e12565b965050604088013567ffffffffffffffff8111156141a357600080fd5b6141af8a828b01613de8565b955050606088013567ffffffffffffffff8111156141cc57600080fd5b6141d88a828b01613de8565b945050608088013567ffffffffffffffff8111156141f557600080fd5b6142018a828b01613de8565b93505060a088013567ffffffffffffffff81111561421e57600080fd5b61422a8a828b01613de8565b92505060c088013567ffffffffffffffff81111561424757600080fd5b6142538a828b01613de8565b91505092959891949750929550565b60006020828403121561427457600080fd5b600061428284828501613e12565b91505092915050565b6000806000606084860312156142a057600080fd5b60006142ae86828701613e12565b93505060206142bf86828701613e12565b925050604084013567ffffffffffffffff8111156142dc57600080fd5b6142e886828701613de8565b9150509250925092565b60006142fe8383614332565b60208301905092915050565b60006143168383614847565b905092915050565b600061432a83836149df565b905092915050565b61433b8161523f565b82525050565b61434a8161523f565b82525050565b600061435b82615136565b6143658185615189565b9350614370836150f1565b8060005b838110156143a157815161438888826142f2565b975061439383615162565b925050600181019050614374565b5085935050505092915050565b60006143b982615141565b6143c3818561519a565b9350836020820285016143d585615101565b8060005b8581101561441157848403895281516143f2858261430a565b94506143fd8361516f565b925060208a019950506001810190506143d9565b50829750879550505050505092915050565b600061442e8261514c565b61443881856151ab565b93508360208202850161444a85615111565b8060005b858110156144865784840389528151614467858261431e565b94506144728361517c565b925060208a0199505060018101905061444e565b50829750879550505050505092915050565b60006144a382615157565b6144ad81856151bc565b93506144bd81856020860161528a565b6144c6816153f6565b840191505092915050565b60006144dc82615157565b6144e681856151cd565b93506144f681856020860161528a565b6144ff816153f6565b840191505092915050565b600061451582615157565b61451f81856151de565b935061452f81856020860161528a565b80840191505092915050565b60008154614548816152bd565b61455281866151cd565b9450600182166000811461456d576001811461457f576145b2565b60ff19831686526020860193506145b2565b61458885615121565b60005b838110156145aa5781548189015260018201915060208101905061458b565b808801955050505b50505092915050565b600081546145c8816152bd565b6145d281866151de565b945060018216600081146145ed57600181146145fe57614631565b60ff19831686528186019350614631565b61460785615121565b60005b838110156146295781548189015260018201915060208101905061460a565b838801955050505b50505092915050565b60006146476016836151cd565b915061465282615407565b602082019050919050565b600061466a6018836151cd565b915061467582615430565b602082019050919050565b600061468d6012836151cd565b915061469882615459565b602082019050919050565b60006146b06013836151cd565b91506146bb82615482565b602082019050919050565b60006146d36026836151cd565b91506146de826154ab565b604082019050919050565b60006146f6600f836151cd565b9150614701826154fa565b602082019050919050565b60006147196009836151de565b915061472482615523565b600982019050919050565b600061473c6033836151cd565b91506147478261554c565b604082019050919050565b600061475f6015836151cd565b915061476a8261559b565b602082019050919050565b60006147826020836151cd565b915061478d826155c4565b602082019050919050565b60006147a5601f836151cd565b91506147b0826155ed565b602082019050919050565b60006147c86033836151cd565b91506147d382615616565b604082019050919050565b60006147eb6011836151cd565b91506147f682615665565b602082019050919050565b600061480e605d836151cd565b91506148198261568e565b606082019050919050565b60006148316027836151cd565b915061483c82615703565b604082019050919050565b60006101008301600083015184820360008601526148658282614498565b915050602083015161487a6020860182614332565b50604083015184820360408601526148928282614498565b915050606083015184820360608601526148ac8282614498565b915050608083015184820360808601526148c68282614498565b91505060a08301516148db60a0860182614b06565b5060c08301516148ee60c0860182614b06565b5060e083015184820360e08601526149068282614498565b9150508091505092915050565b60006101008301600083015184820360008601526149318282614498565b91505060208301516149466020860182614332565b506040830151848203604086015261495e8282614498565b915050606083015184820360608601526149788282614498565b915050608083015184820360808601526149928282614498565b91505060a08301516149a760a0860182614b06565b5060c08301516149ba60c0860182614b06565b5060e083015184820360e08601526149d28282614498565b9150508091505092915050565b6000610180830160008301516149f86000860182614b06565b5060208301518482036020860152614a108282614498565b9150506040830151614a256040860182614b06565b5060608301518482036060860152614a3d8282614498565b91505060808301518482036080860152614a578282614498565b91505060a083015184820360a0860152614a718282614498565b91505060c0830151614a8660c0860182614332565b5060e083015184820360e0860152614a9e8282614498565b915050610100830151848203610100860152614aba8282614498565b915050610120830151614ad1610120860182614b06565b50610140830151614ae6610140860182614b06565b50610160830151614afb610160860182614b06565b508091505092915050565b614b0f81615271565b82525050565b614b1e81615271565b82525050565b6000614b30828461450a565b915081905092915050565b6000614b4782846145bb565b915081905092915050565b6000614b5d8261470c565b9150819050919050565b6000602082019050614b7c6000830184614341565b92915050565b60006020820190508181036000830152614b9c8184614350565b905092915050565b60006020820190508181036000830152614bbe81846143ae565b905092915050565b60006020820190508181036000830152614be08184614423565b905092915050565b6000610100820190508181036000830152614c03818b6144d1565b9050614c12602083018a614341565b8181036040830152614c2481896144d1565b90508181036060830152614c3881886144d1565b90508181036080830152614c4c81876144d1565b9050614c5b60a0830186614b15565b614c6860c0830185614b15565b81810360e0830152614c7a81846144d1565b90509998505050505050505050565b60006080820190508181036000830152614ca381876144d1565b90508181036020830152614cb781866144d1565b90508181036040830152614ccb81856144d1565b90508181036060830152614cdf81846144d1565b905095945050505050565b60006040820190508181036000830152614d0481846144d1565b90508181036020830152614d17816147de565b905092915050565b60006060820190508181036000830152614d39818661453b565b9050614d486020830185614341565b8181036040830152614d5a818461453b565b9050949350505050565b60006020820190508181036000830152614d7d8161463a565b9050919050565b60006020820190508181036000830152614d9d8161465d565b9050919050565b60006040820190508181036000830152614dbd81614680565b9050614dcc6020830184614341565b92915050565b60006020820190508181036000830152614deb816146a3565b9050919050565b60006020820190508181036000830152614e0b816146c6565b9050919050565b60006040820190508181036000830152614e2b816146e9565b9050614e3a6020830184614341565b92915050565b60006020820190508181036000830152614e598161472f565b9050919050565b60006020820190508181036000830152614e7981614752565b9050919050565b60006020820190508181036000830152614e9981614775565b9050919050565b60006020820190508181036000830152614eb981614798565b9050919050565b60006040820190508181036000830152614ed9816147bb565b9050614ee86020830184614341565b92915050565b60006040820190508181036000830152614f0781614801565b9050614f166020830184614341565b92915050565b60006020820190508181036000830152614f3581614824565b9050919050565b60006020820190508181036000830152614f568184614913565b905092915050565b6000604082019050614f736000830185614b15565b614f806020830184614341565b9392505050565b6000604082019050614f9c6000830185614b15565b8181036020830152614fae81846144d1565b90509392505050565b600061018082019050614fcd600083018f614b15565b8181036020830152614fdf818e6144d1565b9050614fee604083018d614b15565b8181036060830152615000818c6144d1565b90508181036080830152615014818b6144d1565b905081810360a0830152615028818a6144d1565b905061503760c0830189614341565b81810360e083015261504981886144d1565b905081810361010083015261505e81876144d1565b905061506e610120830186614b15565b61507c610140830185614b15565b61508a610160830184614b15565b9d9c50505050505050505050505050565b60006150a56150b6565b90506150b182826152ef565b919050565b6000604051905090565b600067ffffffffffffffff8211156150db576150da6153c7565b5b6150e4826153f6565b9050602081019050919050565b6000819050602082019050919050565b6000819050602082019050919050565b6000819050602082019050919050565b60008190508160005260206000209050919050565b600081519050919050565b600081519050919050565b600081519050919050565b600081519050919050565b6000602082019050919050565b6000602082019050919050565b6000602082019050919050565b600082825260208201905092915050565b600082825260208201905092915050565b600082825260208201905092915050565b600082825260208201905092915050565b600082825260208201905092915050565b600081905092915050565b60006151f482615271565b91506151ff83615271565b9250827fffffffffffffffffffffffffffffffffffffffffffffffffffffffffffffffff0382111561523457615233615369565b5b828201905092915050565b600061524a82615251565b9050919050565b600073ffffffffffffffffffffffffffffffffffffffff82169050919050565b6000819050919050565b82818337600083830152505050565b60005b838110156152a857808201518184015260208101905061528d565b838111156152b7576000848401525b50505050565b600060028204905060018216806152d557607f821691505b602082108114156152e9576152e8615398565b5b50919050565b6152f8826153f6565b810181811067ffffffffffffffff82111715615317576153166153c7565b5b80604052505050565b600061532b82615271565b91507fffffffffffffffffffffffffffffffffffffffffffffffffffffffffffffffff82141561535e5761535d615369565b5b600182019050919050565b7f4e487b7100000000000000000000000000000000000000000000000000000000600052601160045260246000fd5b7f4e487b7100000000000000000000000000000000000000000000000000000000600052602260045260246000fd5b7f4e487b7100000000000000000000000000000000000000000000000000000000600052604160045260246000fd5b6000601f19601f8301169050919050565b7f50726f6475637420646f6573206e6f7420657869737400000000000000000000600082015250565b7f50726f64756374206e616d652069732072657175697265640000000000000000600082015250565b7f496e636f72726563742070617373776f72640000000000000000000000000000600082015250565b7f496e76616c6964206f7264657220696e64657800000000000000000000000000600082015250565b7f50726f6475637420646f6573206e6f7420657869737420666f7220746869732060008201527f6661726d65720000000000000000000000000000000000000000000000000000602082015250565b7f456d61696c206e6f7420666f756e640000000000000000000000000000000000600082015250565b7f44656c6976657265640000000000000000000000000000000000000000000000600082015250565b7f4e6f207075726368617365207265636f726420666f756e6420666f722074686960008201527f7320627579657220616e642070726f6475637400000000000000000000000000602082015250565b7f496e76616c696420737461747573207570646174650000000000000000000000600082015250565b7f496e76616c696420646174612070726f766964656420666f72207369676e7570600082015250565b7f496e76616c696420646174612070726f766964656420666f72206c6f67696e00600082015250565b7f456d61696c20616c726561647920696e207573652e20506c656173652075736560008201527f206120646966666572656e7420656d61696c2e00000000000000000000000000602082015250565b7f5369676e7570207375636365737366756c000000000000000000000000000000600082015250565b7f5573657220776974682074686973204d6574614d61736b20494420616c72656160008201527f6479206578697374732e20506c6561736520757365207468652065786973746960208201527f6e67206163636f756e74206f72207570646174652064657461696c732e000000604082015250565b7f50726f64756374207072696365206d757374206265206772656174657220746860008201527f616e207a65726f00000000000000000000000000000000000000000000000000602082015250565b61575b8161523f565b811461576657600080fd5b50565b61577281615271565b811461577d57600080fd5b5056fea2646970667358221220933a9150e2203218e13b837f0933e58c16d383805c8c88c3d0b52e23f43584bc64736f6c63430008020033",
  "immutableReferences": {},
  "source": "// SPDX-License-Identifier: MIT\r\npragma solidity ^0.8.2;\r\n\r\nimport \"./FarmerSignupLoginContract.sol\";\r\n\r\ncontract FarmerOperationsManagement is FarmerSignupLoginContract {\r\n    struct ProductPurchase {\r\n        string buyerName;\r\n        address buyerAddress;\r\n        string userPhoneNo;\r\n        string status;\r\n        string userAddress;\r\n        uint productid;\r\n        uint orderid;\r\n        string productImageUrl; // New field added\r\n    }\r\n\r\n    struct Product {\r\n        uint productId;\r\n        string productName;\r\n        uint productPrice;\r\n        string description;\r\n        string productType;\r\n        string productImageUrl;\r\n        address creator;\r\n        string productPackedDate;\r\n        string productExpire;\r\n        uint ratingsCount;\r\n        uint averageRating;\r\n        uint totalpurchaseamount;\r\n    }\r\n\r\n    mapping(address => Product[]) public farmerProducts;\r\n    Product[] public allListedProducts;\r\n\r\n    mapping(address => mapping(uint => ProductPurchase[]))\r\n        public farmerProductPurchases;\r\n\r\n    address[] public registeredFarmers;\r\n\r\n    event ProductAdded(\r\n        address indexed farmer,\r\n        uint productId,\r\n        string productName\r\n    );\r\n\r\n    event OrderReceived(address indexed farmer, uint productId, address buyer);\r\n\r\n    // Function for farmers to add a product\r\n    function addProduct(\r\n        string memory _productName,\r\n        uint _productPrice,\r\n        string memory _description,\r\n        string memory _productType,\r\n        string memory _productImageUrl,\r\n        string memory _productPackedDate,\r\n        string memory _productExpire\r\n    ) public {\r\n        require(bytes(_productName).length > 0, \"Product name is required\");\r\n        require(_productPrice > 0, \"Product price must be greater than zero\");\r\n\r\n        if (farmerProducts[msg.sender].length == 0) {\r\n            registeredFarmers.push(msg.sender);\r\n        }\r\n\r\n        uint productId = farmerProducts[msg.sender].length;\r\n\r\n        Product memory newProduct = Product({\r\n            productId: productId,\r\n            productName: _productName,\r\n            productPrice: _productPrice,\r\n            description: _description,\r\n            productType: _productType,\r\n            productImageUrl: _productImageUrl,\r\n            creator: msg.sender,\r\n            productPackedDate: _productPackedDate,\r\n            productExpire: _productExpire,\r\n            ratingsCount: 0,\r\n            averageRating: 0,\r\n            totalpurchaseamount: 0\r\n        });\r\n\r\n        farmerProducts[msg.sender].push(newProduct);\r\n        allListedProducts.push(newProduct);\r\n\r\n        emit ProductAdded(msg.sender, productId, _productName);\r\n    }\r\n\r\n    // Update the total purchase amount for a product\r\n    function updateTotalPurchaseAmount(\r\n        address _farmerAddress,\r\n        uint _productId,\r\n        uint _amount\r\n    ) public {\r\n        require(\r\n            _productId < farmerProducts[_farmerAddress].length,\r\n            \"Product does not exist\"\r\n        );\r\n\r\n        farmerProducts[_farmerAddress][_productId]\r\n            .totalpurchaseamount += _amount;\r\n\r\n        // Also update the totalpurchaseamount in the allListedProducts array\r\n        for (uint i = 0; i < allListedProducts.length; i++) {\r\n            if (\r\n                allListedProducts[i].creator == _farmerAddress &&\r\n                allListedProducts[i].productId == _productId\r\n            ) {\r\n                allListedProducts[i].totalpurchaseamount += _amount;\r\n                break;\r\n            }\r\n        }\r\n    }\r\n\r\n    // Function for buyers to add purchase details\r\n    function addPurchase(\r\n        address _farmerAddress,\r\n        uint _productId,\r\n        string memory _buyerName,\r\n        string memory _status,\r\n        string memory _userAddress,\r\n        string memory _userPhoneNo,\r\n        uint productid,\r\n        string memory _productImageUrl // New parameter added\r\n    ) public {\r\n        require(\r\n            _productId < farmerProducts[_farmerAddress].length,\r\n            \"Product does not exist for this farmer\"\r\n        );\r\n\r\n        uint orderid = farmerProductPurchases[_farmerAddress][_productId]\r\n            .length;\r\n\r\n        farmerProductPurchases[_farmerAddress][_productId].push(\r\n            ProductPurchase({\r\n                buyerName: _buyerName,\r\n                buyerAddress: msg.sender,\r\n                status: _status,\r\n                userAddress: _userAddress,\r\n                userPhoneNo: _userPhoneNo,\r\n                productid: productid,\r\n                orderid: orderid,\r\n                productImageUrl: _productImageUrl // Added new field\r\n            })\r\n        );\r\n\r\n        emit OrderReceived(_farmerAddress, _productId, msg.sender);\r\n    }\r\n\r\n    // Function to retrieve all products of a specific farmer\r\n    function getFarmerProducts(\r\n        address _farmerAddress\r\n    ) public view returns (Product[] memory) {\r\n        return farmerProducts[_farmerAddress];\r\n    }\r\n\r\n    // Function to retrieve a list of all registered farmers\r\n    function getAllFarmers() public view returns (address[] memory) {\r\n        return registeredFarmers;\r\n    }\r\n\r\n    // Function to retrieve all products of the caller farmer\r\n    function getMyProducts() public view returns (Product[] memory) {\r\n        return farmerProducts[msg.sender];\r\n    }\r\n\r\n    // Function to retrieve all orders for the caller farmer's products\r\n    function getMyProductOrders()\r\n        public\r\n        view\r\n        returns (ProductPurchase[] memory)\r\n    {\r\n        uint totalOrders = 0;\r\n\r\n        for (uint i = 0; i < farmerProducts[msg.sender].length; i++) {\r\n            totalOrders += farmerProductPurchases[msg.sender][i].length;\r\n        }\r\n\r\n        ProductPurchase[] memory allOrders = new ProductPurchase[](totalOrders);\r\n        uint index = 0;\r\n\r\n        for (uint i = 0; i < farmerProducts[msg.sender].length; i++) {\r\n            ProductPurchase[] memory orders = farmerProductPurchases[\r\n                msg.sender\r\n            ][i];\r\n            for (uint j = 0; j < orders.length; j++) {\r\n                allOrders[index] = orders[j];\r\n                index++;\r\n            }\r\n        }\r\n\r\n        return allOrders;\r\n    }\r\n\r\n    // Function for buyers to get all listed products\r\n    function getAllListedProducts() public view returns (Product[] memory) {\r\n        return allListedProducts;\r\n    }\r\n\r\n    // Function for buyers to get purchase details for a specific product\r\n    function getPurchaseDetails(\r\n        address _farmerAddress,\r\n        uint _productId\r\n    ) public view returns (ProductPurchase memory) {\r\n        ProductPurchase[] memory purchases = farmerProductPurchases[\r\n            _farmerAddress\r\n        ][_productId];\r\n\r\n        for (uint i = 0; i < purchases.length; i++) {\r\n            if (purchases[i].buyerAddress == msg.sender) {\r\n                return purchases[i];\r\n            }\r\n        }\r\n\r\n        revert(\"No purchase record found for this buyer and product\");\r\n    }\r\n\r\n    // Function for farmers to update order status\r\n    function updateOrderStatus(\r\n        uint _productId,\r\n        uint _orderIndex,\r\n        string memory _status\r\n    ) public {\r\n        require(\r\n            keccak256(abi.encodePacked(_status)) ==\r\n                keccak256(abi.encodePacked(\"Delivered\")),\r\n            \"Invalid status update\"\r\n        );\r\n        require(\r\n            _orderIndex < farmerProductPurchases[msg.sender][_productId].length,\r\n            \"Invalid order index\"\r\n        );\r\n\r\n        farmerProductPurchases[msg.sender][_productId][_orderIndex]\r\n            .status = _status;\r\n    }\r\n}\r\n",
  "sourcePath": "C:\\webdevelopment\\marketplace\\buyfresh\\smartcontracts\\contracts\\FarmerOperationsManagement.sol",
  "compiler": {
    "name": "solc",
    "version": "0.8.2+commit.661d1103.Emscripten.clang"
  },
  "schemaVersion": "3.4.16",
  "updatedAt": "2024-12-04T13:58:05.051Z",
  "networkType": "ethereum",
  "devdoc": {
    "kind": "dev",
    "methods": {},
    "version": 1
  },
  "userdoc": {
    "kind": "user",
    "methods": {},
    "version": 1
  }
}