{
  "contractName": "FarmerOperationsManagement",
  "abi": [
    {
      "anonymous": false,
      "inputs": [
        {
          "indexed": true,
          "internalType": "address",
          "name": "farmer",
          "type": "address"
        },
        {
          "indexed": false,
          "internalType": "uint256",
          "name": "productId",
          "type": "uint256"
        },
        {
          "indexed": false,
          "internalType": "address",
          "name": "buyer",
          "type": "address"
        }
      ],
      "name": "OrderReceived",
      "type": "event"
    },
    {
      "anonymous": false,
      "inputs": [
        {
          "indexed": true,
          "internalType": "address",
          "name": "farmer",
          "type": "address"
        },
        {
          "indexed": false,
          "internalType": "uint256",
          "name": "productId",
          "type": "uint256"
        },
        {
          "indexed": false,
          "internalType": "string",
          "name": "productName",
          "type": "string"
        }
      ],
      "name": "ProductAdded",
      "type": "event"
    },
    {
      "anonymous": false,
      "inputs": [
        {
          "indexed": false,
          "internalType": "string",
          "name": "farmerName",
          "type": "string"
        },
        {
          "indexed": false,
          "internalType": "string",
          "name": "message",
          "type": "string"
        }
      ],
      "name": "SignupSuccessful",
      "type": "event"
    },
    {
      "inputs": [
        {
          "internalType": "string",
          "name": "_email",
          "type": "string"
        },
        {
          "internalType": "string",
          "name": "_password",
          "type": "string"
        }
      ],
      "name": "FarmerLogin",
      "outputs": [
        {
          "internalType": "bool",
          "name": "",
          "type": "bool"
        }
      ],
      "stateMutability": "view",
      "type": "function",
      "constant": true
    },
    {
      "inputs": [
        {
          "internalType": "address",
          "name": "",
          "type": "address"
        }
      ],
      "name": "FarmerLoginSignup",
      "outputs": [
        {
          "internalType": "string",
          "name": "name",
          "type": "string"
        },
        {
          "internalType": "string",
          "name": "email",
          "type": "string"
        },
        {
          "internalType": "string",
          "name": "number",
          "type": "string"
        },
        {
          "internalType": "string",
          "name": "password",
          "type": "string"
        }
      ],
      "stateMutability": "view",
      "type": "function",
      "constant": true
    },
    {
      "inputs": [
        {
          "internalType": "uint256",
          "name": "",
          "type": "uint256"
        }
      ],
      "name": "allListedProducts",
      "outputs": [
        {
          "internalType": "uint256",
          "name": "productId",
          "type": "uint256"
        },
        {
          "internalType": "string",
          "name": "productName",
          "type": "string"
        },
        {
          "internalType": "uint256",
          "name": "productPrice",
          "type": "uint256"
        },
        {
          "internalType": "string",
          "name": "description",
          "type": "string"
        },
        {
          "internalType": "string",
          "name": "productType",
          "type": "string"
        },
        {
          "internalType": "string",
          "name": "productImageUrl",
          "type": "string"
        },
        {
          "internalType": "address",
          "name": "creator",
          "type": "address"
        },
        {
          "internalType": "string",
          "name": "productPackedDate",
          "type": "string"
        },
        {
          "internalType": "string",
          "name": "productExpire",
          "type": "string"
        },
        {
          "internalType": "uint256",
          "name": "ratingsCount",
          "type": "uint256"
        },
        {
          "internalType": "uint256",
          "name": "averageRating",
          "type": "uint256"
        }
      ],
      "stateMutability": "view",
      "type": "function",
      "constant": true
    },
    {
      "inputs": [
        {
          "internalType": "address",
          "name": "",
          "type": "address"
        },
        {
          "internalType": "uint256",
          "name": "",
          "type": "uint256"
        },
        {
          "internalType": "uint256",
          "name": "",
          "type": "uint256"
        }
      ],
      "name": "farmerProductPurchases",
      "outputs": [
        {
          "internalType": "string",
          "name": "buyerName",
          "type": "string"
        },
        {
          "internalType": "address",
          "name": "buyerAddress",
          "type": "address"
        },
        {
          "internalType": "string",
          "name": "status",
          "type": "string"
        },
        {
          "internalType": "string",
          "name": "userAddress",
          "type": "string"
        },
        {
          "internalType": "string",
          "name": "userId",
          "type": "string"
        },
        {
          "internalType": "string",
          "name": "userPhoneNo",
          "type": "string"
        },
        {
          "internalType": "string",
          "name": "walletAddress",
          "type": "string"
        }
      ],
      "stateMutability": "view",
      "type": "function",
      "constant": true
    },
    {
      "inputs": [
        {
          "internalType": "address",
          "name": "",
          "type": "address"
        },
        {
          "internalType": "uint256",
          "name": "",
          "type": "uint256"
        }
      ],
      "name": "farmerProducts",
      "outputs": [
        {
          "internalType": "uint256",
          "name": "productId",
          "type": "uint256"
        },
        {
          "internalType": "string",
          "name": "productName",
          "type": "string"
        },
        {
          "internalType": "uint256",
          "name": "productPrice",
          "type": "uint256"
        },
        {
          "internalType": "string",
          "name": "description",
          "type": "string"
        },
        {
          "internalType": "string",
          "name": "productType",
          "type": "string"
        },
        {
          "internalType": "string",
          "name": "productImageUrl",
          "type": "string"
        },
        {
          "internalType": "address",
          "name": "creator",
          "type": "address"
        },
        {
          "internalType": "string",
          "name": "productPackedDate",
          "type": "string"
        },
        {
          "internalType": "string",
          "name": "productExpire",
          "type": "string"
        },
        {
          "internalType": "uint256",
          "name": "ratingsCount",
          "type": "uint256"
        },
        {
          "internalType": "uint256",
          "name": "averageRating",
          "type": "uint256"
        }
      ],
      "stateMutability": "view",
      "type": "function",
      "constant": true
    },
    {
      "inputs": [
        {
          "internalType": "string",
          "name": "_name",
          "type": "string"
        },
        {
          "internalType": "string",
          "name": "_email",
          "type": "string"
        },
        {
          "internalType": "string",
          "name": "_number",
          "type": "string"
        },
        {
          "internalType": "string",
          "name": "_password",
          "type": "string"
        }
      ],
      "name": "farmerSignup",
      "outputs": [],
      "stateMutability": "nonpayable",
      "type": "function"
    },
    {
      "inputs": [
        {
          "internalType": "uint256",
          "name": "",
          "type": "uint256"
        }
      ],
      "name": "registeredFarmers",
      "outputs": [
        {
          "internalType": "address",
          "name": "",
          "type": "address"
        }
      ],
      "stateMutability": "view",
      "type": "function",
      "constant": true
    },
    {
      "inputs": [
        {
          "internalType": "string",
          "name": "_productName",
          "type": "string"
        },
        {
          "internalType": "uint256",
          "name": "_productPrice",
          "type": "uint256"
        },
        {
          "internalType": "string",
          "name": "_description",
          "type": "string"
        },
        {
          "internalType": "string",
          "name": "_productType",
          "type": "string"
        },
        {
          "internalType": "string",
          "name": "_productImageUrl",
          "type": "string"
        },
        {
          "internalType": "string",
          "name": "_productPackedDate",
          "type": "string"
        },
        {
          "internalType": "string",
          "name": "_productExpire",
          "type": "string"
        }
      ],
      "name": "addProduct",
      "outputs": [],
      "stateMutability": "nonpayable",
      "type": "function"
    },
    {
      "inputs": [
        {
          "internalType": "address",
          "name": "_farmerAddress",
          "type": "address"
        },
        {
          "internalType": "uint256",
          "name": "_productId",
          "type": "uint256"
        },
        {
          "internalType": "string",
          "name": "_buyerName",
          "type": "string"
        },
        {
          "internalType": "string",
          "name": "_status",
          "type": "string"
        },
        {
          "internalType": "string",
          "name": "_userAddress",
          "type": "string"
        },
        {
          "internalType": "string",
          "name": "_userId",
          "type": "string"
        },
        {
          "internalType": "string",
          "name": "_userPhoneNo",
          "type": "string"
        },
        {
          "internalType": "string",
          "name": "_walletAddress",
          "type": "string"
        }
      ],
      "name": "addPurchase",
      "outputs": [],
      "stateMutability": "nonpayable",
      "type": "function"
    },
    {
      "inputs": [
        {
          "internalType": "address",
          "name": "_farmerAddress",
          "type": "address"
        },
        {
          "internalType": "uint256",
          "name": "_productId",
          "type": "uint256"
        }
      ],
      "name": "getPurchases",
      "outputs": [
        {
          "components": [
            {
              "internalType": "string",
              "name": "buyerName",
              "type": "string"
            },
            {
              "internalType": "address",
              "name": "buyerAddress",
              "type": "address"
            },
            {
              "internalType": "string",
              "name": "status",
              "type": "string"
            },
            {
              "internalType": "string",
              "name": "userAddress",
              "type": "string"
            },
            {
              "internalType": "string",
              "name": "userId",
              "type": "string"
            },
            {
              "internalType": "string",
              "name": "userPhoneNo",
              "type": "string"
            },
            {
              "internalType": "string",
              "name": "walletAddress",
              "type": "string"
            }
          ],
          "internalType": "struct FarmerOperationsManagement.ProductPurchase[]",
          "name": "",
          "type": "tuple[]"
        }
      ],
      "stateMutability": "view",
      "type": "function",
      "constant": true
    },
    {
      "inputs": [
        {
          "internalType": "address",
          "name": "_farmerAddress",
          "type": "address"
        }
      ],
      "name": "getFarmerProducts",
      "outputs": [
        {
          "components": [
            {
              "internalType": "uint256",
              "name": "productId",
              "type": "uint256"
            },
            {
              "internalType": "string",
              "name": "productName",
              "type": "string"
            },
            {
              "internalType": "uint256",
              "name": "productPrice",
              "type": "uint256"
            },
            {
              "internalType": "string",
              "name": "description",
              "type": "string"
            },
            {
              "internalType": "string",
              "name": "productType",
              "type": "string"
            },
            {
              "internalType": "string",
              "name": "productImageUrl",
              "type": "string"
            },
            {
              "internalType": "address",
              "name": "creator",
              "type": "address"
            },
            {
              "internalType": "string",
              "name": "productPackedDate",
              "type": "string"
            },
            {
              "internalType": "string",
              "name": "productExpire",
              "type": "string"
            },
            {
              "internalType": "uint256",
              "name": "ratingsCount",
              "type": "uint256"
            },
            {
              "internalType": "uint256",
              "name": "averageRating",
              "type": "uint256"
            }
          ],
          "internalType": "struct FarmerOperationsManagement.Product[]",
          "name": "",
          "type": "tuple[]"
        }
      ],
      "stateMutability": "view",
      "type": "function",
      "constant": true
    },
    {
      "inputs": [],
      "name": "getAllFarmers",
      "outputs": [
        {
          "internalType": "address[]",
          "name": "",
          "type": "address[]"
        }
      ],
      "stateMutability": "view",
      "type": "function",
      "constant": true
    },
    {
      "inputs": [],
      "name": "getMyProducts",
      "outputs": [
        {
          "components": [
            {
              "internalType": "uint256",
              "name": "productId",
              "type": "uint256"
            },
            {
              "internalType": "string",
              "name": "productName",
              "type": "string"
            },
            {
              "internalType": "uint256",
              "name": "productPrice",
              "type": "uint256"
            },
            {
              "internalType": "string",
              "name": "description",
              "type": "string"
            },
            {
              "internalType": "string",
              "name": "productType",
              "type": "string"
            },
            {
              "internalType": "string",
              "name": "productImageUrl",
              "type": "string"
            },
            {
              "internalType": "address",
              "name": "creator",
              "type": "address"
            },
            {
              "internalType": "string",
              "name": "productPackedDate",
              "type": "string"
            },
            {
              "internalType": "string",
              "name": "productExpire",
              "type": "string"
            },
            {
              "internalType": "uint256",
              "name": "ratingsCount",
              "type": "uint256"
            },
            {
              "internalType": "uint256",
              "name": "averageRating",
              "type": "uint256"
            }
          ],
          "internalType": "struct FarmerOperationsManagement.Product[]",
          "name": "",
          "type": "tuple[]"
        }
      ],
      "stateMutability": "view",
      "type": "function",
      "constant": true
    },
    {
      "inputs": [],
      "name": "getMyProductOrders",
      "outputs": [
        {
          "components": [
            {
              "internalType": "string",
              "name": "buyerName",
              "type": "string"
            },
            {
              "internalType": "address",
              "name": "buyerAddress",
              "type": "address"
            },
            {
              "internalType": "string",
              "name": "status",
              "type": "string"
            },
            {
              "internalType": "string",
              "name": "userAddress",
              "type": "string"
            },
            {
              "internalType": "string",
              "name": "userId",
              "type": "string"
            },
            {
              "internalType": "string",
              "name": "userPhoneNo",
              "type": "string"
            },
            {
              "internalType": "string",
              "name": "walletAddress",
              "type": "string"
            }
          ],
          "internalType": "struct FarmerOperationsManagement.ProductPurchase[]",
          "name": "",
          "type": "tuple[]"
        }
      ],
      "stateMutability": "view",
      "type": "function",
      "constant": true
    },
    {
      "inputs": [],
      "name": "getAllListedProducts",
      "outputs": [
        {
          "components": [
            {
              "internalType": "uint256",
              "name": "productId",
              "type": "uint256"
            },
            {
              "internalType": "string",
              "name": "productName",
              "type": "string"
            },
            {
              "internalType": "uint256",
              "name": "productPrice",
              "type": "uint256"
            },
            {
              "internalType": "string",
              "name": "description",
              "type": "string"
            },
            {
              "internalType": "string",
              "name": "productType",
              "type": "string"
            },
            {
              "internalType": "string",
              "name": "productImageUrl",
              "type": "string"
            },
            {
              "internalType": "address",
              "name": "creator",
              "type": "address"
            },
            {
              "internalType": "string",
              "name": "productPackedDate",
              "type": "string"
            },
            {
              "internalType": "string",
              "name": "productExpire",
              "type": "string"
            },
            {
              "internalType": "uint256",
              "name": "ratingsCount",
              "type": "uint256"
            },
            {
              "internalType": "uint256",
              "name": "averageRating",
              "type": "uint256"
            }
          ],
          "internalType": "struct FarmerOperationsManagement.Product[]",
          "name": "",
          "type": "tuple[]"
        }
      ],
      "stateMutability": "view",
      "type": "function",
      "constant": true
    }
  ],
  "bytecode": "0x608060405234801561001057600080fd5b50614add806100206000396000f3fe608060405234801561001057600080fd5b50600436106100f55760003560e01c806393f45e3811610097578063e0adbccb11610066578063e0adbccb146102b5578063e319bc73146102ef578063fdca4ca31461030b578063fece877214610329576100f5565b806393f45e381461021b578063a5967b4b14610239578063c0146eac14610269578063d56a62cf14610285576100f5565b806311b5a9a0116100d357806311b5a9a01461017b5780631fe52d34146101ab578063536954e4146101e157806357769f14146101ff576100f5565b806304abe1bf146100fa57806307c3e59b1461012d5780630a5cf0421461014b575b600080fd5b610114600480360381019061010f919061370c565b610363565b60405161012494939291906142c9565b60405180910390f35b6101356105b3565b60405161014291906141d1565b60405180910390f35b6101656004803603810190610160919061370c565b610c81565b60405161017291906141f3565b60405180910390f35b61019560048036038101906101909190613902565b61110a565b6040516101a29190614215565b60405180910390f35b6101c560048036038101906101c091906138b3565b611309565b6040516101d89796959493929190614230565b60405180910390f35b6101e96116c5565b6040516101f691906141af565b60405180910390f35b6102196004803603810190610214919061396e565b611753565b005b6102236118d1565b60405161023091906141f3565b60405180910390f35b610253600480360381019061024e9190613b5f565b611d1b565b6040516102609190614194565b60405180910390f35b610283600480360381019061027e9190613771565b611d5a565b005b61029f600480360381019061029a9190613735565b611ff1565b6040516102ac91906141d1565b60405180910390f35b6102cf60048036038101906102ca9190613b5f565b612463565b6040516102e69b9a99989796959493929190614498565b60405180910390f35b61030960048036038101906103049190613a31565b61281d565b005b610313612d36565b60405161032091906141f3565b60405180910390f35b610343600480360381019061033e9190613735565b6131bd565b60405161035a9b9a99989796959493929190614498565b60405180910390f35b60006020528060005260406000206000915090508060000180546103869061479b565b80601f01602080910402602001604051908101604052809291908181526020018280546103b29061479b565b80156103ff5780601f106103d4576101008083540402835291602001916103ff565b820191906000526020600020905b8154815290600101906020018083116103e257829003601f168201915b5050505050908060010180546104149061479b565b80601f01602080910402602001604051908101604052809291908181526020018280546104409061479b565b801561048d5780601f106104625761010080835404028352916020019161048d565b820191906000526020600020905b81548152906001019060200180831161047057829003601f168201915b5050505050908060020180546104a29061479b565b80601f01602080910402602001604051908101604052809291908181526020018280546104ce9061479b565b801561051b5780601f106104f05761010080835404028352916020019161051b565b820191906000526020600020905b8154815290600101906020018083116104fe57829003601f168201915b5050505050908060030180546105309061479b565b80601f016020809104026020016040519081016040528092919081815260200182805461055c9061479b565b80156105a95780601f1061057e576101008083540402835291602001916105a9565b820191906000526020600020905b81548152906001019060200180831161058c57829003601f168201915b5050505050905084565b60606000805b600160003373ffffffffffffffffffffffffffffffffffffffff1673ffffffffffffffffffffffffffffffffffffffff1681526020019081526020016000208054905081101561067757600360003373ffffffffffffffffffffffffffffffffffffffff1673ffffffffffffffffffffffffffffffffffffffff1681526020019081526020016000206000828152602001908152602001600020805490508261066291906146bb565b9150808061066f906147fe565b9150506105b9565b5060008167ffffffffffffffff8111156106ba577f4e487b7100000000000000000000000000000000000000000000000000000000600052604160045260246000fd5b6040519080825280602002602001820160405280156106f357816020015b6106e0613584565b8152602001906001900390816106d85790505b5090506000805b600160003373ffffffffffffffffffffffffffffffffffffffff1673ffffffffffffffffffffffffffffffffffffffff16815260200190815260200160002080549050811015610c77576000600360003373ffffffffffffffffffffffffffffffffffffffff1673ffffffffffffffffffffffffffffffffffffffff1681526020019081526020016000206000838152602001908152602001600020805480602002602001604051908101604052809291908181526020016000905b82821015610baa57838290600052602060002090600702016040518060e00160405290816000820180546107e99061479b565b80601f01602080910402602001604051908101604052809291908181526020018280546108159061479b565b80156108625780601f1061083757610100808354040283529160200191610862565b820191906000526020600020905b81548152906001019060200180831161084557829003601f168201915b505050505081526020016001820160009054906101000a900473ffffffffffffffffffffffffffffffffffffffff1673ffffffffffffffffffffffffffffffffffffffff1673ffffffffffffffffffffffffffffffffffffffff1681526020016002820180546108d19061479b565b80601f01602080910402602001604051908101604052809291908181526020018280546108fd9061479b565b801561094a5780601f1061091f5761010080835404028352916020019161094a565b820191906000526020600020905b81548152906001019060200180831161092d57829003601f168201915b505050505081526020016003820180546109639061479b565b80601f016020809104026020016040519081016040528092919081815260200182805461098f9061479b565b80156109dc5780601f106109b1576101008083540402835291602001916109dc565b820191906000526020600020905b8154815290600101906020018083116109bf57829003601f168201915b505050505081526020016004820180546109f59061479b565b80601f0160208091040260200160405190810160405280929190818152602001828054610a219061479b565b8015610a6e5780601f10610a4357610100808354040283529160200191610a6e565b820191906000526020600020905b815481529060010190602001808311610a5157829003601f168201915b50505050508152602001600582018054610a879061479b565b80601f0160208091040260200160405190810160405280929190818152602001828054610ab39061479b565b8015610b005780601f10610ad557610100808354040283529160200191610b00565b820191906000526020600020905b815481529060010190602001808311610ae357829003601f168201915b50505050508152602001600682018054610b199061479b565b80601f0160208091040260200160405190810160405280929190818152602001828054610b459061479b565b8015610b925780601f10610b6757610100808354040283529160200191610b92565b820191906000526020600020905b815481529060010190602001808311610b7557829003601f168201915b505050505081525050815260200190600101906107b6565b50505050905060005b8151811015610c6257818181518110610bf5577f4e487b7100000000000000000000000000000000000000000000000000000000600052603260045260246000fd5b6020026020010151858581518110610c36577f4e487b7100000000000000000000000000000000000000000000000000000000600052603260045260246000fd5b60200260200101819052508380610c4c906147fe565b9450508080610c5a906147fe565b915050610bb3565b50508080610c6f906147fe565b9150506106fa565b5081935050505090565b6060600160008373ffffffffffffffffffffffffffffffffffffffff1673ffffffffffffffffffffffffffffffffffffffff168152602001908152602001600020805480602002602001604051908101604052809291908181526020016000905b828210156110ff57838290600052602060002090600b02016040518061016001604052908160008201548152602001600182018054610d209061479b565b80601f0160208091040260200160405190810160405280929190818152602001828054610d4c9061479b565b8015610d995780601f10610d6e57610100808354040283529160200191610d99565b820191906000526020600020905b815481529060010190602001808311610d7c57829003601f168201915b5050505050815260200160028201548152602001600382018054610dbc9061479b565b80601f0160208091040260200160405190810160405280929190818152602001828054610de89061479b565b8015610e355780601f10610e0a57610100808354040283529160200191610e35565b820191906000526020600020905b815481529060010190602001808311610e1857829003601f168201915b50505050508152602001600482018054610e4e9061479b565b80601f0160208091040260200160405190810160405280929190818152602001828054610e7a9061479b565b8015610ec75780601f10610e9c57610100808354040283529160200191610ec7565b820191906000526020600020905b815481529060010190602001808311610eaa57829003601f168201915b50505050508152602001600582018054610ee09061479b565b80601f0160208091040260200160405190810160405280929190818152602001828054610f0c9061479b565b8015610f595780601f10610f2e57610100808354040283529160200191610f59565b820191906000526020600020905b815481529060010190602001808311610f3c57829003601f168201915b505050505081526020016006820160009054906101000a900473ffffffffffffffffffffffffffffffffffffffff1673ffffffffffffffffffffffffffffffffffffffff1673ffffffffffffffffffffffffffffffffffffffff168152602001600782018054610fc89061479b565b80601f0160208091040260200160405190810160405280929190818152602001828054610ff49061479b565b80156110415780601f1061101657610100808354040283529160200191611041565b820191906000526020600020905b81548152906001019060200180831161102457829003601f168201915b5050505050815260200160088201805461105a9061479b565b80601f01602080910402602001604051908101604052809291908181526020018280546110869061479b565b80156110d35780601f106110a8576101008083540402835291602001916110d3565b820191906000526020600020905b8154815290600101906020018083116110b657829003601f168201915b5050505050815260200160098201548152602001600a8201548152505081526020019060010190610ce2565b505050509050919050565b600080835111801561111d575060008251115b61115c576040517f08c379a00000000000000000000000000000000000000000000000000000000081526004016111539061439f565b60405180910390fd5b8260405160200161116d9190614166565b604051602081830303815290604052805190602001206000803373ffffffffffffffffffffffffffffffffffffffff1673ffffffffffffffffffffffffffffffffffffffff1681526020019081526020016000206001016040516020016111d4919061417d565b6040516020818303038152906040528051906020012014156112c857816040516020016112019190614166565b604051602081830303815290604052805190602001206000803373ffffffffffffffffffffffffffffffffffffffff1673ffffffffffffffffffffffffffffffffffffffff168152602001908152602001600020600301604051602001611268919061417d565b60405160208183030381529060405280519060200120141561128d5760019050611303565b6040517f08c379a00000000000000000000000000000000000000000000000000000000081526004016112bf9061437f565b60405180910390fd5b6040517f08c379a00000000000000000000000000000000000000000000000000000000081526004016112fa906143df565b60405180910390fd5b92915050565b6003602052826000526040600020602052816000526040600020818154811061133157600080fd5b906000526020600020906007020160009250925050508060000180546113569061479b565b80601f01602080910402602001604051908101604052809291908181526020018280546113829061479b565b80156113cf5780601f106113a4576101008083540402835291602001916113cf565b820191906000526020600020905b8154815290600101906020018083116113b257829003601f168201915b5050505050908060010160009054906101000a900473ffffffffffffffffffffffffffffffffffffffff169080600201805461140a9061479b565b80601f01602080910402602001604051908101604052809291908181526020018280546114369061479b565b80156114835780601f1061145857610100808354040283529160200191611483565b820191906000526020600020905b81548152906001019060200180831161146657829003601f168201915b5050505050908060030180546114989061479b565b80601f01602080910402602001604051908101604052809291908181526020018280546114c49061479b565b80156115115780601f106114e657610100808354040283529160200191611511565b820191906000526020600020905b8154815290600101906020018083116114f457829003601f168201915b5050505050908060040180546115269061479b565b80601f01602080910402602001604051908101604052809291908181526020018280546115529061479b565b801561159f5780601f106115745761010080835404028352916020019161159f565b820191906000526020600020905b81548152906001019060200180831161158257829003601f168201915b5050505050908060050180546115b49061479b565b80601f01602080910402602001604051908101604052809291908181526020018280546115e09061479b565b801561162d5780601f106116025761010080835404028352916020019161162d565b820191906000526020600020905b81548152906001019060200180831161161057829003601f168201915b5050505050908060060180546116429061479b565b80601f016020809104026020016040519081016040528092919081815260200182805461166e9061479b565b80156116bb5780601f10611690576101008083540402835291602001916116bb565b820191906000526020600020905b81548152906001019060200180831161169e57829003601f168201915b5050505050905087565b6060600480548060200260200160405190810160405280929190818152602001828054801561174957602002820191906000526020600020905b8160009054906101000a900473ffffffffffffffffffffffffffffffffffffffff1673ffffffffffffffffffffffffffffffffffffffff16815260200190600101908083116116ff575b5050505050905090565b60008451118015611765575060008351115b8015611772575060008151115b801561177f575060008251115b6117be576040517f08c379a00000000000000000000000000000000000000000000000000000000081526004016117b5906143ff565b60405180910390fd5b6040518060800160405280858152602001848152602001838152602001828152506000803373ffffffffffffffffffffffffffffffffffffffff1673ffffffffffffffffffffffffffffffffffffffff16815260200190815260200160002060008201518160000190805190602001906118399291906135d7565b5060208201518160010190805190602001906118569291906135d7565b5060408201518160020190805190602001906118739291906135d7565b5060608201518160030190805190602001906118909291906135d7565b509050507f671413dac2eab969a56ef6b264d1d83db2d1a01f7290089347ff2d9491bf3e37846040516118c3919061432a565b60405180910390a150505050565b60606002805480602002602001604051908101604052809291908181526020016000905b82821015611d1257838290600052602060002090600b020160405180610160016040529081600082015481526020016001820180546119339061479b565b80601f016020809104026020016040519081016040528092919081815260200182805461195f9061479b565b80156119ac5780601f10611981576101008083540402835291602001916119ac565b820191906000526020600020905b81548152906001019060200180831161198f57829003601f168201915b50505050508152602001600282015481526020016003820180546119cf9061479b565b80601f01602080910402602001604051908101604052809291908181526020018280546119fb9061479b565b8015611a485780601f10611a1d57610100808354040283529160200191611a48565b820191906000526020600020905b815481529060010190602001808311611a2b57829003601f168201915b50505050508152602001600482018054611a619061479b565b80601f0160208091040260200160405190810160405280929190818152602001828054611a8d9061479b565b8015611ada5780601f10611aaf57610100808354040283529160200191611ada565b820191906000526020600020905b815481529060010190602001808311611abd57829003601f168201915b50505050508152602001600582018054611af39061479b565b80601f0160208091040260200160405190810160405280929190818152602001828054611b1f9061479b565b8015611b6c5780601f10611b4157610100808354040283529160200191611b6c565b820191906000526020600020905b815481529060010190602001808311611b4f57829003601f168201915b505050505081526020016006820160009054906101000a900473ffffffffffffffffffffffffffffffffffffffff1673ffffffffffffffffffffffffffffffffffffffff1673ffffffffffffffffffffffffffffffffffffffff168152602001600782018054611bdb9061479b565b80601f0160208091040260200160405190810160405280929190818152602001828054611c079061479b565b8015611c545780601f10611c2957610100808354040283529160200191611c54565b820191906000526020600020905b815481529060010190602001808311611c3757829003601f168201915b50505050508152602001600882018054611c6d9061479b565b80601f0160208091040260200160405190810160405280929190818152602001828054611c999061479b565b8015611ce65780601f10611cbb57610100808354040283529160200191611ce6565b820191906000526020600020905b815481529060010190602001808311611cc957829003601f168201915b5050505050815260200160098201548152602001600a82015481525050815260200190600101906118f5565b50505050905090565b60048181548110611d2b57600080fd5b906000526020600020016000915054906101000a900473ffffffffffffffffffffffffffffffffffffffff1681565b600160008973ffffffffffffffffffffffffffffffffffffffff1673ffffffffffffffffffffffffffffffffffffffff168152602001908152602001600020805490508710611dde576040517f08c379a0000000000000000000000000000000000000000000000000000000008152600401611dd5906143bf565b60405180910390fd5b600360008973ffffffffffffffffffffffffffffffffffffffff1673ffffffffffffffffffffffffffffffffffffffff16815260200190815260200160002060008881526020019081526020016000206040518060e001604052808881526020013373ffffffffffffffffffffffffffffffffffffffff1681526020018781526020018681526020018581526020018481526020018381525090806001815401808255809150506001900390600052602060002090600702016000909190919091506000820151816000019080519060200190611ebc9291906135d7565b5060208201518160010160006101000a81548173ffffffffffffffffffffffffffffffffffffffff021916908373ffffffffffffffffffffffffffffffffffffffff1602179055506040820151816002019080519060200190611f209291906135d7565b506060820151816003019080519060200190611f3d9291906135d7565b506080820151816004019080519060200190611f5a9291906135d7565b5060a0820151816005019080519060200190611f779291906135d7565b5060c0820151816006019080519060200190611f949291906135d7565b5050508773ffffffffffffffffffffffffffffffffffffffff167f35c8618c3f42b2ee87bf051f2884c538ed0d9cb0e0d54fd3037900c6a91579ca8833604051611fdf92919061443f565b60405180910390a25050505050505050565b6060600360008473ffffffffffffffffffffffffffffffffffffffff1673ffffffffffffffffffffffffffffffffffffffff1681526020019081526020016000206000838152602001908152602001600020805480602002602001604051908101604052809291908181526020016000905b8282101561245757838290600052602060002090600702016040518060e00160405290816000820180546120969061479b565b80601f01602080910402602001604051908101604052809291908181526020018280546120c29061479b565b801561210f5780601f106120e45761010080835404028352916020019161210f565b820191906000526020600020905b8154815290600101906020018083116120f257829003601f168201915b505050505081526020016001820160009054906101000a900473ffffffffffffffffffffffffffffffffffffffff1673ffffffffffffffffffffffffffffffffffffffff1673ffffffffffffffffffffffffffffffffffffffff16815260200160028201805461217e9061479b565b80601f01602080910402602001604051908101604052809291908181526020018280546121aa9061479b565b80156121f75780601f106121cc576101008083540402835291602001916121f7565b820191906000526020600020905b8154815290600101906020018083116121da57829003601f168201915b505050505081526020016003820180546122109061479b565b80601f016020809104026020016040519081016040528092919081815260200182805461223c9061479b565b80156122895780601f1061225e57610100808354040283529160200191612289565b820191906000526020600020905b81548152906001019060200180831161226c57829003601f168201915b505050505081526020016004820180546122a29061479b565b80601f01602080910402602001604051908101604052809291908181526020018280546122ce9061479b565b801561231b5780601f106122f05761010080835404028352916020019161231b565b820191906000526020600020905b8154815290600101906020018083116122fe57829003601f168201915b505050505081526020016005820180546123349061479b565b80601f01602080910402602001604051908101604052809291908181526020018280546123609061479b565b80156123ad5780601f10612382576101008083540402835291602001916123ad565b820191906000526020600020905b81548152906001019060200180831161239057829003601f168201915b505050505081526020016006820180546123c69061479b565b80601f01602080910402602001604051908101604052809291908181526020018280546123f29061479b565b801561243f5780601f106124145761010080835404028352916020019161243f565b820191906000526020600020905b81548152906001019060200180831161242257829003601f168201915b50505050508152505081526020019060010190612063565b50505050905092915050565b6002818154811061247357600080fd5b90600052602060002090600b020160009150905080600001549080600101805461249c9061479b565b80601f01602080910402602001604051908101604052809291908181526020018280546124c89061479b565b80156125155780601f106124ea57610100808354040283529160200191612515565b820191906000526020600020905b8154815290600101906020018083116124f857829003601f168201915b5050505050908060020154908060030180546125309061479b565b80601f016020809104026020016040519081016040528092919081815260200182805461255c9061479b565b80156125a95780601f1061257e576101008083540402835291602001916125a9565b820191906000526020600020905b81548152906001019060200180831161258c57829003601f168201915b5050505050908060040180546125be9061479b565b80601f01602080910402602001604051908101604052809291908181526020018280546125ea9061479b565b80156126375780601f1061260c57610100808354040283529160200191612637565b820191906000526020600020905b81548152906001019060200180831161261a57829003601f168201915b50505050509080600501805461264c9061479b565b80601f01602080910402602001604051908101604052809291908181526020018280546126789061479b565b80156126c55780601f1061269a576101008083540402835291602001916126c5565b820191906000526020600020905b8154815290600101906020018083116126a857829003601f168201915b5050505050908060060160009054906101000a900473ffffffffffffffffffffffffffffffffffffffff16908060070180546127009061479b565b80601f016020809104026020016040519081016040528092919081815260200182805461272c9061479b565b80156127795780601f1061274e57610100808354040283529160200191612779565b820191906000526020600020905b81548152906001019060200180831161275c57829003601f168201915b50505050509080600801805461278e9061479b565b80601f01602080910402602001604051908101604052809291908181526020018280546127ba9061479b565b80156128075780601f106127dc57610100808354040283529160200191612807565b820191906000526020600020905b8154815290600101906020018083116127ea57829003601f168201915b50505050509080600901549080600a015490508b565b6000875111612861576040517f08c379a00000000000000000000000000000000000000000000000000000000081526004016128589061435f565b60405180910390fd5b600086116128a4576040517f08c379a000000000000000000000000000000000000000000000000000000000815260040161289b9061441f565b60405180910390fd5b6000600160003373ffffffffffffffffffffffffffffffffffffffff1673ffffffffffffffffffffffffffffffffffffffff168152602001908152602001600020805490501415612953576004339080600181540180825580915050600190039060005260206000200160009091909190916101000a81548173ffffffffffffffffffffffffffffffffffffffff021916908373ffffffffffffffffffffffffffffffffffffffff1602179055505b6000600160003373ffffffffffffffffffffffffffffffffffffffff1673ffffffffffffffffffffffffffffffffffffffff16815260200190815260200160002080549050905060006040518061016001604052808381526020018a81526020018981526020018881526020018781526020018681526020013373ffffffffffffffffffffffffffffffffffffffff1681526020018581526020018481526020016000815260200160008152509050600160003373ffffffffffffffffffffffffffffffffffffffff1673ffffffffffffffffffffffffffffffffffffffff1681526020019081526020016000208190806001815401808255809150506001900390600052602060002090600b0201600090919091909150600082015181600001556020820151816001019080519060200190612a919291906135d7565b50604082015181600201556060820151816003019080519060200190612ab89291906135d7565b506080820151816004019080519060200190612ad59291906135d7565b5060a0820151816005019080519060200190612af29291906135d7565b5060c08201518160060160006101000a81548173ffffffffffffffffffffffffffffffffffffffff021916908373ffffffffffffffffffffffffffffffffffffffff16021790555060e0820151816007019080519060200190612b569291906135d7565b50610100820151816008019080519060200190612b749291906135d7565b50610120820151816009015561014082015181600a0155505060028190806001815401808255809150506001900390600052602060002090600b0201600090919091909150600082015181600001556020820151816001019080519060200190612bdf9291906135d7565b50604082015181600201556060820151816003019080519060200190612c069291906135d7565b506080820151816004019080519060200190612c239291906135d7565b5060a0820151816005019080519060200190612c409291906135d7565b5060c08201518160060160006101000a81548173ffffffffffffffffffffffffffffffffffffffff021916908373ffffffffffffffffffffffffffffffffffffffff16021790555060e0820151816007019080519060200190612ca49291906135d7565b50610100820151816008019080519060200190612cc29291906135d7565b50610120820151816009015561014082015181600a015550503373ffffffffffffffffffffffffffffffffffffffff167fb06520f2f0557f8d0cf911deeba35fb2bb679d02afeeff46d976313a15e4b3de838b604051612d23929190614468565b60405180910390a2505050505050505050565b6060600160003373ffffffffffffffffffffffffffffffffffffffff1673ffffffffffffffffffffffffffffffffffffffff168152602001908152602001600020805480602002602001604051908101604052809291908181526020016000905b828210156131b457838290600052602060002090600b02016040518061016001604052908160008201548152602001600182018054612dd59061479b565b80601f0160208091040260200160405190810160405280929190818152602001828054612e019061479b565b8015612e4e5780601f10612e2357610100808354040283529160200191612e4e565b820191906000526020600020905b815481529060010190602001808311612e3157829003601f168201915b5050505050815260200160028201548152602001600382018054612e719061479b565b80601f0160208091040260200160405190810160405280929190818152602001828054612e9d9061479b565b8015612eea5780601f10612ebf57610100808354040283529160200191612eea565b820191906000526020600020905b815481529060010190602001808311612ecd57829003601f168201915b50505050508152602001600482018054612f039061479b565b80601f0160208091040260200160405190810160405280929190818152602001828054612f2f9061479b565b8015612f7c5780601f10612f5157610100808354040283529160200191612f7c565b820191906000526020600020905b815481529060010190602001808311612f5f57829003601f168201915b50505050508152602001600582018054612f959061479b565b80601f0160208091040260200160405190810160405280929190818152602001828054612fc19061479b565b801561300e5780601f10612fe35761010080835404028352916020019161300e565b820191906000526020600020905b815481529060010190602001808311612ff157829003601f168201915b505050505081526020016006820160009054906101000a900473ffffffffffffffffffffffffffffffffffffffff1673ffffffffffffffffffffffffffffffffffffffff1673ffffffffffffffffffffffffffffffffffffffff16815260200160078201805461307d9061479b565b80601f01602080910402602001604051908101604052809291908181526020018280546130a99061479b565b80156130f65780601f106130cb576101008083540402835291602001916130f6565b820191906000526020600020905b8154815290600101906020018083116130d957829003601f168201915b5050505050815260200160088201805461310f9061479b565b80601f016020809104026020016040519081016040528092919081815260200182805461313b9061479b565b80156131885780601f1061315d57610100808354040283529160200191613188565b820191906000526020600020905b81548152906001019060200180831161316b57829003601f168201915b5050505050815260200160098201548152602001600a8201548152505081526020019060010190612d97565b50505050905090565b600160205281600052604060002081815481106131d957600080fd5b90600052602060002090600b0201600091509150508060000154908060010180546132039061479b565b80601f016020809104026020016040519081016040528092919081815260200182805461322f9061479b565b801561327c5780601f106132515761010080835404028352916020019161327c565b820191906000526020600020905b81548152906001019060200180831161325f57829003601f168201915b5050505050908060020154908060030180546132979061479b565b80601f01602080910402602001604051908101604052809291908181526020018280546132c39061479b565b80156133105780601f106132e557610100808354040283529160200191613310565b820191906000526020600020905b8154815290600101906020018083116132f357829003601f168201915b5050505050908060040180546133259061479b565b80601f01602080910402602001604051908101604052809291908181526020018280546133519061479b565b801561339e5780601f106133735761010080835404028352916020019161339e565b820191906000526020600020905b81548152906001019060200180831161338157829003601f168201915b5050505050908060050180546133b39061479b565b80601f01602080910402602001604051908101604052809291908181526020018280546133df9061479b565b801561342c5780601f106134015761010080835404028352916020019161342c565b820191906000526020600020905b81548152906001019060200180831161340f57829003601f168201915b5050505050908060060160009054906101000a900473ffffffffffffffffffffffffffffffffffffffff16908060070180546134679061479b565b80601f01602080910402602001604051908101604052809291908181526020018280546134939061479b565b80156134e05780601f106134b5576101008083540402835291602001916134e0565b820191906000526020600020905b8154815290600101906020018083116134c357829003601f168201915b5050505050908060080180546134f59061479b565b80601f01602080910402602001604051908101604052809291908181526020018280546135219061479b565b801561356e5780601f106135435761010080835404028352916020019161356e565b820191906000526020600020905b81548152906001019060200180831161355157829003601f168201915b50505050509080600901549080600a015490508b565b6040518060e0016040528060608152602001600073ffffffffffffffffffffffffffffffffffffffff16815260200160608152602001606081526020016060815260200160608152602001606081525090565b8280546135e39061479b565b90600052602060002090601f016020900481019282613605576000855561364c565b82601f1061361e57805160ff191683800117855561364c565b8280016001018555821561364c579182015b8281111561364b578251825591602001919060010190613630565b5b509050613659919061365d565b5090565b5b8082111561367657600081600090555060010161365e565b5090565b600061368d61368884614592565b61456d565b9050828152602081018484840111156136a557600080fd5b6136b0848285614759565b509392505050565b6000813590506136c781614a79565b92915050565b600082601f8301126136de57600080fd5b81356136ee84826020860161367a565b91505092915050565b60008135905061370681614a90565b92915050565b60006020828403121561371e57600080fd5b600061372c848285016136b8565b91505092915050565b6000806040838503121561374857600080fd5b6000613756858286016136b8565b9250506020613767858286016136f7565b9150509250929050565b600080600080600080600080610100898b03121561378e57600080fd5b600061379c8b828c016136b8565b98505060206137ad8b828c016136f7565b975050604089013567ffffffffffffffff8111156137ca57600080fd5b6137d68b828c016136cd565b965050606089013567ffffffffffffffff8111156137f357600080fd5b6137ff8b828c016136cd565b955050608089013567ffffffffffffffff81111561381c57600080fd5b6138288b828c016136cd565b94505060a089013567ffffffffffffffff81111561384557600080fd5b6138518b828c016136cd565b93505060c089013567ffffffffffffffff81111561386e57600080fd5b61387a8b828c016136cd565b92505060e089013567ffffffffffffffff81111561389757600080fd5b6138a38b828c016136cd565b9150509295985092959890939650565b6000806000606084860312156138c857600080fd5b60006138d6868287016136b8565b93505060206138e7868287016136f7565b92505060406138f8868287016136f7565b9150509250925092565b6000806040838503121561391557600080fd5b600083013567ffffffffffffffff81111561392f57600080fd5b61393b858286016136cd565b925050602083013567ffffffffffffffff81111561395857600080fd5b613964858286016136cd565b9150509250929050565b6000806000806080858703121561398457600080fd5b600085013567ffffffffffffffff81111561399e57600080fd5b6139aa878288016136cd565b945050602085013567ffffffffffffffff8111156139c757600080fd5b6139d3878288016136cd565b935050604085013567ffffffffffffffff8111156139f057600080fd5b6139fc878288016136cd565b925050606085013567ffffffffffffffff811115613a1957600080fd5b613a25878288016136cd565b91505092959194509250565b600080600080600080600060e0888a031215613a4c57600080fd5b600088013567ffffffffffffffff811115613a6657600080fd5b613a728a828b016136cd565b9750506020613a838a828b016136f7565b965050604088013567ffffffffffffffff811115613aa057600080fd5b613aac8a828b016136cd565b955050606088013567ffffffffffffffff811115613ac957600080fd5b613ad58a828b016136cd565b945050608088013567ffffffffffffffff811115613af257600080fd5b613afe8a828b016136cd565b93505060a088013567ffffffffffffffff811115613b1b57600080fd5b613b278a828b016136cd565b92505060c088013567ffffffffffffffff811115613b4457600080fd5b613b508a828b016136cd565b91505092959891949750929550565b600060208284031215613b7157600080fd5b6000613b7f848285016136f7565b91505092915050565b6000613b948383613bc8565b60208301905092915050565b6000613bac8383613f77565b905092915050565b6000613bc08383614036565b905092915050565b613bd181614711565b82525050565b613be081614711565b82525050565b6000613bf182614608565b613bfb818561465b565b9350613c06836145c3565b8060005b83811015613c37578151613c1e8882613b88565b9750613c2983614634565b925050600181019050613c0a565b5085935050505092915050565b6000613c4f82614613565b613c59818561466c565b935083602082028501613c6b856145d3565b8060005b85811015613ca75784840389528151613c888582613ba0565b9450613c9383614641565b925060208a01995050600181019050613c6f565b50829750879550505050505092915050565b6000613cc48261461e565b613cce818561467d565b935083602082028501613ce0856145e3565b8060005b85811015613d1c5784840389528151613cfd8582613bb4565b9450613d088361464e565b925060208a01995050600181019050613ce4565b50829750879550505050505092915050565b613d3781614723565b82525050565b6000613d4882614629565b613d52818561468e565b9350613d62818560208601614768565b613d6b816148d4565b840191505092915050565b6000613d8182614629565b613d8b818561469f565b9350613d9b818560208601614768565b613da4816148d4565b840191505092915050565b6000613dba82614629565b613dc481856146b0565b9350613dd4818560208601614768565b80840191505092915050565b60008154613ded8161479b565b613df781866146b0565b94506001821660008114613e125760018114613e2357613e56565b60ff19831686528186019350613e56565b613e2c856145f3565b60005b83811015613e4e57815481890152600182019150602081019050613e2f565b838801955050505b50505092915050565b6000613e6c60188361469f565b9150613e77826148e5565b602082019050919050565b6000613e8f60128361469f565b9150613e9a8261490e565b602082019050919050565b6000613eb2601f8361469f565b9150613ebd82614937565b602082019050919050565b6000613ed560268361469f565b9150613ee082614960565b604082019050919050565b6000613ef8600f8361469f565b9150613f03826149af565b602082019050919050565b6000613f1b60208361469f565b9150613f26826149d8565b602082019050919050565b6000613f3e60118361469f565b9150613f4982614a01565b602082019050919050565b6000613f6160278361469f565b9150613f6c82614a2a565b604082019050919050565b600060e0830160008301518482036000860152613f948282613d3d565b9150506020830151613fa96020860182613bc8565b5060408301518482036040860152613fc18282613d3d565b91505060608301518482036060860152613fdb8282613d3d565b91505060808301518482036080860152613ff58282613d3d565b91505060a083015184820360a086015261400f8282613d3d565b91505060c083015184820360c08601526140298282613d3d565b9150508091505092915050565b60006101608301600083015161404f6000860182614148565b50602083015184820360208601526140678282613d3d565b915050604083015161407c6040860182614148565b50606083015184820360608601526140948282613d3d565b915050608083015184820360808601526140ae8282613d3d565b91505060a083015184820360a08601526140c88282613d3d565b91505060c08301516140dd60c0860182613bc8565b5060e083015184820360e08601526140f58282613d3d565b9150506101008301518482036101008601526141118282613d3d565b915050610120830151614128610120860182614148565b5061014083015161413d610140860182614148565b508091505092915050565b6141518161474f565b82525050565b6141608161474f565b82525050565b60006141728284613daf565b915081905092915050565b60006141898284613de0565b915081905092915050565b60006020820190506141a96000830184613bd7565b92915050565b600060208201905081810360008301526141c98184613be6565b905092915050565b600060208201905081810360008301526141eb8184613c44565b905092915050565b6000602082019050818103600083015261420d8184613cb9565b905092915050565b600060208201905061422a6000830184613d2e565b92915050565b600060e082019050818103600083015261424a818a613d76565b90506142596020830189613bd7565b818103604083015261426b8188613d76565b9050818103606083015261427f8187613d76565b905081810360808301526142938186613d76565b905081810360a08301526142a78185613d76565b905081810360c08301526142bb8184613d76565b905098975050505050505050565b600060808201905081810360008301526142e38187613d76565b905081810360208301526142f78186613d76565b9050818103604083015261430b8185613d76565b9050818103606083015261431f8184613d76565b905095945050505050565b600060408201905081810360008301526143448184613d76565b9050818103602083015261435781613f31565b905092915050565b6000602082019050818103600083015261437881613e5f565b9050919050565b6000602082019050818103600083015261439881613e82565b9050919050565b600060208201905081810360008301526143b881613ea5565b9050919050565b600060208201905081810360008301526143d881613ec8565b9050919050565b600060208201905081810360008301526143f881613eeb565b9050919050565b6000602082019050818103600083015261441881613f0e565b9050919050565b6000602082019050818103600083015261443881613f54565b9050919050565b60006040820190506144546000830185614157565b6144616020830184613bd7565b9392505050565b600060408201905061447d6000830185614157565b818103602083015261448f8184613d76565b90509392505050565b6000610160820190506144ae600083018e614157565b81810360208301526144c0818d613d76565b90506144cf604083018c614157565b81810360608301526144e1818b613d76565b905081810360808301526144f5818a613d76565b905081810360a08301526145098189613d76565b905061451860c0830188613bd7565b81810360e083015261452a8187613d76565b905081810361010083015261453f8186613d76565b905061454f610120830185614157565b61455d610140830184614157565b9c9b505050505050505050505050565b6000614577614588565b905061458382826147cd565b919050565b6000604051905090565b600067ffffffffffffffff8211156145ad576145ac6148a5565b5b6145b6826148d4565b9050602081019050919050565b6000819050602082019050919050565b6000819050602082019050919050565b6000819050602082019050919050565b60008190508160005260206000209050919050565b600081519050919050565b600081519050919050565b600081519050919050565b600081519050919050565b6000602082019050919050565b6000602082019050919050565b6000602082019050919050565b600082825260208201905092915050565b600082825260208201905092915050565b600082825260208201905092915050565b600082825260208201905092915050565b600082825260208201905092915050565b600081905092915050565b60006146c68261474f565b91506146d18361474f565b9250827fffffffffffffffffffffffffffffffffffffffffffffffffffffffffffffffff0382111561470657614705614847565b5b828201905092915050565b600061471c8261472f565b9050919050565b60008115159050919050565b600073ffffffffffffffffffffffffffffffffffffffff82169050919050565b6000819050919050565b82818337600083830152505050565b60005b8381101561478657808201518184015260208101905061476b565b83811115614795576000848401525b50505050565b600060028204905060018216806147b357607f821691505b602082108114156147c7576147c6614876565b5b50919050565b6147d6826148d4565b810181811067ffffffffffffffff821117156147f5576147f46148a5565b5b80604052505050565b60006148098261474f565b91507fffffffffffffffffffffffffffffffffffffffffffffffffffffffffffffffff82141561483c5761483b614847565b5b600182019050919050565b7f4e487b7100000000000000000000000000000000000000000000000000000000600052601160045260246000fd5b7f4e487b7100000000000000000000000000000000000000000000000000000000600052602260045260246000fd5b7f4e487b7100000000000000000000000000000000000000000000000000000000600052604160045260246000fd5b6000601f19601f8301169050919050565b7f50726f64756374206e616d652069732072657175697265640000000000000000600082015250565b7f496e636f72726563742070617373776f72640000000000000000000000000000600082015250565b7f496e76616c696420646174612070726f766964656420666f72204c6f67696e00600082015250565b7f50726f6475637420646f6573206e6f7420657869737420666f7220746869732060008201527f6661726d65720000000000000000000000000000000000000000000000000000602082015250565b7f456d61696c206e6f7420666f756e640000000000000000000000000000000000600082015250565b7f496e76616c696420646174612070726f766964656420666f72207369676e7570600082015250565b7f5369676e7570207375636365737366756c000000000000000000000000000000600082015250565b7f50726f64756374207072696365206d757374206265206772656174657220746860008201527f616e207a65726f00000000000000000000000000000000000000000000000000602082015250565b614a8281614711565b8114614a8d57600080fd5b50565b614a998161474f565b8114614aa457600080fd5b5056fea2646970667358221220ed42b57fc8c86d230aec8f863d5289033019b319bd0485d8446a38762d63704d64736f6c63430008020033",
  "immutableReferences": {},
  "source": "// SPDX-License-Identifier: MIT\r\npragma solidity ^0.8.2;\r\n\r\nimport \"./FarmerSignupLoginContract.sol\";\r\n\r\ncontract FarmerOperationsManagement is FarmerSignupLoginContract {\r\n    struct ProductPurchase {\r\n        string buyerName;\r\n        address buyerAddress;\r\n        string status;\r\n        string userAddress;\r\n        string userId;\r\n        string userPhoneNo;\r\n        string walletAddress;\r\n    }\r\n\r\n    struct Product {\r\n        uint productId;\r\n        string productName;\r\n        uint productPrice;\r\n        string description;\r\n        string productType;\r\n        string productImageUrl;\r\n        address creator;\r\n        string productPackedDate;\r\n        string productExpire;\r\n        uint ratingsCount;\r\n        uint averageRating;\r\n    }\r\n\r\n    // Mapping to store products of a farmer\r\n    mapping(address => Product[]) public farmerProducts;\r\n\r\n    // List of all products for buyers\r\n    Product[] public allListedProducts;\r\n\r\n    mapping(address => mapping(uint => ProductPurchase[]))\r\n        public farmerProductPurchases;\r\n\r\n    address[] public registeredFarmers;\r\n\r\n    event ProductAdded(\r\n        address indexed farmer,\r\n        uint productId,\r\n        string productName\r\n    );\r\n    event OrderReceived(address indexed farmer, uint productId, address buyer);\r\n\r\n    function addProduct(\r\n        string memory _productName,\r\n        uint _productPrice,\r\n        string memory _description,\r\n        string memory _productType,\r\n        string memory _productImageUrl,\r\n        string memory _productPackedDate,\r\n        string memory _productExpire\r\n    ) public {\r\n        require(bytes(_productName).length > 0, \"Product name is required\");\r\n        require(_productPrice > 0, \"Product price must be greater than zero\");\r\n\r\n        if (farmerProducts[msg.sender].length == 0) {\r\n            registeredFarmers.push(msg.sender);\r\n        }\r\n\r\n        uint productId = farmerProducts[msg.sender].length;\r\n\r\n        Product memory newProduct = Product({\r\n            productId: productId,\r\n            productName: _productName,\r\n            productPrice: _productPrice,\r\n            description: _description,\r\n            productType: _productType,\r\n            productImageUrl: _productImageUrl,\r\n            creator: msg.sender,\r\n            productPackedDate: _productPackedDate,\r\n            productExpire: _productExpire,\r\n            ratingsCount: 0,\r\n            averageRating: 0\r\n        });\r\n\r\n        farmerProducts[msg.sender].push(newProduct);\r\n        allListedProducts.push(newProduct);\r\n\r\n        emit ProductAdded(msg.sender, productId, _productName);\r\n    }\r\n\r\n    function addPurchase(\r\n        address _farmerAddress,\r\n        uint _productId,\r\n        string memory _buyerName,\r\n        string memory _status,\r\n        string memory _userAddress,\r\n        string memory _userId,\r\n        string memory _userPhoneNo,\r\n        string memory _walletAddress\r\n    ) public {\r\n        require(\r\n            _productId < farmerProducts[_farmerAddress].length,\r\n            \"Product does not exist for this farmer\"\r\n        );\r\n\r\n        farmerProductPurchases[_farmerAddress][_productId].push(\r\n            ProductPurchase({\r\n                buyerName: _buyerName,\r\n                buyerAddress: msg.sender,\r\n                status: _status,\r\n                userAddress: _userAddress,\r\n                userId: _userId,\r\n                userPhoneNo: _userPhoneNo,\r\n                walletAddress: _walletAddress\r\n            })\r\n        );\r\n\r\n        emit OrderReceived(_farmerAddress, _productId, msg.sender);\r\n    }\r\n\r\n    function getPurchases(\r\n        address _farmerAddress,\r\n        uint _productId\r\n    ) public view returns (ProductPurchase[] memory) {\r\n        return farmerProductPurchases[_farmerAddress][_productId];\r\n    }\r\n\r\n    function getFarmerProducts(\r\n        address _farmerAddress\r\n    ) public view returns (Product[] memory) {\r\n        return farmerProducts[_farmerAddress];\r\n    }\r\n\r\n    function getAllFarmers() public view returns (address[] memory) {\r\n        return registeredFarmers;\r\n    }\r\n\r\n    // New function: Get all products of the caller\r\n    function getMyProducts() public view returns (Product[] memory) {\r\n        return farmerProducts[msg.sender];\r\n    }\r\n\r\n    // New function: Get all orders for all products of the caller\r\n    function getMyProductOrders()\r\n        public\r\n        view\r\n        returns (ProductPurchase[] memory)\r\n    {\r\n        uint totalOrders = 0;\r\n\r\n        // Calculate total orders for all products\r\n        for (uint i = 0; i < farmerProducts[msg.sender].length; i++) {\r\n            totalOrders += farmerProductPurchases[msg.sender][i].length;\r\n        }\r\n\r\n        // Initialize an array to hold all orders\r\n        ProductPurchase[] memory allOrders = new ProductPurchase[](totalOrders);\r\n        uint index = 0;\r\n\r\n        // Populate the orders array\r\n        for (uint i = 0; i < farmerProducts[msg.sender].length; i++) {\r\n            ProductPurchase[] memory orders = farmerProductPurchases[\r\n                msg.sender\r\n            ][i];\r\n            for (uint j = 0; j < orders.length; j++) {\r\n                allOrders[index] = orders[j];\r\n                index++;\r\n            }\r\n        }\r\n\r\n        return allOrders;\r\n    }\r\n\r\n    // New function: Get all listed products for buyers\r\n    function getAllListedProducts() public view returns (Product[] memory) {\r\n        return allListedProducts;\r\n    }\r\n}\r\n",
  "sourcePath": "C:\\webdevelopment\\marketplace\\buyfresh\\smartcontracts\\contracts\\FarmerOperationsManagement.sol",
  "compiler": {
    "name": "solc",
    "version": "0.8.2+commit.661d1103.Emscripten.clang"
  },
  "schemaVersion": "3.4.16",
  "updatedAt": "2024-11-21T23:34:13.673Z",
  "networkType": "ethereum",
  "devdoc": {
    "kind": "dev",
    "methods": {},
    "version": 1
  },
  "userdoc": {
    "kind": "user",
    "methods": {},
    "version": 1
  }
}