{
  "contractName": "FarmerSignupLoginContract",
  "abi": [
    {
      "anonymous": false,
      "inputs": [
        {
          "indexed": false,
          "internalType": "string",
          "name": "reason",
          "type": "string"
        },
        {
          "indexed": false,
          "internalType": "address",
          "name": "userAddress",
          "type": "address"
        }
      ],
      "name": "LoginFailed",
      "type": "event"
    },
    {
      "anonymous": false,
      "inputs": [
        {
          "indexed": false,
          "internalType": "string",
          "name": "buyerName",
          "type": "string"
        },
        {
          "indexed": false,
          "internalType": "address",
          "name": "userAddress",
          "type": "address"
        },
        {
          "indexed": false,
          "internalType": "string",
          "name": "phone",
          "type": "string"
        }
      ],
      "name": "LoginSuccessful",
      "type": "event"
    },
    {
      "anonymous": false,
      "inputs": [
        {
          "indexed": false,
          "internalType": "string",
          "name": "reason",
          "type": "string"
        },
        {
          "indexed": false,
          "internalType": "address",
          "name": "userAddress",
          "type": "address"
        }
      ],
      "name": "SignupFailed",
      "type": "event"
    },
    {
      "anonymous": false,
      "inputs": [
        {
          "indexed": false,
          "internalType": "string",
          "name": "farmerName",
          "type": "string"
        },
        {
          "indexed": false,
          "internalType": "string",
          "name": "message",
          "type": "string"
        }
      ],
      "name": "SignupSuccessful",
      "type": "event"
    },
    {
      "inputs": [
        {
          "internalType": "address",
          "name": "",
          "type": "address"
        }
      ],
      "name": "FarmerLoginSignup",
      "outputs": [
        {
          "internalType": "string",
          "name": "name",
          "type": "string"
        },
        {
          "internalType": "string",
          "name": "email",
          "type": "string"
        },
        {
          "internalType": "string",
          "name": "number",
          "type": "string"
        },
        {
          "internalType": "string",
          "name": "password",
          "type": "string"
        }
      ],
      "stateMutability": "view",
      "type": "function"
    },
    {
      "inputs": [
        {
          "internalType": "string",
          "name": "_name",
          "type": "string"
        },
        {
          "internalType": "string",
          "name": "_email",
          "type": "string"
        },
        {
          "internalType": "string",
          "name": "_number",
          "type": "string"
        },
        {
          "internalType": "string",
          "name": "_password",
          "type": "string"
        }
      ],
      "name": "farmerSignup",
      "outputs": [],
      "stateMutability": "nonpayable",
      "type": "function"
    },
    {
      "inputs": [
        {
          "internalType": "string",
          "name": "_email",
          "type": "string"
        },
        {
          "internalType": "string",
          "name": "_password",
          "type": "string"
        }
      ],
      "name": "FarmerLogin",
      "outputs": [],
      "stateMutability": "nonpayable",
      "type": "function"
    }
  ],
  "bytecode": "0x608060405234801561001057600080fd5b5061132d806100206000396000f3fe608060405234801561001057600080fd5b50600436106100415760003560e01c806304abe1bf1461004657806311b5a9a01461007957806357769f1414610095575b600080fd5b610060600480360381019061005b91906109b1565b6100b1565b6040516100709493929190610da4565b60405180910390f35b610093600480360381019061008e91906109da565b610301565b005b6100af60048036038101906100aa9190610a46565b6105b0565b005b60006020528060005260406000206000915090508060000180546100d49061107d565b80601f01602080910402602001604051908101604052809291908181526020018280546101009061107d565b801561014d5780601f106101225761010080835404028352916020019161014d565b820191906000526020600020905b81548152906001019060200180831161013057829003601f168201915b5050505050908060010180546101629061107d565b80601f016020809104026020016040519081016040528092919081815260200182805461018e9061107d565b80156101db5780601f106101b0576101008083540402835291602001916101db565b820191906000526020600020905b8154815290600101906020018083116101be57829003601f168201915b5050505050908060020180546101f09061107d565b80601f016020809104026020016040519081016040528092919081815260200182805461021c9061107d565b80156102695780601f1061023e57610100808354040283529160200191610269565b820191906000526020600020905b81548152906001019060200180831161024c57829003601f168201915b50505050509080600301805461027e9061107d565b80601f01602080910402602001604051908101604052809291908181526020018280546102aa9061107d565b80156102f75780601f106102cc576101008083540402835291602001916102f7565b820191906000526020600020905b8154815290600101906020018083116102da57829003601f168201915b5050505050905084565b60008251118015610313575060008151115b610352576040517f08c379a000000000000000000000000000000000000000000000000000000000815260040161034990610efb565b60405180910390fd5b816040516020016103639190610d76565b604051602081830303815290604052805190602001206000803373ffffffffffffffffffffffffffffffffffffffff1673ffffffffffffffffffffffffffffffffffffffff1681526020019081526020016000206001016040516020016103ca9190610d8d565b6040516020818303038152906040528051906020012014610421577f45226a63e1b6062c46dfcc14e36b2accef2bea558871ed870b1ffe52d2725aa4336040516104149190610ead565b60405180910390a16105ac565b806040516020016104329190610d76565b604051602081830303815290604052805190602001206000803373ffffffffffffffffffffffffffffffffffffffff1673ffffffffffffffffffffffffffffffffffffffff1681526020019081526020016000206003016040516020016104999190610d8d565b60405160208183030381529060405280519060200120146104f0577f45226a63e1b6062c46dfcc14e36b2accef2bea558871ed870b1ffe52d2725aa4336040516104e39190610e7f565b60405180910390a16105ac565b7f8aefa4c5fda036fb5dafbd5aa48a24605bfc97d80118647259a33a3805ba08756000803373ffffffffffffffffffffffffffffffffffffffff1673ffffffffffffffffffffffffffffffffffffffff168152602001908152602001600020600001336000803373ffffffffffffffffffffffffffffffffffffffff1673ffffffffffffffffffffffffffffffffffffffff1681526020019081526020016000206002016040516105a393929190610e3a565b60405180910390a15b5050565b600084511180156105c2575060008351115b80156105cf575060008151115b80156105dc575060008251115b61061b576040517f08c379a000000000000000000000000000000000000000000000000000000000815260040161061290610edb565b60405180910390fd5b60008060003373ffffffffffffffffffffffffffffffffffffffff1673ffffffffffffffffffffffffffffffffffffffff16815260200190815260200160002060010180546106699061107d565b905011156106ad577f676077b98b7c732823f8732b80c1f314bb346bb103066c56fe39e14e10b1c6d3336040516106a09190610f49565b60405180910390a161088b565b826040516020016106be9190610d76565b604051602081830303815290604052805190602001206000803373ffffffffffffffffffffffffffffffffffffffff1673ffffffffffffffffffffffffffffffffffffffff1681526020019081526020016000206001016040516020016107259190610d8d565b60405160208183030381529060405280519060200120141561077d577f676077b98b7c732823f8732b80c1f314bb346bb103066c56fe39e14e10b1c6d3336040516107709190610f1b565b60405180910390a161088b565b6040518060800160405280858152602001848152602001838152602001828152506000803373ffffffffffffffffffffffffffffffffffffffff1673ffffffffffffffffffffffffffffffffffffffff16815260200190815260200160002060008201518160000190805190602001906107f8929190610891565b506020820151816001019080519060200190610815929190610891565b506040820151816002019080519060200190610832929190610891565b50606082015181600301908051906020019061084f929190610891565b509050507f671413dac2eab969a56ef6b264d1d83db2d1a01f7290089347ff2d9491bf3e37846040516108829190610e05565b60405180910390a15b50505050565b82805461089d9061107d565b90600052602060002090601f0160209004810192826108bf5760008555610906565b82601f106108d857805160ff1916838001178555610906565b82800160010185558215610906579182015b828111156109055782518255916020019190600101906108ea565b5b5090506109139190610917565b5090565b5b80821115610930576000816000905550600101610918565b5090565b600061094761094284610f9c565b610f77565b90508281526020810184848401111561095f57600080fd5b61096a84828561103b565b509392505050565b600081359050610981816112e0565b92915050565b600082601f83011261099857600080fd5b81356109a8848260208601610934565b91505092915050565b6000602082840312156109c357600080fd5b60006109d184828501610972565b91505092915050565b600080604083850312156109ed57600080fd5b600083013567ffffffffffffffff811115610a0757600080fd5b610a1385828601610987565b925050602083013567ffffffffffffffff811115610a3057600080fd5b610a3c85828601610987565b9150509250929050565b60008060008060808587031215610a5c57600080fd5b600085013567ffffffffffffffff811115610a7657600080fd5b610a8287828801610987565b945050602085013567ffffffffffffffff811115610a9f57600080fd5b610aab87828801610987565b935050604085013567ffffffffffffffff811115610ac857600080fd5b610ad487828801610987565b925050606085013567ffffffffffffffff811115610af157600080fd5b610afd87828801610987565b91505092959194509250565b610b1281611009565b82525050565b6000610b2382610fe2565b610b2d8185610fed565b9350610b3d81856020860161104a565b610b468161113e565b840191505092915050565b6000610b5c82610fe2565b610b668185610ffe565b9350610b7681856020860161104a565b80840191505092915050565b60008154610b8f8161107d565b610b998186610fed565b94506001821660008114610bb45760018114610bc657610bf9565b60ff1983168652602086019350610bf9565b610bcf85610fcd565b60005b83811015610bf157815481890152600182019150602081019050610bd2565b808801955050505b50505092915050565b60008154610c0f8161107d565b610c198186610ffe565b94506001821660008114610c345760018114610c4557610c78565b60ff19831686528186019350610c78565b610c4e85610fcd565b60005b83811015610c7057815481890152600182019150602081019050610c51565b838801955050505b50505092915050565b6000610c8e601283610fed565b9150610c998261114f565b602082019050919050565b6000610cb1600f83610fed565b9150610cbc82611178565b602082019050919050565b6000610cd4602083610fed565b9150610cdf826111a1565b602082019050919050565b6000610cf7601f83610fed565b9150610d02826111ca565b602082019050919050565b6000610d1a603383610fed565b9150610d25826111f3565b604082019050919050565b6000610d3d601183610fed565b9150610d4882611242565b602082019050919050565b6000610d60605d83610fed565b9150610d6b8261126b565b606082019050919050565b6000610d828284610b51565b915081905092915050565b6000610d998284610c02565b915081905092915050565b60006080820190508181036000830152610dbe8187610b18565b90508181036020830152610dd28186610b18565b90508181036040830152610de68185610b18565b90508181036060830152610dfa8184610b18565b905095945050505050565b60006040820190508181036000830152610e1f8184610b18565b90508181036020830152610e3281610d30565b905092915050565b60006060820190508181036000830152610e548186610b82565b9050610e636020830185610b09565b8181036040830152610e758184610b82565b9050949350505050565b60006040820190508181036000830152610e9881610c81565b9050610ea76020830184610b09565b92915050565b60006040820190508181036000830152610ec681610ca4565b9050610ed56020830184610b09565b92915050565b60006020820190508181036000830152610ef481610cc7565b9050919050565b60006020820190508181036000830152610f1481610cea565b9050919050565b60006040820190508181036000830152610f3481610d0d565b9050610f436020830184610b09565b92915050565b60006040820190508181036000830152610f6281610d53565b9050610f716020830184610b09565b92915050565b6000610f81610f92565b9050610f8d82826110af565b919050565b6000604051905090565b600067ffffffffffffffff821115610fb757610fb661110f565b5b610fc08261113e565b9050602081019050919050565b60008190508160005260206000209050919050565b600081519050919050565b600082825260208201905092915050565b600081905092915050565b60006110148261101b565b9050919050565b600073ffffffffffffffffffffffffffffffffffffffff82169050919050565b82818337600083830152505050565b60005b8381101561106857808201518184015260208101905061104d565b83811115611077576000848401525b50505050565b6000600282049050600182168061109557607f821691505b602082108114156110a9576110a86110e0565b5b50919050565b6110b88261113e565b810181811067ffffffffffffffff821117156110d7576110d661110f565b5b80604052505050565b7f4e487b7100000000000000000000000000000000000000000000000000000000600052602260045260246000fd5b7f4e487b7100000000000000000000000000000000000000000000000000000000600052604160045260246000fd5b6000601f19601f8301169050919050565b7f496e636f72726563742070617373776f72640000000000000000000000000000600082015250565b7f456d61696c206e6f7420666f756e640000000000000000000000000000000000600082015250565b7f496e76616c696420646174612070726f766964656420666f72207369676e7570600082015250565b7f496e76616c696420646174612070726f766964656420666f72206c6f67696e00600082015250565b7f456d61696c20616c726561647920696e207573652e20506c656173652075736560008201527f206120646966666572656e7420656d61696c2e00000000000000000000000000602082015250565b7f5369676e7570207375636365737366756c000000000000000000000000000000600082015250565b7f5573657220776974682074686973204d6574614d61736b20494420616c72656160008201527f6479206578697374732e20506c6561736520757365207468652065786973746960208201527f6e67206163636f756e74206f72207570646174652064657461696c732e000000604082015250565b6112e981611009565b81146112f457600080fd5b5056fea26469706673582212207a3ec65fc83025226e40092ee69a7e6a97ae743d4ba36ec148164764855f9f3a64736f6c63430008020033",
  "immutableReferences": {},
  "source": "// SPDX-License-Identifier: MIT\r\npragma solidity ^0.8.2;\r\n\r\ncontract FarmerSignupLoginContract {\r\n    struct Farmer {\r\n        string name;\r\n        string email;\r\n        string number;\r\n        string password;\r\n    }\r\n\r\n    mapping(address => Farmer) public FarmerLoginSignup;\r\n\r\n    // Events for different scenarios\r\n    event SignupSuccessful(string farmerName, string message);\r\n    event SignupFailed(string reason, address userAddress);\r\n    event LoginFailed(string reason, address userAddress);\r\n    event LoginSuccessful(string buyerName, address userAddress, string phone);\r\n\r\n    // Signup function\r\n    function farmerSignup(\r\n        string memory _name,\r\n        string memory _email,\r\n        string memory _number,\r\n        string memory _password\r\n    ) public {\r\n        require(\r\n            bytes(_name).length > 0 &&\r\n                bytes(_email).length > 0 &&\r\n                bytes(_password).length > 0 &&\r\n                bytes(_number).length > 0,\r\n            \"Invalid data provided for signup\"\r\n        );\r\n\r\n        // Check if the sender address already exists\r\n        if (bytes(FarmerLoginSignup[msg.sender].email).length > 0) {\r\n            emit SignupFailed(\r\n                \"User with this MetaMask ID already exists. Please use the existing account or update details.\",\r\n                msg.sender\r\n            );\r\n            return;\r\n        }\r\n\r\n        // Check if the email is already associated with another address\r\n        if (\r\n            keccak256(abi.encodePacked(FarmerLoginSignup[msg.sender].email)) ==\r\n            keccak256(abi.encodePacked(_email))\r\n        ) {\r\n            emit SignupFailed(\r\n                \"Email already in use. Please use a different email.\",\r\n                msg.sender\r\n            );\r\n            return;\r\n        }\r\n\r\n        // Add the farmer details to the mapping\r\n        FarmerLoginSignup[msg.sender] = Farmer({\r\n            name: _name,\r\n            email: _email,\r\n            number: _number,\r\n            password: _password\r\n        });\r\n\r\n        emit SignupSuccessful(_name, \"Signup successful\");\r\n    }\r\n\r\n    // Login function\r\n   function FarmerLogin(string memory _email, string memory _password) public {\r\n    require(\r\n        bytes(_email).length > 0 && bytes(_password).length > 0,\r\n        \"Invalid data provided for login\"\r\n    );\r\n\r\n    // Check if the email matches\r\n    if (\r\n        keccak256(abi.encodePacked(FarmerLoginSignup[msg.sender].email)) !=\r\n        keccak256(abi.encodePacked(_email))\r\n    ) {\r\n        emit LoginFailed(\"Email not found\", msg.sender);\r\n        return; // Exit the function early if the email doesn't match\r\n    }\r\n\r\n    // Check if the password matches\r\n    if (\r\n        keccak256(abi.encodePacked(FarmerLoginSignup[msg.sender].password)) !=\r\n        keccak256(abi.encodePacked(_password))\r\n    ) {\r\n        emit LoginFailed(\"Incorrect password\", msg.sender);\r\n        return; // Exit the function early if the password doesn't match\r\n    }\r\n\r\n    // Emit success only when both email and password match\r\n    emit LoginSuccessful(\r\n        FarmerLoginSignup[msg.sender].name,\r\n        msg.sender,\r\n        FarmerLoginSignup[msg.sender].number\r\n    );\r\n}\r\n}\r\n",
  "sourcePath": "C:\\webdevelopment\\marketplace\\buyfresh\\smartcontracts\\contracts\\FarmerSignupLoginContract.sol",
  "compiler": {
    "name": "solc",
    "version": "0.8.2+commit.661d1103.Emscripten.clang"
  },
  "schemaVersion": "3.4.16",
  "updatedAt": "2024-12-04T13:57:58.052Z",
  "devdoc": {
    "kind": "dev",
    "methods": {},
    "version": 1
  },
  "userdoc": {
    "kind": "user",
    "methods": {},
    "version": 1
  }
}